{
  "contractName": "Estadual",
  "abi": [
    {
      "inputs": [
        {
          "internalType": "address",
          "name": "_moeda",
          "type": "address"
        }
      ],
      "stateMutability": "nonpayable",
      "type": "constructor"
    },
    {
      "inputs": [],
      "name": "AccessControlBadConfirmation",
      "type": "error"
    },
    {
      "inputs": [
        {
          "internalType": "address",
          "name": "account",
          "type": "address"
        },
        {
          "internalType": "bytes32",
          "name": "neededRole",
          "type": "bytes32"
        }
      ],
      "name": "AccessControlUnauthorizedAccount",
      "type": "error"
    },
    {
      "inputs": [],
      "name": "ReentrancyGuardReentrantCall",
      "type": "error"
    },
    {
      "inputs": [
        {
          "internalType": "address",
          "name": "token",
          "type": "address"
        }
      ],
      "name": "SafeERC20FailedOperation",
      "type": "error"
    },
    {
      "anonymous": false,
      "inputs": [
        {
          "indexed": true,
          "internalType": "address",
          "name": "admin",
          "type": "address"
        },
        {
          "indexed": true,
          "internalType": "enum Enumeradores.TipoOrgao",
          "name": "tipoContrato",
          "type": "uint8"
        },
        {
          "indexed": false,
          "internalType": "address",
          "name": "contratoAntigo",
          "type": "address"
        },
        {
          "indexed": false,
          "internalType": "address",
          "name": "contratoNovo",
          "type": "address"
        }
      ],
      "name": "EventoContrato",
      "type": "event"
    },
    {
      "anonymous": false,
      "inputs": [
        {
          "indexed": true,
          "internalType": "bytes32",
          "name": "txAnterior",
          "type": "bytes32"
        },
        {
          "indexed": true,
          "internalType": "address",
          "name": "orgao",
          "type": "address"
        },
        {
          "indexed": true,
          "internalType": "address",
          "name": "fornecedor",
          "type": "address"
        },
        {
          "indexed": false,
          "internalType": "uint256",
          "name": "despesaId",
          "type": "uint256"
        },
        {
          "indexed": false,
          "internalType": "uint256",
          "name": "valor",
          "type": "uint256"
        },
        {
          "indexed": false,
          "internalType": "enum Enumeradores.Situacao",
          "name": "situacao",
          "type": "uint8"
        },
        {
          "indexed": false,
          "internalType": "string",
          "name": "justificativa",
          "type": "string"
        }
      ],
      "name": "EventoDespesa",
      "type": "event"
    },
    {
      "anonymous": false,
      "inputs": [
        {
          "indexed": true,
          "internalType": "bytes32",
          "name": "txAnterior",
          "type": "bytes32"
        },
        {
          "indexed": true,
          "internalType": "address",
          "name": "orgao",
          "type": "address"
        },
        {
          "indexed": true,
          "internalType": "enum Enumeradores.TipoOrgao",
          "name": "destino",
          "type": "uint8"
        },
        {
          "indexed": false,
          "internalType": "uint256",
          "name": "valor",
          "type": "uint256"
        },
        {
          "indexed": false,
          "internalType": "string",
          "name": "justificativa",
          "type": "string"
        }
      ],
      "name": "EventoDistribuicao",
      "type": "event"
    },
    {
      "anonymous": false,
      "inputs": [
        {
          "indexed": true,
          "internalType": "enum Enumeradores.Situacao",
          "name": "situacao",
          "type": "uint8"
        },
        {
          "indexed": true,
          "internalType": "uint256",
          "name": "despesaId",
          "type": "uint256"
        }
      ],
      "name": "EventoSituacaoDespesa",
      "type": "event"
    },
    {
      "anonymous": false,
      "inputs": [
        {
          "indexed": true,
          "internalType": "address",
          "name": "admin",
          "type": "address"
        },
        {
          "indexed": true,
          "internalType": "address",
          "name": "endereco",
          "type": "address"
        },
        {
          "indexed": true,
          "internalType": "enum Enumeradores.TipoPermissao",
          "name": "tipoPermissao",
          "type": "uint8"
        }
      ],
      "name": "PermissaoAdicionada",
      "type": "event"
    },
    {
      "anonymous": false,
      "inputs": [
        {
          "indexed": true,
          "internalType": "address",
          "name": "admin",
          "type": "address"
        },
        {
          "indexed": true,
          "internalType": "address",
          "name": "endereco",
          "type": "address"
        },
        {
          "indexed": true,
          "internalType": "enum Enumeradores.TipoPermissao",
          "name": "tipoPermissao",
          "type": "uint8"
        }
      ],
      "name": "PermissaoRemovida",
      "type": "event"
    },
    {
      "anonymous": false,
      "inputs": [
        {
          "indexed": true,
          "internalType": "bytes32",
          "name": "role",
          "type": "bytes32"
        },
        {
          "indexed": true,
          "internalType": "bytes32",
          "name": "previousAdminRole",
          "type": "bytes32"
        },
        {
          "indexed": true,
          "internalType": "bytes32",
          "name": "newAdminRole",
          "type": "bytes32"
        }
      ],
      "name": "RoleAdminChanged",
      "type": "event"
    },
    {
      "anonymous": false,
      "inputs": [
        {
          "indexed": true,
          "internalType": "bytes32",
          "name": "role",
          "type": "bytes32"
        },
        {
          "indexed": true,
          "internalType": "address",
          "name": "account",
          "type": "address"
        },
        {
          "indexed": true,
          "internalType": "address",
          "name": "sender",
          "type": "address"
        }
      ],
      "name": "RoleGranted",
      "type": "event"
    },
    {
      "anonymous": false,
      "inputs": [
        {
          "indexed": true,
          "internalType": "bytes32",
          "name": "role",
          "type": "bytes32"
        },
        {
          "indexed": true,
          "internalType": "address",
          "name": "account",
          "type": "address"
        },
        {
          "indexed": true,
          "internalType": "address",
          "name": "sender",
          "type": "address"
        }
      ],
      "name": "RoleRevoked",
      "type": "event"
    },
    {
      "inputs": [],
      "name": "DEFAULT_ADMIN_ROLE",
      "outputs": [
        {
          "internalType": "bytes32",
          "name": "",
          "type": "bytes32"
        }
      ],
      "stateMutability": "view",
      "type": "function",
      "constant": true
    },
    {
      "inputs": [],
      "name": "FORNECEDOR_ROLE",
      "outputs": [
        {
          "internalType": "bytes32",
          "name": "",
          "type": "bytes32"
        }
      ],
      "stateMutability": "view",
      "type": "function",
      "constant": true
    },
    {
      "inputs": [],
      "name": "ORGAO_ROLE",
      "outputs": [
        {
          "internalType": "bytes32",
          "name": "",
          "type": "bytes32"
        }
      ],
      "stateMutability": "view",
      "type": "function",
      "constant": true
    },
    {
      "inputs": [
        {
          "internalType": "address",
          "name": "_endereco",
          "type": "address"
        }
      ],
      "name": "adicionarPermissaoFornecedor",
      "outputs": [],
      "stateMutability": "nonpayable",
      "type": "function"
    },
    {
      "inputs": [
        {
          "internalType": "address",
          "name": "_endereco",
          "type": "address"
        }
      ],
      "name": "adicionarPermissaoOrgao",
      "outputs": [],
      "stateMutability": "nonpayable",
      "type": "function"
    },
    {
      "inputs": [],
      "name": "aplicacao",
      "outputs": [
        {
          "internalType": "uint256",
          "name": "percentualMinimo",
          "type": "uint256"
        },
        {
          "internalType": "uint256",
          "name": "percentualAplicado",
          "type": "uint256"
        },
        {
          "internalType": "uint256",
          "name": "valorAplicado",
          "type": "uint256"
        },
        {
          "internalType": "uint256",
          "name": "valorArrecadado",
          "type": "uint256"
        },
        {
          "internalType": "uint256",
          "name": "valorDistribuido",
          "type": "uint256"
        }
      ],
      "stateMutability": "view",
      "type": "function",
      "constant": true
    },
    {
      "inputs": [],
      "name": "buscarFornecedoresAtivos",
      "outputs": [
        {
          "internalType": "address[]",
          "name": "",
          "type": "address[]"
        }
      ],
      "stateMutability": "view",
      "type": "function",
      "constant": true
    },
    {
      "inputs": [],
      "name": "buscarOrgaosAtivos",
      "outputs": [
        {
          "internalType": "address[]",
          "name": "",
          "type": "address[]"
        }
      ],
      "stateMutability": "view",
      "type": "function",
      "constant": true
    },
    {
      "inputs": [],
      "name": "contrato",
      "outputs": [
        {
          "internalType": "address",
          "name": "estadual",
          "type": "address"
        },
        {
          "internalType": "address",
          "name": "municipal",
          "type": "address"
        }
      ],
      "stateMutability": "view",
      "type": "function",
      "constant": true
    },
    {
      "inputs": [
        {
          "internalType": "uint256",
          "name": "",
          "type": "uint256"
        }
      ],
      "name": "despesas",
      "outputs": [
        {
          "internalType": "uint256",
          "name": "id",
          "type": "uint256"
        },
        {
          "internalType": "address",
          "name": "emitente",
          "type": "address"
        },
        {
          "internalType": "address",
          "name": "fornecedor",
          "type": "address"
        },
        {
          "internalType": "enum Enumeradores.Situacao",
          "name": "situacao",
          "type": "uint8"
        },
        {
          "internalType": "uint256",
          "name": "valor",
          "type": "uint256"
        }
      ],
      "stateMutability": "view",
      "type": "function",
      "constant": true
    },
    {
      "inputs": [
        {
          "internalType": "bytes32",
          "name": "role",
          "type": "bytes32"
        }
      ],
      "name": "getRoleAdmin",
      "outputs": [
        {
          "internalType": "bytes32",
          "name": "",
          "type": "bytes32"
        }
      ],
      "stateMutability": "view",
      "type": "function",
      "constant": true
    },
    {
      "inputs": [
        {
          "internalType": "bytes32",
          "name": "role",
          "type": "bytes32"
        },
        {
          "internalType": "address",
          "name": "account",
          "type": "address"
        }
      ],
      "name": "grantRole",
      "outputs": [],
      "stateMutability": "nonpayable",
      "type": "function"
    },
    {
      "inputs": [
        {
          "internalType": "bytes32",
          "name": "role",
          "type": "bytes32"
        },
        {
          "internalType": "address",
          "name": "account",
          "type": "address"
        }
      ],
      "name": "hasRole",
      "outputs": [
        {
          "internalType": "bool",
          "name": "",
          "type": "bool"
        }
      ],
      "stateMutability": "view",
      "type": "function",
      "constant": true
    },
    {
      "inputs": [],
      "name": "moeda",
      "outputs": [
        {
          "internalType": "contract IERC20",
          "name": "",
          "type": "address"
        }
      ],
      "stateMutability": "view",
      "type": "function",
      "constant": true
    },
    {
      "inputs": [
        {
          "internalType": "address",
          "name": "_endereco",
          "type": "address"
        }
      ],
      "name": "removerPermissaoFornecedor",
      "outputs": [],
      "stateMutability": "nonpayable",
      "type": "function"
    },
    {
      "inputs": [
        {
          "internalType": "address",
          "name": "_endereco",
          "type": "address"
        }
      ],
      "name": "removerPermissaoOrgao",
      "outputs": [],
      "stateMutability": "nonpayable",
      "type": "function"
    },
    {
      "inputs": [
        {
          "internalType": "bytes32",
          "name": "role",
          "type": "bytes32"
        },
        {
          "internalType": "address",
          "name": "callerConfirmation",
          "type": "address"
        }
      ],
      "name": "renounceRole",
      "outputs": [],
      "stateMutability": "nonpayable",
      "type": "function"
    },
    {
      "inputs": [
        {
          "internalType": "bytes32",
          "name": "role",
          "type": "bytes32"
        },
        {
          "internalType": "address",
          "name": "account",
          "type": "address"
        }
      ],
      "name": "revokeRole",
      "outputs": [],
      "stateMutability": "nonpayable",
      "type": "function"
    },
    {
      "inputs": [
        {
          "internalType": "bytes4",
          "name": "interfaceId",
          "type": "bytes4"
        }
      ],
      "name": "supportsInterface",
      "outputs": [
        {
          "internalType": "bool",
          "name": "",
          "type": "bool"
        }
      ],
      "stateMutability": "view",
      "type": "function",
      "constant": true
    },
    {
      "inputs": [],
      "name": "temPermissaoFornecedor",
      "outputs": [
        {
          "internalType": "bool",
          "name": "",
          "type": "bool"
        }
      ],
      "stateMutability": "view",
      "type": "function",
      "constant": true
    },
    {
      "inputs": [],
      "name": "temPermissaoOrgao",
      "outputs": [
        {
          "internalType": "bool",
          "name": "",
          "type": "bool"
        }
      ],
      "stateMutability": "view",
      "type": "function",
      "constant": true
    },
    {
      "inputs": [],
      "name": "setValorArrecadado",
      "outputs": [],
      "stateMutability": "nonpayable",
      "type": "function"
    },
    {
      "inputs": [
        {
          "internalType": "address",
          "name": "_novoContrato",
          "type": "address"
        }
      ],
      "name": "setContrato",
      "outputs": [],
      "stateMutability": "nonpayable",
      "type": "function"
    },
    {
      "inputs": [],
      "name": "buscarSaldo",
      "outputs": [
        {
          "internalType": "uint256",
          "name": "",
          "type": "uint256"
        }
      ],
      "stateMutability": "view",
      "type": "function",
      "constant": true
    },
    {
      "inputs": [
        {
          "internalType": "uint256",
          "name": "_valor",
          "type": "uint256"
        },
        {
          "internalType": "string",
          "name": "_justificativa",
          "type": "string"
        },
        {
          "internalType": "bytes32",
          "name": "_txAnterior",
          "type": "bytes32"
        }
      ],
      "name": "distribuir",
      "outputs": [],
      "stateMutability": "nonpayable",
      "type": "function"
    },
    {
      "inputs": [
        {
          "internalType": "uint256",
          "name": "_valor",
          "type": "uint256"
        },
        {
          "internalType": "address",
          "name": "_fornecedor",
          "type": "address"
        },
        {
          "internalType": "string",
          "name": "_justificativa",
          "type": "string"
        },
        {
          "internalType": "bytes32",
          "name": "_txAnterior",
          "type": "bytes32"
        }
      ],
      "name": "registrar",
      "outputs": [],
      "stateMutability": "nonpayable",
      "type": "function"
    },
    {
      "inputs": [
        {
          "internalType": "uint256",
          "name": "_id",
          "type": "uint256"
        }
      ],
      "name": "confirmarEntrega",
      "outputs": [],
      "stateMutability": "nonpayable",
      "type": "function"
    },
    {
      "inputs": [
        {
          "internalType": "uint256",
          "name": "_id",
          "type": "uint256"
        }
      ],
      "name": "confirmarRecebimento",
      "outputs": [],
      "stateMutability": "nonpayable",
      "type": "function"
    }
  ],
  "bytecode": "0x60806040526040518060a00160405280600c81526020015f81526020015f81526020015f81526020015f81525060075f820151815f01556020820151816001015560408201518160020155606082015181600301556080820151816004015550506001600f5534801562000071575f80fd5b50604051620031dc380380620031dc833981810160405281019062000097919062000336565b620000ab5f801b336200016c60201b60201c565b5060016005819055505f73ffffffffffffffffffffffffffffffffffffffff168173ffffffffffffffffffffffffffffffffffffffff160362000125576040517f08c379a00000000000000000000000000000000000000000000000000000000081526004016200011c90620003c4565b60405180910390fd5b8060065f6101000a81548173ffffffffffffffffffffffffffffffffffffffff021916908373ffffffffffffffffffffffffffffffffffffffff16021790555050620003e4565b5f6200017f83836200026760201b60201c565b6200025d5760015f808581526020019081526020015f205f015f8473ffffffffffffffffffffffffffffffffffffffff1673ffffffffffffffffffffffffffffffffffffffff1681526020019081526020015f205f6101000a81548160ff021916908315150217905550620001f9620002ca60201b60201c565b73ffffffffffffffffffffffffffffffffffffffff168273ffffffffffffffffffffffffffffffffffffffff16847f2f8788117e7eff1d82e926ec794901d17c78024a50270940304540a733656f0d60405160405180910390a46001905062000261565b5f90505b92915050565b5f805f8481526020019081526020015f205f015f8373ffffffffffffffffffffffffffffffffffffffff1673ffffffffffffffffffffffffffffffffffffffff1681526020019081526020015f205f9054906101000a900460ff16905092915050565b5f33905090565b5f80fd5b5f73ffffffffffffffffffffffffffffffffffffffff82169050919050565b5f6200030082620002d5565b9050919050565b6200031281620002f4565b81146200031d575f80fd5b50565b5f81519050620003308162000307565b92915050565b5f602082840312156200034e576200034d620002d1565b5b5f6200035d8482850162000320565b91505092915050565b5f82825260208201905092915050565b7f4d6f65646120696e76616c6964610000000000000000000000000000000000005f82015250565b5f620003ac600e8362000366565b9150620003b98262000376565b602082019050919050565b5f6020820190508181035f830152620003dd816200039e565b9050919050565b612dea80620003f25f395ff3fe608060405234801561000f575f80fd5b50600436106101c2575f3560e01c80636d8696d7116100f7578063a217fddf11610095578063d547741f1161006f578063d547741f146104be578063e1a01e67146104da578063eea4be16146104f9578063eea7f82414610517576101c2565b8063a217fddf14610466578063be8f566c14610484578063c66b20ca146104a0576101c2565b80638bc4d831116100d15780638bc4d831146103d857806391d14854146103fa5780639f2dafc21461042a578063a0960d9614610448576101c2565b80636d8696d71461036c57806380151dd314610388578063812af9b7146103a4576101c2565b80632f2ff15d116101645780634b156e921161013e5780634b156e921461030a5780635db8607d14610328578063640e0f6a1461034457806365b174f51461034e576101c2565b80632f2ff15d146102b657806332056db8146102d257806336568abe146102ee576101c2565b80630d046a15116101a05780630d046a1514610230578063248a9ca31461024e5780632553ac251461027e5780632e5a29e91461029a576101c2565b806301ffc9a7146101c65780630687bdf8146101f65780630729f5a014610214575b5f80fd5b6101e060048036038101906101db91906120ef565b610533565b6040516101ed9190612134565b60405180910390f35b6101fe6105ac565b60405161020b9190612234565b60405180910390f35b61022e6004803603810190610229919061227e565b6105bd565b005b61023861079c565b60405161024591906122c1565b60405180910390f35b61026860048036038101906102639190612304565b6107c0565b60405161027591906122c1565b60405180910390f35b61029860048036038101906102939190612362565b6107dc565b005b6102b460048036038101906102af919061227e565b610ab3565b005b6102d060048036038101906102cb919061238d565b610ba2565b005b6102ec60048036038101906102e79190612507565b610bc4565b005b6103086004803603810190610303919061238d565b610e18565b005b610312610e93565b60405161031f91906125ce565b60405180910390f35b610342600480360381019061033d919061227e565b610eb8565b005b61034c610fa8565b005b610356610fc8565b60405161036391906122c1565b60405180910390f35b6103866004803603810190610381919061227e565b610fec565b005b6103a2600480360381019061039d919061227e565b6110dc565b005b6103be60048036038101906103b99190612362565b6111cb565b6040516103cf959493929190612678565b60405180910390f35b6103e0611248565b6040516103f19594939291906126c9565b60405180910390f35b610414600480360381019061040f919061238d565b61126b565b6040516104219190612134565b60405180910390f35b6104326112ce565b60405161043f9190612134565b60405180910390f35b6104506112fe565b60405161045d919061271a565b60405180910390f35b61046e61139d565b60405161047b91906122c1565b60405180910390f35b61049e60048036038101906104999190612733565b6113a3565b005b6104a861164d565b6040516104b59190612234565b60405180910390f35b6104d860048036038101906104d3919061238d565b61165e565b005b6104e2611680565b6040516104f09291906127b3565b60405180910390f35b6105016116cf565b60405161050e9190612134565b60405180910390f35b610531600480360381019061052c9190612362565b6116ff565b005b5f7f7965db0b000000000000000000000000000000000000000000000000000000007bffffffffffffffffffffffffffffffffffffffffffffffffffffffff1916827bffffffffffffffffffffffffffffffffffffffffffffffffffffffff191614806105a557506105a4826119d6565b5b9050919050565b60606105b86001611a3f565b905090565b5f801b6105c981611a5e565b5f73ffffffffffffffffffffffffffffffffffffffff168273ffffffffffffffffffffffffffffffffffffffff1603610637576040517f08c379a000000000000000000000000000000000000000000000000000000000815260040161062e90612834565b60405180910390fd5b8173ffffffffffffffffffffffffffffffffffffffff16600c6001015f9054906101000a900473ffffffffffffffffffffffffffffffffffffffff1673ffffffffffffffffffffffffffffffffffffffff16036106c9576040517f08c379a00000000000000000000000000000000000000000000000000000000081526004016106c09061289c565b60405180910390fd5b5f600c6001015f9054906101000a900473ffffffffffffffffffffffffffffffffffffffff16905082600c6001015f6101000a81548173ffffffffffffffffffffffffffffffffffffffff021916908373ffffffffffffffffffffffffffffffffffffffff16021790555060028081111561074757610746612605565b5b3373ffffffffffffffffffffffffffffffffffffffff167f51f55bb8c7e9a53719b1a22e21ccc9192133fcab62f2c42a9114b82bf6ac25ad838660405161078f9291906127b3565b60405180910390a3505050565b7f4c9be3f07a6d4b8d9a30ee174f3013f5828af8f3e9648a5e6a243775be68c5b781565b5f805f8381526020019081526020015f20600101549050919050565b7f7fb24e16434340412711790bec5b70aba75544e6dad82e36dafb84a8da78b81d61080681611a5e565b5f600e5f8481526020019081526020015f20905060038081111561082d5761082c612605565b5b8160020160149054906101000a900460ff16600381111561085157610850612605565b5b1415801561089557506002600381111561086e5761086d612605565b5b8160020160149054906101000a900460ff16600381111561089257610891612605565b5b14155b6108d4576040517f08c379a00000000000000000000000000000000000000000000000000000000081526004016108cb90612904565b60405180910390fd5b5f60038111156108e7576108e6612605565b5b8160020160149054906101000a900460ff16600381111561090b5761090a612605565b5b0361093e5760028160020160146101000a81548160ff0219169083600381111561093857610937612605565b5b02179055505b6001600381111561095257610951612605565b5b8160020160149054906101000a900460ff16600381111561097657610975612605565b5b03610a5d5782600260038111156109905761098f612605565b5b7f2d32ded8381560c010722f0fc669abbcb995f8e9bb7ed54365d5d0046936f7a160405160405180910390a360038160020160146101000a81548160ff021916908360038111156109e4576109e3612605565b5b0217905550610a5c816002015f9054906101000a900473ffffffffffffffffffffffffffffffffffffffff16826003015460065f9054906101000a900473ffffffffffffffffffffffffffffffffffffffff1673ffffffffffffffffffffffffffffffffffffffff16611a729092919063ffffffff16565b5b828160020160149054906101000a900460ff166003811115610a8257610a81612605565b5b7f2d32ded8381560c010722f0fc669abbcb995f8e9bb7ed54365d5d0046936f7a160405160405180910390a3505050565b5f801b610abf81611a5e565b610ae97f7fb24e16434340412711790bec5b70aba75544e6dad82e36dafb84a8da78b81d8361126b565b610af1575f80fd5b610b1b7f7fb24e16434340412711790bec5b70aba75544e6dad82e36dafb84a8da78b81d83611af1565b50610b30826001611bda90919063ffffffff16565b505f6001811115610b4457610b43612605565b5b8273ffffffffffffffffffffffffffffffffffffffff163373ffffffffffffffffffffffffffffffffffffffff167fddee724a4d97aa985390f461368ffb80d643d929b22fff5fec040204ff91f60960405160405180910390a45050565b610bab826107c0565b610bb481611a5e565b610bbe8383611c07565b50505050565b610bcc611cf0565b7f7fb24e16434340412711790bec5b70aba75544e6dad82e36dafb84a8da78b81d610bf681611a5e565b835f8111610c39576040517f08c379a0000000000000000000000000000000000000000000000000000000008152600401610c309061296c565b60405180910390fd5b5f73ffffffffffffffffffffffffffffffffffffffff16600c6001015f9054906101000a900473ffffffffffffffffffffffffffffffffffffffff1673ffffffffffffffffffffffffffffffffffffffff1603610ccb576040517f08c379a0000000000000000000000000000000000000000000000000000000008152600401610cc2906129d4565b60405180910390fd5b5f610cd46112fe565b905085811015610d19576040517f08c379a0000000000000000000000000000000000000000000000000000000008152600401610d1090612a3c565b60405180910390fd5b8560076004015f828254610d2d9190612a87565b92505081905550610da4600c6001015f9054906101000a900473ffffffffffffffffffffffffffffffffffffffff168760065f9054906101000a900473ffffffffffffffffffffffffffffffffffffffff1673ffffffffffffffffffffffffffffffffffffffff16611a729092919063ffffffff16565b600280811115610db757610db6612605565b5b3373ffffffffffffffffffffffffffffffffffffffff16857f86a6fe8c6814507d07d490c525b0712fd0d1ddf1226627b06eae79e59138cb3d8989604051610e00929190612b24565b60405180910390a4505050610e13611d36565b505050565b610e20611d40565b73ffffffffffffffffffffffffffffffffffffffff168173ffffffffffffffffffffffffffffffffffffffff1614610e84576040517f6697b23200000000000000000000000000000000000000000000000000000000815260040160405180910390fd5b610e8e8282611af1565b505050565b60065f9054906101000a900473ffffffffffffffffffffffffffffffffffffffff1681565b5f801b610ec481611a5e565b610eee7f4c9be3f07a6d4b8d9a30ee174f3013f5828af8f3e9648a5e6a243775be68c5b78361126b565b15610ef7575f80fd5b610f217f4c9be3f07a6d4b8d9a30ee174f3013f5828af8f3e9648a5e6a243775be68c5b783611c07565b50610f36826003611d4790919063ffffffff16565b50600180811115610f4a57610f49612605565b5b8273ffffffffffffffffffffffffffffffffffffffff163373ffffffffffffffffffffffffffffffffffffffff167ffa2b6604fab9b4b77a2762bb3466182df167672dc2747e0eab4077be17782f2e60405160405180910390a45050565b5f801b610fb481611a5e565b610fbc6112fe565b60076003018190555050565b7f7fb24e16434340412711790bec5b70aba75544e6dad82e36dafb84a8da78b81d81565b5f801b610ff881611a5e565b6110227f7fb24e16434340412711790bec5b70aba75544e6dad82e36dafb84a8da78b81d8361126b565b1561102b575f80fd5b6110557f7fb24e16434340412711790bec5b70aba75544e6dad82e36dafb84a8da78b81d83611c07565b5061106a826001611d4790919063ffffffff16565b505f600181111561107e5761107d612605565b5b8273ffffffffffffffffffffffffffffffffffffffff163373ffffffffffffffffffffffffffffffffffffffff167ffa2b6604fab9b4b77a2762bb3466182df167672dc2747e0eab4077be17782f2e60405160405180910390a45050565b5f801b6110e881611a5e565b6111127f4c9be3f07a6d4b8d9a30ee174f3013f5828af8f3e9648a5e6a243775be68c5b78361126b565b61111a575f80fd5b6111447f4c9be3f07a6d4b8d9a30ee174f3013f5828af8f3e9648a5e6a243775be68c5b783611af1565b50611159826003611bda90919063ffffffff16565b5060018081111561116d5761116c612605565b5b8273ffffffffffffffffffffffffffffffffffffffff163373ffffffffffffffffffffffffffffffffffffffff167fddee724a4d97aa985390f461368ffb80d643d929b22fff5fec040204ff91f60960405160405180910390a45050565b600e602052805f5260405f205f91509050805f015490806001015f9054906101000a900473ffffffffffffffffffffffffffffffffffffffff1690806002015f9054906101000a900473ffffffffffffffffffffffffffffffffffffffff16908060020160149054906101000a900460ff16908060030154905085565b6007805f0154908060010154908060020154908060030154908060040154905085565b5f805f8481526020019081526020015f205f015f8373ffffffffffffffffffffffffffffffffffffffff1673ffffffffffffffffffffffffffffffffffffffff1681526020019081526020015f205f9054906101000a900460ff16905092915050565b5f6112f97f4c9be3f07a6d4b8d9a30ee174f3013f5828af8f3e9648a5e6a243775be68c5b73361126b565b905090565b5f60065f9054906101000a900473ffffffffffffffffffffffffffffffffffffffff1673ffffffffffffffffffffffffffffffffffffffff166370a08231306040518263ffffffff1660e01b81526004016113599190612b52565b602060405180830381865afa158015611374573d5f803e3d5ffd5b505050506040513d601f19601f820116820180604052508101906113989190612b7f565b905090565b5f801b81565b6113ab611cf0565b7f7fb24e16434340412711790bec5b70aba75544e6dad82e36dafb84a8da78b81d6113d581611a5e565b845f8111611418576040517f08c379a000000000000000000000000000000000000000000000000000000000815260040161140f9061296c565b60405180910390fd5b5f6114216112fe565b905086811015611466576040517f08c379a000000000000000000000000000000000000000000000000000000000815260040161145d90612a3c565b60405180910390fd5b5f600f5f81548092919061147990612baa565b9190505590506040518060a001604052808281526020013373ffffffffffffffffffffffffffffffffffffffff1681526020018873ffffffffffffffffffffffffffffffffffffffff1681526020015f60038111156114db576114da612605565b5b815260200189815250600e5f8381526020019081526020015f205f820151815f01556020820151816001015f6101000a81548173ffffffffffffffffffffffffffffffffffffffff021916908373ffffffffffffffffffffffffffffffffffffffff1602179055506040820151816002015f6101000a81548173ffffffffffffffffffffffffffffffffffffffff021916908373ffffffffffffffffffffffffffffffffffffffff16021790555060608201518160020160146101000a81548160ff021916908360038111156115b4576115b3612605565b5b0217905550608082015181600301559050506115cf88611d74565b8673ffffffffffffffffffffffffffffffffffffffff163373ffffffffffffffffffffffffffffffffffffffff16867f3d7459021283319373c0be5fb3d8734deb81aa0223bb9b7afc7d1979437b062e848c5f8c6040516116339493929190612bf1565b60405180910390a450505050611647611d36565b50505050565b60606116596003611a3f565b905090565b611667826107c0565b61167081611a5e565b61167a8383611af1565b50505050565b600c805f015f9054906101000a900473ffffffffffffffffffffffffffffffffffffffff1690806001015f9054906101000a900473ffffffffffffffffffffffffffffffffffffffff16905082565b5f6116fa7f7fb24e16434340412711790bec5b70aba75544e6dad82e36dafb84a8da78b81d3361126b565b905090565b7f4c9be3f07a6d4b8d9a30ee174f3013f5828af8f3e9648a5e6a243775be68c5b761172981611a5e565b5f600e5f8481526020019081526020015f2090506003808111156117505761174f612605565b5b8160020160149054906101000a900460ff16600381111561177457611773612605565b5b141580156117b857506001600381111561179157611790612605565b5b8160020160149054906101000a900460ff1660038111156117b5576117b4612605565b5b14155b6117f7576040517f08c379a00000000000000000000000000000000000000000000000000000000081526004016117ee90612904565b60405180910390fd5b5f600381111561180a57611809612605565b5b8160020160149054906101000a900460ff16600381111561182e5761182d612605565b5b036118615760018160020160146101000a81548160ff0219169083600381111561185b5761185a612605565b5b02179055505b6002600381111561187557611874612605565b5b8160020160149054906101000a900460ff16600381111561189957611898612605565b5b036119805782600160038111156118b3576118b2612605565b5b7f2d32ded8381560c010722f0fc669abbcb995f8e9bb7ed54365d5d0046936f7a160405160405180910390a360038160020160146101000a81548160ff0219169083600381111561190757611906612605565b5b021790555061197f816002015f9054906101000a900473ffffffffffffffffffffffffffffffffffffffff16826003015460065f9054906101000a900473ffffffffffffffffffffffffffffffffffffffff1673ffffffffffffffffffffffffffffffffffffffff16611a729092919063ffffffff16565b5b828160020160149054906101000a900460ff1660038111156119a5576119a4612605565b5b7f2d32ded8381560c010722f0fc669abbcb995f8e9bb7ed54365d5d0046936f7a160405160405180910390a3505050565b5f7f01ffc9a7000000000000000000000000000000000000000000000000000000007bffffffffffffffffffffffffffffffffffffffffffffffffffffffff1916827bffffffffffffffffffffffffffffffffffffffffffffffffffffffff1916149050919050565b60605f611a4d835f01611dc1565b905060608190508092505050919050565b611a6f81611a6a611d40565b611e1a565b50565b611aec838473ffffffffffffffffffffffffffffffffffffffff1663a9059cbb8585604051602401611aa5929190612c3b565b604051602081830303815290604052915060e01b6020820180517bffffffffffffffffffffffffffffffffffffffffffffffffffffffff8381831617835250505050611e6b565b505050565b5f611afc838361126b565b15611bd0575f805f8581526020019081526020015f205f015f8473ffffffffffffffffffffffffffffffffffffffff1673ffffffffffffffffffffffffffffffffffffffff1681526020019081526020015f205f6101000a81548160ff021916908315150217905550611b6d611d40565b73ffffffffffffffffffffffffffffffffffffffff168273ffffffffffffffffffffffffffffffffffffffff16847ff6391f5c32d9c69d2a47ea670b442974b53935d1edc7fd64eb21e047a839171b60405160405180910390a460019050611bd4565b5f90505b92915050565b5f611bff835f018373ffffffffffffffffffffffffffffffffffffffff165f1b611f06565b905092915050565b5f611c12838361126b565b611ce65760015f808581526020019081526020015f205f015f8473ffffffffffffffffffffffffffffffffffffffff1673ffffffffffffffffffffffffffffffffffffffff1681526020019081526020015f205f6101000a81548160ff021916908315150217905550611c83611d40565b73ffffffffffffffffffffffffffffffffffffffff168273ffffffffffffffffffffffffffffffffffffffff16847f2f8788117e7eff1d82e926ec794901d17c78024a50270940304540a733656f0d60405160405180910390a460019050611cea565b5f90505b92915050565b600260055403611d2c576040517f3ee5aeb500000000000000000000000000000000000000000000000000000000815260040160405180910390fd5b6002600581905550565b6001600581905550565b5f33905090565b5f611d6c835f018373ffffffffffffffffffffffffffffffffffffffff165f1b612002565b905092915050565b5f81600760020154611d869190612a87565b90505f600760030154606483611d9c9190612c62565b611da69190612cd0565b90508160076002018190555080600760010181905550505050565b6060815f01805480602002602001604051908101604052809291908181526020018280548015611e0e57602002820191905f5260205f20905b815481526020019060010190808311611dfa575b50505050509050919050565b611e24828261126b565b611e675780826040517fe2517d3f000000000000000000000000000000000000000000000000000000008152600401611e5e929190612d00565b60405180910390fd5b5050565b5f8060205f8451602086015f885af180611e8a576040513d5f823e3d81fd5b3d92505f519150505f8214611ea3576001811415611ebe565b5f8473ffffffffffffffffffffffffffffffffffffffff163b145b15611f0057836040517f5274afe7000000000000000000000000000000000000000000000000000000008152600401611ef79190612b52565b60405180910390fd5b50505050565b5f80836001015f8481526020019081526020015f205490505f8114611ff7575f600182611f339190612d27565b90505f6001865f0180549050611f499190612d27565b9050808214611faf575f865f018281548110611f6857611f67612d5a565b5b905f5260205f200154905080875f018481548110611f8957611f88612d5a565b5b905f5260205f20018190555083876001015f8381526020019081526020015f2081905550505b855f01805480611fc257611fc1612d87565b5b600190038181905f5260205f20015f90559055856001015f8681526020019081526020015f205f905560019350505050611ffc565b5f9150505b92915050565b5f61200d8383612069565b61205f57825f0182908060018154018082558091505060019003905f5260205f20015f9091909190915055825f0180549050836001015f8481526020019081526020015f208190555060019050612063565b5f90505b92915050565b5f80836001015f8481526020019081526020015f20541415905092915050565b5f604051905090565b5f80fd5b5f80fd5b5f7fffffffff0000000000000000000000000000000000000000000000000000000082169050919050565b6120ce8161209a565b81146120d8575f80fd5b50565b5f813590506120e9816120c5565b92915050565b5f6020828403121561210457612103612092565b5b5f612111848285016120db565b91505092915050565b5f8115159050919050565b61212e8161211a565b82525050565b5f6020820190506121475f830184612125565b92915050565b5f81519050919050565b5f82825260208201905092915050565b5f819050602082019050919050565b5f73ffffffffffffffffffffffffffffffffffffffff82169050919050565b5f61219f82612176565b9050919050565b6121af81612195565b82525050565b5f6121c083836121a6565b60208301905092915050565b5f602082019050919050565b5f6121e28261214d565b6121ec8185612157565b93506121f783612167565b805f5b8381101561222757815161220e88826121b5565b9750612219836121cc565b9250506001810190506121fa565b5085935050505092915050565b5f6020820190508181035f83015261224c81846121d8565b905092915050565b61225d81612195565b8114612267575f80fd5b50565b5f8135905061227881612254565b92915050565b5f6020828403121561229357612292612092565b5b5f6122a08482850161226a565b91505092915050565b5f819050919050565b6122bb816122a9565b82525050565b5f6020820190506122d45f8301846122b2565b92915050565b6122e3816122a9565b81146122ed575f80fd5b50565b5f813590506122fe816122da565b92915050565b5f6020828403121561231957612318612092565b5b5f612326848285016122f0565b91505092915050565b5f819050919050565b6123418161232f565b811461234b575f80fd5b50565b5f8135905061235c81612338565b92915050565b5f6020828403121561237757612376612092565b5b5f6123848482850161234e565b91505092915050565b5f80604083850312156123a3576123a2612092565b5b5f6123b0858286016122f0565b92505060206123c18582860161226a565b9150509250929050565b5f80fd5b5f80fd5b5f601f19601f8301169050919050565b7f4e487b71000000000000000000000000000000000000000000000000000000005f52604160045260245ffd5b612419826123d3565b810181811067ffffffffffffffff82111715612438576124376123e3565b5b80604052505050565b5f61244a612089565b90506124568282612410565b919050565b5f67ffffffffffffffff821115612475576124746123e3565b5b61247e826123d3565b9050602081019050919050565b828183375f83830152505050565b5f6124ab6124a68461245b565b612441565b9050828152602081018484840111156124c7576124c66123cf565b5b6124d284828561248b565b509392505050565b5f82601f8301126124ee576124ed6123cb565b5b81356124fe848260208601612499565b91505092915050565b5f805f6060848603121561251e5761251d612092565b5b5f61252b8682870161234e565b935050602084013567ffffffffffffffff81111561254c5761254b612096565b5b612558868287016124da565b9250506040612569868287016122f0565b9150509250925092565b5f819050919050565b5f61259661259161258c84612176565b612573565b612176565b9050919050565b5f6125a78261257c565b9050919050565b5f6125b88261259d565b9050919050565b6125c8816125ae565b82525050565b5f6020820190506125e15f8301846125bf565b92915050565b6125f08161232f565b82525050565b6125ff81612195565b82525050565b7f4e487b71000000000000000000000000000000000000000000000000000000005f52602160045260245ffd5b6004811061264357612642612605565b5b50565b5f81905061265382612632565b919050565b5f61266282612646565b9050919050565b61267281612658565b82525050565b5f60a08201905061268b5f8301886125e7565b61269860208301876125f6565b6126a560408301866125f6565b6126b26060830185612669565b6126bf60808301846125e7565b9695505050505050565b5f60a0820190506126dc5f8301886125e7565b6126e960208301876125e7565b6126f660408301866125e7565b61270360608301856125e7565b61271060808301846125e7565b9695505050505050565b5f60208201905061272d5f8301846125e7565b92915050565b5f805f806080858703121561274b5761274a612092565b5b5f6127588782880161234e565b94505060206127698782880161226a565b935050604085013567ffffffffffffffff81111561278a57612789612096565b5b612796878288016124da565b92505060606127a7878288016122f0565b91505092959194509250565b5f6040820190506127c65f8301856125f6565b6127d360208301846125f6565b9392505050565b5f82825260208201905092915050565b7f456e64657265636f20696e76616c69646f0000000000000000000000000000005f82015250565b5f61281e6011836127da565b9150612829826127ea565b602082019050919050565b5f6020820190508181035f83015261284b81612812565b9050919050565b7f436f6e747261746f20656d2075736f00000000000000000000000000000000005f82015250565b5f612886600f836127da565b915061289182612852565b602082019050919050565b5f6020820190508181035f8301526128b38161287a565b9050919050565b7f4465737065736120696e76616c696461000000000000000000000000000000005f82015250565b5f6128ee6010836127da565b91506128f9826128ba565b602082019050919050565b5f6020820190508181035f83015261291b816128e2565b9050919050565b7f56616c6f72206465766520736572206d61696f722071756520300000000000005f82015250565b5f612956601a836127da565b915061296182612922565b602082019050919050565b5f6020820190508181035f8301526129838161294a565b9050919050565b7f436f6e747261746f2045737461646f20696e76616c69646f00000000000000005f82015250565b5f6129be6018836127da565b91506129c98261298a565b602082019050919050565b5f6020820190508181035f8301526129eb816129b2565b9050919050565b7f53616c646f20696e737566696369656e746500000000000000000000000000005f82015250565b5f612a266012836127da565b9150612a31826129f2565b602082019050919050565b5f6020820190508181035f830152612a5381612a1a565b9050919050565b7f4e487b71000000000000000000000000000000000000000000000000000000005f52601160045260245ffd5b5f612a918261232f565b9150612a9c8361232f565b9250828201905080821115612ab457612ab3612a5a565b5b92915050565b5f81519050919050565b5f5b83811015612ae1578082015181840152602081019050612ac6565b5f8484015250505050565b5f612af682612aba565b612b0081856127da565b9350612b10818560208601612ac4565b612b19816123d3565b840191505092915050565b5f604082019050612b375f8301856125e7565b8181036020830152612b498184612aec565b90509392505050565b5f602082019050612b655f8301846125f6565b92915050565b5f81519050612b7981612338565b92915050565b5f60208284031215612b9457612b93612092565b5b5f612ba184828501612b6b565b91505092915050565b5f612bb48261232f565b91507fffffffffffffffffffffffffffffffffffffffffffffffffffffffffffffffff8203612be657612be5612a5a565b5b600182019050919050565b5f608082019050612c045f8301876125e7565b612c1160208301866125e7565b612c1e6040830185612669565b8181036060830152612c308184612aec565b905095945050505050565b5f604082019050612c4e5f8301856125f6565b612c5b60208301846125e7565b9392505050565b5f612c6c8261232f565b9150612c778361232f565b9250828202612c858161232f565b91508282048414831517612c9c57612c9b612a5a565b5b5092915050565b7f4e487b71000000000000000000000000000000000000000000000000000000005f52601260045260245ffd5b5f612cda8261232f565b9150612ce58361232f565b925082612cf557612cf4612ca3565b5b828204905092915050565b5f604082019050612d135f8301856125f6565b612d2060208301846122b2565b9392505050565b5f612d318261232f565b9150612d3c8361232f565b9250828203905081811115612d5457612d53612a5a565b5b92915050565b7f4e487b71000000000000000000000000000000000000000000000000000000005f52603260045260245ffd5b7f4e487b71000000000000000000000000000000000000000000000000000000005f52603160045260245ffdfea26469706673582212201f792b9c3dbcebd52d0afdc95e6cb7f570de13fd8d32c0e3aae1251fd05ecb9b64736f6c63430008150033",
  "immutableReferences": {},
  "source": "// SPDX-License-Identifier: MIT\npragma solidity >=0.8.2 <0.9.0;\n\nimport {Permissao} from \"./utils/Permissao.sol\";\nimport {Estruturas} from \"./utils/Estruturas.sol\";\nimport {Modificadores} from \"./utils/Modificadores.sol\";\n\nimport {IERC20} from \"@openzeppelin/contracts/token/ERC20/IERC20.sol\";\nimport {SafeERC20} from \"@openzeppelin/contracts/token/ERC20/utils/SafeERC20.sol\";\nimport {ReentrancyGuard} from \"@openzeppelin/contracts/utils/ReentrancyGuard.sol\";\n\ncontract Estadual is Permissao, Estruturas, Modificadores, ReentrancyGuard {\n    using SafeERC20 for IERC20;\n    IERC20 public moeda;\n\n    Aplicacao public aplicacao =\n        Aplicacao({\n            percentualMinimo: 12,\n            percentualAplicado: 0,\n            valorAplicado: 0,\n            valorArrecadado: 0,\n            valorDistribuido: 0\n        });\n\n    Contrato public contrato;\n\n    mapping(uint256 => Despesa) public despesas;\n    uint256 private proximaDespesaId = 1;\n\n    constructor(address _moeda) {\n        require(_moeda != address(0), \"Moeda invalida\");\n        moeda = IERC20(_moeda);\n    }\n\n    event EventoContrato(\n        address indexed admin,\n        TipoOrgao indexed tipoContrato,\n        address contratoAntigo,\n        address contratoNovo\n    );\n\n    event EventoDistribuicao(\n        bytes32 indexed txAnterior,\n        address indexed orgao,\n        TipoOrgao indexed destino,\n        uint valor,\n        string justificativa\n    );\n\n    event EventoDespesa(\n        bytes32 indexed txAnterior,\n        address indexed orgao,\n        address indexed fornecedor,\n        uint256 despesaId,\n        uint256 valor,\n        Situacao situacao,\n        string justificativa\n    );\n\n    event EventoSituacaoDespesa(\n        Situacao indexed situacao,\n        uint256 indexed despesaId\n    );\n\n    function setValorArrecadado() public onlyRole(DEFAULT_ADMIN_ROLE) {\n        aplicacao.valorArrecadado = buscarSaldo();\n    }\n\n    function setContrato(\n        address _novoContrato\n    ) public onlyRole(DEFAULT_ADMIN_ROLE) {\n        require(_novoContrato != address(0), \"Endereco invalido\");\n        require(contrato.municipal != _novoContrato, \"Contrato em uso\");\n\n        address contratoAntigo = contrato.municipal;\n        contrato.municipal = _novoContrato;\n\n        emit EventoContrato(\n            msg.sender,\n            TipoOrgao.MUNICIPAL,\n            contratoAntigo,\n            _novoContrato\n        );\n    }\n\n    function buscarSaldo() public view returns (uint) {\n        return moeda.balanceOf(address(this));\n    }\n\n    function distribuir(\n        uint _valor,\n        string memory _justificativa,\n        bytes32 _txAnterior\n    ) public nonReentrant onlyRole(ORGAO_ROLE) onlyValorPositivo(_valor) {\n        require(contrato.municipal != address(0), \"Contrato Estado invalido\");\n\n        uint256 saldo = buscarSaldo();\n        require(saldo >= _valor, \"Saldo insuficiente\");\n\n        aplicacao.valorDistribuido += _valor;\n        moeda.safeTransfer(contrato.municipal, _valor);\n        emit EventoDistribuicao(\n            _txAnterior,\n            msg.sender,\n            TipoOrgao.MUNICIPAL,\n            _valor,\n            _justificativa\n        );\n    }\n\n    function registrar(\n        uint256 _valor,\n        address _fornecedor,\n        string memory _justificativa,\n        bytes32 _txAnterior\n    ) public nonReentrant onlyRole(ORGAO_ROLE) onlyValorPositivo(_valor) {\n        uint256 saldo = buscarSaldo();\n        require(saldo >= _valor, \"Saldo insuficiente\");\n        uint256 id = proximaDespesaId++;\n\n        despesas[id] = Despesa({\n            id: id,\n            emitente: msg.sender,\n            fornecedor: _fornecedor,\n            situacao: Situacao.PENDENTE,\n            valor: _valor\n        });\n\n        calcularAplicacao(_valor);\n        emit EventoDespesa(\n            _txAnterior,\n            msg.sender,\n            _fornecedor,\n            id,\n            _valor,\n            Situacao.PENDENTE,\n            _justificativa\n        );\n    }\n\n    function calcularAplicacao(uint256 _valor) private {\n        uint256 valorTotalAplicado = aplicacao.valorAplicado + _valor;\n        uint256 percentualAplicado = (valorTotalAplicado * 100) /\n            aplicacao.valorArrecadado;\n\n        aplicacao.valorAplicado = valorTotalAplicado;\n        aplicacao.percentualAplicado = percentualAplicado;\n    }\n\n    function confirmarEntrega(uint256 _id) public onlyRole(FORNECEDOR_ROLE) {\n        Despesa storage despesa = despesas[_id];\n\n        require(\n            despesa.situacao != Situacao.FINALIZADO &&\n                despesa.situacao != Situacao.ENTREGUE,\n            \"Despesa invalida\"\n        );\n\n        if (despesa.situacao == Situacao.PENDENTE)\n            despesa.situacao = Situacao.ENTREGUE;\n\n        if (despesa.situacao == Situacao.RECEBIDO) {\n            emit EventoSituacaoDespesa(Situacao.ENTREGUE, _id);\n            despesa.situacao = Situacao.FINALIZADO;\n            moeda.safeTransfer(despesa.fornecedor, despesa.valor);\n        }\n\n        emit EventoSituacaoDespesa(despesa.situacao, _id);\n    }\n\n    function confirmarRecebimento(uint256 _id) public onlyRole(ORGAO_ROLE) {\n        Despesa storage despesa = despesas[_id];\n\n        require(\n            despesa.situacao != Situacao.FINALIZADO &&\n                despesa.situacao != Situacao.RECEBIDO,\n            \"Despesa invalida\"\n        );\n\n        if (despesa.situacao == Situacao.PENDENTE)\n            despesa.situacao = Situacao.RECEBIDO;\n\n        if (despesa.situacao == Situacao.ENTREGUE) {\n            emit EventoSituacaoDespesa(Situacao.RECEBIDO, _id);\n            despesa.situacao = Situacao.FINALIZADO;\n            moeda.safeTransfer(despesa.fornecedor, despesa.valor);\n        }\n\n        emit EventoSituacaoDespesa(despesa.situacao, _id);\n    }\n}\n",
  "sourcePath": "/home/willian_samsung/Documentos/TCC-2025/prototipo/contrato-inteligente/contracts/2_Estadual.sol",
  "compiler": {
    "name": "solc",
    "version": "0.8.21+commit.d9974bed.Emscripten.clang"
  },
  "schemaVersion": "3.4.16",
  "updatedAt": "2025-10-12T19:42:30.697Z",
  "networkType": "ethereum",
  "devdoc": {
    "errors": {
      "AccessControlBadConfirmation()": [
        {
          "details": "The caller of a function is not the expected one. NOTE: Don't confuse with {AccessControlUnauthorizedAccount}."
        }
      ],
      "AccessControlUnauthorizedAccount(address,bytes32)": [
        {
          "details": "The `account` is missing a role."
        }
      ],
      "ReentrancyGuardReentrantCall()": [
        {
          "details": "Unauthorized reentrant call."
        }
      ],
      "SafeERC20FailedOperation(address)": [
        {
          "details": "An operation with an ERC-20 token failed."
        }
      ]
    },
    "events": {
      "RoleAdminChanged(bytes32,bytes32,bytes32)": {
        "details": "Emitted when `newAdminRole` is set as ``role``'s admin role, replacing `previousAdminRole` `DEFAULT_ADMIN_ROLE` is the starting admin for all roles, despite {RoleAdminChanged} not being emitted to signal this."
      },
      "RoleGranted(bytes32,address,address)": {
        "details": "Emitted when `account` is granted `role`. `sender` is the account that originated the contract call. This account bears the admin role (for the granted role). Expected in cases where the role was granted using the internal {AccessControl-_grantRole}."
      },
      "RoleRevoked(bytes32,address,address)": {
        "details": "Emitted when `account` is revoked `role`. `sender` is the account that originated the contract call:   - if using `revokeRole`, it is the admin role bearer   - if using `renounceRole`, it is the role bearer (i.e. `account`)"
      }
    },
    "kind": "dev",
    "methods": {
      "getRoleAdmin(bytes32)": {
        "details": "Returns the admin role that controls `role`. See {grantRole} and {revokeRole}. To change a role's admin, use {_setRoleAdmin}."
      },
      "grantRole(bytes32,address)": {
        "details": "Grants `role` to `account`. If `account` had not been already granted `role`, emits a {RoleGranted} event. Requirements: - the caller must have ``role``'s admin role. May emit a {RoleGranted} event."
      },
      "hasRole(bytes32,address)": {
        "details": "Returns `true` if `account` has been granted `role`."
      },
      "renounceRole(bytes32,address)": {
        "details": "Revokes `role` from the calling account. Roles are often managed via {grantRole} and {revokeRole}: this function's purpose is to provide a mechanism for accounts to lose their privileges if they are compromised (such as when a trusted device is misplaced). If the calling account had been revoked `role`, emits a {RoleRevoked} event. Requirements: - the caller must be `callerConfirmation`. May emit a {RoleRevoked} event."
      },
      "revokeRole(bytes32,address)": {
        "details": "Revokes `role` from `account`. If `account` had been granted `role`, emits a {RoleRevoked} event. Requirements: - the caller must have ``role``'s admin role. May emit a {RoleRevoked} event."
      },
      "supportsInterface(bytes4)": {
        "details": "Returns true if this contract implements the interface defined by `interfaceId`. See the corresponding https://eips.ethereum.org/EIPS/eip-165#how-interfaces-are-identified[ERC section] to learn more about how these ids are created. This function call must use less than 30 000 gas."
      }
    },
    "version": 1
  },
  "userdoc": {
    "kind": "user",
    "methods": {},
    "version": 1
  }
}