{
  "contractName": "Estadual",
  "abi": [
    {
      "inputs": [
        {
          "internalType": "address",
          "name": "_moeda",
          "type": "address"
        }
      ],
      "stateMutability": "nonpayable",
      "type": "constructor"
    },
    {
      "inputs": [],
      "name": "AccessControlBadConfirmation",
      "type": "error"
    },
    {
      "inputs": [
        {
          "internalType": "address",
          "name": "account",
          "type": "address"
        },
        {
          "internalType": "bytes32",
          "name": "neededRole",
          "type": "bytes32"
        }
      ],
      "name": "AccessControlUnauthorizedAccount",
      "type": "error"
    },
    {
      "inputs": [],
      "name": "ReentrancyGuardReentrantCall",
      "type": "error"
    },
    {
      "inputs": [
        {
          "internalType": "address",
          "name": "token",
          "type": "address"
        }
      ],
      "name": "SafeERC20FailedOperation",
      "type": "error"
    },
    {
      "anonymous": false,
      "inputs": [
        {
          "indexed": true,
          "internalType": "address",
          "name": "admin",
          "type": "address"
        },
        {
          "indexed": true,
          "internalType": "enum Enumeradores.TipoOrgao",
          "name": "tipoContrato",
          "type": "uint8"
        },
        {
          "indexed": false,
          "internalType": "address",
          "name": "contratoAntigo",
          "type": "address"
        },
        {
          "indexed": false,
          "internalType": "address",
          "name": "contratoNovo",
          "type": "address"
        }
      ],
      "name": "EventoContrato",
      "type": "event"
    },
    {
      "anonymous": false,
      "inputs": [
        {
          "indexed": true,
          "internalType": "bytes32",
          "name": "txAnterior",
          "type": "bytes32"
        },
        {
          "indexed": true,
          "internalType": "address",
          "name": "orgao",
          "type": "address"
        },
        {
          "indexed": true,
          "internalType": "address",
          "name": "fornecedor",
          "type": "address"
        },
        {
          "indexed": false,
          "internalType": "uint256",
          "name": "despesaId",
          "type": "uint256"
        },
        {
          "indexed": false,
          "internalType": "uint256",
          "name": "valor",
          "type": "uint256"
        },
        {
          "indexed": false,
          "internalType": "enum Enumeradores.Situacao",
          "name": "situacao",
          "type": "uint8"
        },
        {
          "indexed": false,
          "internalType": "string",
          "name": "justificativa",
          "type": "string"
        }
      ],
      "name": "EventoDespesa",
      "type": "event"
    },
    {
      "anonymous": false,
      "inputs": [
        {
          "indexed": true,
          "internalType": "bytes32",
          "name": "txAnterior",
          "type": "bytes32"
        },
        {
          "indexed": true,
          "internalType": "address",
          "name": "orgao",
          "type": "address"
        },
        {
          "indexed": true,
          "internalType": "enum Enumeradores.TipoOrgao",
          "name": "destino",
          "type": "uint8"
        },
        {
          "indexed": false,
          "internalType": "uint256",
          "name": "valor",
          "type": "uint256"
        },
        {
          "indexed": false,
          "internalType": "string",
          "name": "justificativa",
          "type": "string"
        }
      ],
      "name": "EventoDistribuicao",
      "type": "event"
    },
    {
      "anonymous": false,
      "inputs": [
        {
          "indexed": true,
          "internalType": "enum Enumeradores.Situacao",
          "name": "situacao",
          "type": "uint8"
        },
        {
          "indexed": false,
          "internalType": "uint256",
          "name": "despesaId",
          "type": "uint256"
        }
      ],
      "name": "EventoSituacaoDespesa",
      "type": "event"
    },
    {
      "anonymous": false,
      "inputs": [
        {
          "indexed": true,
          "internalType": "address",
          "name": "admin",
          "type": "address"
        },
        {
          "indexed": true,
          "internalType": "address",
          "name": "endereco",
          "type": "address"
        },
        {
          "indexed": true,
          "internalType": "enum Enumeradores.TipoPermissao",
          "name": "tipoPermissao",
          "type": "uint8"
        }
      ],
      "name": "PermissaoAdicionada",
      "type": "event"
    },
    {
      "anonymous": false,
      "inputs": [
        {
          "indexed": true,
          "internalType": "address",
          "name": "admin",
          "type": "address"
        },
        {
          "indexed": true,
          "internalType": "address",
          "name": "endereco",
          "type": "address"
        },
        {
          "indexed": true,
          "internalType": "enum Enumeradores.TipoPermissao",
          "name": "tipoPermissao",
          "type": "uint8"
        }
      ],
      "name": "PermissaoRemovida",
      "type": "event"
    },
    {
      "anonymous": false,
      "inputs": [
        {
          "indexed": true,
          "internalType": "bytes32",
          "name": "role",
          "type": "bytes32"
        },
        {
          "indexed": true,
          "internalType": "bytes32",
          "name": "previousAdminRole",
          "type": "bytes32"
        },
        {
          "indexed": true,
          "internalType": "bytes32",
          "name": "newAdminRole",
          "type": "bytes32"
        }
      ],
      "name": "RoleAdminChanged",
      "type": "event"
    },
    {
      "anonymous": false,
      "inputs": [
        {
          "indexed": true,
          "internalType": "bytes32",
          "name": "role",
          "type": "bytes32"
        },
        {
          "indexed": true,
          "internalType": "address",
          "name": "account",
          "type": "address"
        },
        {
          "indexed": true,
          "internalType": "address",
          "name": "sender",
          "type": "address"
        }
      ],
      "name": "RoleGranted",
      "type": "event"
    },
    {
      "anonymous": false,
      "inputs": [
        {
          "indexed": true,
          "internalType": "bytes32",
          "name": "role",
          "type": "bytes32"
        },
        {
          "indexed": true,
          "internalType": "address",
          "name": "account",
          "type": "address"
        },
        {
          "indexed": true,
          "internalType": "address",
          "name": "sender",
          "type": "address"
        }
      ],
      "name": "RoleRevoked",
      "type": "event"
    },
    {
      "inputs": [],
      "name": "DEFAULT_ADMIN_ROLE",
      "outputs": [
        {
          "internalType": "bytes32",
          "name": "",
          "type": "bytes32"
        }
      ],
      "stateMutability": "view",
      "type": "function",
      "constant": true
    },
    {
      "inputs": [],
      "name": "FORNECEDOR_ROLE",
      "outputs": [
        {
          "internalType": "bytes32",
          "name": "",
          "type": "bytes32"
        }
      ],
      "stateMutability": "view",
      "type": "function",
      "constant": true
    },
    {
      "inputs": [],
      "name": "ORGAO_ROLE",
      "outputs": [
        {
          "internalType": "bytes32",
          "name": "",
          "type": "bytes32"
        }
      ],
      "stateMutability": "view",
      "type": "function",
      "constant": true
    },
    {
      "inputs": [
        {
          "internalType": "address",
          "name": "_endereco",
          "type": "address"
        }
      ],
      "name": "adicionarPermissaoFornecedor",
      "outputs": [],
      "stateMutability": "nonpayable",
      "type": "function"
    },
    {
      "inputs": [
        {
          "internalType": "address",
          "name": "_endereco",
          "type": "address"
        }
      ],
      "name": "adicionarPermissaoOrgao",
      "outputs": [],
      "stateMutability": "nonpayable",
      "type": "function"
    },
    {
      "inputs": [],
      "name": "aplicacao",
      "outputs": [
        {
          "internalType": "uint256",
          "name": "percentualMinimo",
          "type": "uint256"
        },
        {
          "internalType": "uint256",
          "name": "percentualAplicado",
          "type": "uint256"
        },
        {
          "internalType": "uint256",
          "name": "valorAplicado",
          "type": "uint256"
        },
        {
          "internalType": "uint256",
          "name": "valorArrecadado",
          "type": "uint256"
        },
        {
          "internalType": "uint256",
          "name": "valorDistribuido",
          "type": "uint256"
        }
      ],
      "stateMutability": "view",
      "type": "function",
      "constant": true
    },
    {
      "inputs": [],
      "name": "buscarFornecedoresAtivos",
      "outputs": [
        {
          "internalType": "address[]",
          "name": "",
          "type": "address[]"
        }
      ],
      "stateMutability": "view",
      "type": "function",
      "constant": true
    },
    {
      "inputs": [],
      "name": "buscarOrgaosAtivos",
      "outputs": [
        {
          "internalType": "address[]",
          "name": "",
          "type": "address[]"
        }
      ],
      "stateMutability": "view",
      "type": "function",
      "constant": true
    },
    {
      "inputs": [],
      "name": "contrato",
      "outputs": [
        {
          "internalType": "address",
          "name": "estadual",
          "type": "address"
        },
        {
          "internalType": "address",
          "name": "municipal",
          "type": "address"
        }
      ],
      "stateMutability": "view",
      "type": "function",
      "constant": true
    },
    {
      "inputs": [
        {
          "internalType": "uint256",
          "name": "",
          "type": "uint256"
        }
      ],
      "name": "despesas",
      "outputs": [
        {
          "internalType": "uint256",
          "name": "id",
          "type": "uint256"
        },
        {
          "internalType": "address",
          "name": "emitente",
          "type": "address"
        },
        {
          "internalType": "address",
          "name": "fornecedor",
          "type": "address"
        },
        {
          "internalType": "enum Enumeradores.Situacao",
          "name": "situacao",
          "type": "uint8"
        },
        {
          "internalType": "uint256",
          "name": "valor",
          "type": "uint256"
        }
      ],
      "stateMutability": "view",
      "type": "function",
      "constant": true
    },
    {
      "inputs": [
        {
          "internalType": "bytes32",
          "name": "role",
          "type": "bytes32"
        }
      ],
      "name": "getRoleAdmin",
      "outputs": [
        {
          "internalType": "bytes32",
          "name": "",
          "type": "bytes32"
        }
      ],
      "stateMutability": "view",
      "type": "function",
      "constant": true
    },
    {
      "inputs": [
        {
          "internalType": "bytes32",
          "name": "role",
          "type": "bytes32"
        },
        {
          "internalType": "address",
          "name": "account",
          "type": "address"
        }
      ],
      "name": "grantRole",
      "outputs": [],
      "stateMutability": "nonpayable",
      "type": "function"
    },
    {
      "inputs": [
        {
          "internalType": "bytes32",
          "name": "role",
          "type": "bytes32"
        },
        {
          "internalType": "address",
          "name": "account",
          "type": "address"
        }
      ],
      "name": "hasRole",
      "outputs": [
        {
          "internalType": "bool",
          "name": "",
          "type": "bool"
        }
      ],
      "stateMutability": "view",
      "type": "function",
      "constant": true
    },
    {
      "inputs": [],
      "name": "moeda",
      "outputs": [
        {
          "internalType": "contract IERC20",
          "name": "",
          "type": "address"
        }
      ],
      "stateMutability": "view",
      "type": "function",
      "constant": true
    },
    {
      "inputs": [
        {
          "internalType": "address",
          "name": "_endereco",
          "type": "address"
        }
      ],
      "name": "removerPermissaoFornecedor",
      "outputs": [],
      "stateMutability": "nonpayable",
      "type": "function"
    },
    {
      "inputs": [
        {
          "internalType": "address",
          "name": "_endereco",
          "type": "address"
        }
      ],
      "name": "removerPermissaoOrgao",
      "outputs": [],
      "stateMutability": "nonpayable",
      "type": "function"
    },
    {
      "inputs": [
        {
          "internalType": "bytes32",
          "name": "role",
          "type": "bytes32"
        },
        {
          "internalType": "address",
          "name": "callerConfirmation",
          "type": "address"
        }
      ],
      "name": "renounceRole",
      "outputs": [],
      "stateMutability": "nonpayable",
      "type": "function"
    },
    {
      "inputs": [
        {
          "internalType": "bytes32",
          "name": "role",
          "type": "bytes32"
        },
        {
          "internalType": "address",
          "name": "account",
          "type": "address"
        }
      ],
      "name": "revokeRole",
      "outputs": [],
      "stateMutability": "nonpayable",
      "type": "function"
    },
    {
      "inputs": [
        {
          "internalType": "bytes4",
          "name": "interfaceId",
          "type": "bytes4"
        }
      ],
      "name": "supportsInterface",
      "outputs": [
        {
          "internalType": "bool",
          "name": "",
          "type": "bool"
        }
      ],
      "stateMutability": "view",
      "type": "function",
      "constant": true
    },
    {
      "inputs": [],
      "name": "temPermissaoFornecedor",
      "outputs": [
        {
          "internalType": "bool",
          "name": "",
          "type": "bool"
        }
      ],
      "stateMutability": "view",
      "type": "function",
      "constant": true
    },
    {
      "inputs": [],
      "name": "temPermissaoOrgao",
      "outputs": [
        {
          "internalType": "bool",
          "name": "",
          "type": "bool"
        }
      ],
      "stateMutability": "view",
      "type": "function",
      "constant": true
    },
    {
      "inputs": [],
      "name": "setValorArrecadado",
      "outputs": [],
      "stateMutability": "nonpayable",
      "type": "function"
    },
    {
      "inputs": [
        {
          "internalType": "address",
          "name": "_novoContrato",
          "type": "address"
        }
      ],
      "name": "setContrato",
      "outputs": [],
      "stateMutability": "nonpayable",
      "type": "function"
    },
    {
      "inputs": [],
      "name": "buscarSaldo",
      "outputs": [
        {
          "internalType": "uint256",
          "name": "",
          "type": "uint256"
        }
      ],
      "stateMutability": "view",
      "type": "function",
      "constant": true
    },
    {
      "inputs": [
        {
          "internalType": "uint256",
          "name": "_valor",
          "type": "uint256"
        },
        {
          "internalType": "string",
          "name": "_justificativa",
          "type": "string"
        },
        {
          "internalType": "bytes32",
          "name": "_txAnterior",
          "type": "bytes32"
        }
      ],
      "name": "distribuir",
      "outputs": [],
      "stateMutability": "nonpayable",
      "type": "function"
    },
    {
      "inputs": [
        {
          "internalType": "uint256",
          "name": "_valor",
          "type": "uint256"
        },
        {
          "internalType": "address",
          "name": "_fornecedor",
          "type": "address"
        },
        {
          "internalType": "string",
          "name": "_justificativa",
          "type": "string"
        },
        {
          "internalType": "bytes32",
          "name": "_txAnterior",
          "type": "bytes32"
        }
      ],
      "name": "registrar",
      "outputs": [],
      "stateMutability": "nonpayable",
      "type": "function"
    },
    {
      "inputs": [
        {
          "internalType": "uint256",
          "name": "_id",
          "type": "uint256"
        }
      ],
      "name": "confirmarEntrega",
      "outputs": [],
      "stateMutability": "nonpayable",
      "type": "function"
    },
    {
      "inputs": [
        {
          "internalType": "uint256",
          "name": "_id",
          "type": "uint256"
        }
      ],
      "name": "confirmarRecebimento",
      "outputs": [],
      "stateMutability": "nonpayable",
      "type": "function"
    }
  ],
  "bytecode": "0x60806040526040518060a00160405280600c81526020015f81526020015f81526020015f81526020015f81525060075f820151815f01556020820151816001015560408201518160020155606082015181600301556080820151816004015550506001600f5534801562000071575f80fd5b506040516200320438038062003204833981810160405281019062000097919062000336565b620000ab5f801b336200016c60201b60201c565b5060016005819055505f73ffffffffffffffffffffffffffffffffffffffff168173ffffffffffffffffffffffffffffffffffffffff160362000125576040517f08c379a00000000000000000000000000000000000000000000000000000000081526004016200011c90620003c4565b60405180910390fd5b8060065f6101000a81548173ffffffffffffffffffffffffffffffffffffffff021916908373ffffffffffffffffffffffffffffffffffffffff16021790555050620003e4565b5f6200017f83836200026760201b60201c565b6200025d5760015f808581526020019081526020015f205f015f8473ffffffffffffffffffffffffffffffffffffffff1673ffffffffffffffffffffffffffffffffffffffff1681526020019081526020015f205f6101000a81548160ff021916908315150217905550620001f9620002ca60201b60201c565b73ffffffffffffffffffffffffffffffffffffffff168273ffffffffffffffffffffffffffffffffffffffff16847f2f8788117e7eff1d82e926ec794901d17c78024a50270940304540a733656f0d60405160405180910390a46001905062000261565b5f90505b92915050565b5f805f8481526020019081526020015f205f015f8373ffffffffffffffffffffffffffffffffffffffff1673ffffffffffffffffffffffffffffffffffffffff1681526020019081526020015f205f9054906101000a900460ff16905092915050565b5f33905090565b5f80fd5b5f73ffffffffffffffffffffffffffffffffffffffff82169050919050565b5f6200030082620002d5565b9050919050565b6200031281620002f4565b81146200031d575f80fd5b50565b5f81519050620003308162000307565b92915050565b5f602082840312156200034e576200034d620002d1565b5b5f6200035d8482850162000320565b91505092915050565b5f82825260208201905092915050565b7f4d6f65646120696e76616c6964610000000000000000000000000000000000005f82015250565b5f620003ac600e8362000366565b9150620003b98262000376565b602082019050919050565b5f6020820190508181035f830152620003dd816200039e565b9050919050565b612e1280620003f25f395ff3fe608060405234801561000f575f80fd5b50600436106101c2575f3560e01c80636d8696d7116100f7578063a217fddf11610095578063d547741f1161006f578063d547741f146104be578063e1a01e67146104da578063eea4be16146104f9578063eea7f82414610517576101c2565b8063a217fddf14610466578063be8f566c14610484578063c66b20ca146104a0576101c2565b80638bc4d831116100d15780638bc4d831146103d857806391d14854146103fa5780639f2dafc21461042a578063a0960d9614610448576101c2565b80636d8696d71461036c57806380151dd314610388578063812af9b7146103a4576101c2565b80632f2ff15d116101645780634b156e921161013e5780634b156e921461030a5780635db8607d14610328578063640e0f6a1461034457806365b174f51461034e576101c2565b80632f2ff15d146102b657806332056db8146102d257806336568abe146102ee576101c2565b80630d046a15116101a05780630d046a1514610230578063248a9ca31461024e5780632553ac251461027e5780632e5a29e91461029a576101c2565b806301ffc9a7146101c65780630687bdf8146101f65780630729f5a014610214575b5f80fd5b6101e060048036038101906101db9190612117565b610533565b6040516101ed919061215c565b60405180910390f35b6101fe6105ac565b60405161020b919061225c565b60405180910390f35b61022e600480360381019061022991906122a6565b6105bd565b005b61023861079c565b60405161024591906122e9565b60405180910390f35b6102686004803603810190610263919061232c565b6107c0565b60405161027591906122e9565b60405180910390f35b6102986004803603810190610293919061238a565b6107dc565b005b6102b460048036038101906102af91906122a6565b610ac7565b005b6102d060048036038101906102cb91906123b5565b610bb6565b005b6102ec60048036038101906102e7919061252f565b610bd8565b005b610308600480360381019061030391906123b5565b610e2c565b005b610312610ea7565b60405161031f91906125f6565b60405180910390f35b610342600480360381019061033d91906122a6565b610ecc565b005b61034c610fbc565b005b610356610fdc565b60405161036391906122e9565b60405180910390f35b610386600480360381019061038191906122a6565b611000565b005b6103a2600480360381019061039d91906122a6565b6110f0565b005b6103be60048036038101906103b9919061238a565b6111df565b6040516103cf9594939291906126a0565b60405180910390f35b6103e061125c565b6040516103f19594939291906126f1565b60405180910390f35b610414600480360381019061040f91906123b5565b61127f565b604051610421919061215c565b60405180910390f35b6104326112e2565b60405161043f919061215c565b60405180910390f35b610450611312565b60405161045d9190612742565b60405180910390f35b61046e6113b1565b60405161047b91906122e9565b60405180910390f35b61049e6004803603810190610499919061275b565b6113b7565b005b6104a8611661565b6040516104b5919061225c565b60405180910390f35b6104d860048036038101906104d391906123b5565b611672565b005b6104e2611694565b6040516104f09291906127db565b60405180910390f35b6105016116e3565b60405161050e919061215c565b60405180910390f35b610531600480360381019061052c919061238a565b611713565b005b5f7f7965db0b000000000000000000000000000000000000000000000000000000007bffffffffffffffffffffffffffffffffffffffffffffffffffffffff1916827bffffffffffffffffffffffffffffffffffffffffffffffffffffffff191614806105a557506105a4826119fe565b5b9050919050565b60606105b86001611a67565b905090565b5f801b6105c981611a86565b5f73ffffffffffffffffffffffffffffffffffffffff168273ffffffffffffffffffffffffffffffffffffffff1603610637576040517f08c379a000000000000000000000000000000000000000000000000000000000815260040161062e9061285c565b60405180910390fd5b8173ffffffffffffffffffffffffffffffffffffffff16600c6001015f9054906101000a900473ffffffffffffffffffffffffffffffffffffffff1673ffffffffffffffffffffffffffffffffffffffff16036106c9576040517f08c379a00000000000000000000000000000000000000000000000000000000081526004016106c0906128c4565b60405180910390fd5b5f600c6001015f9054906101000a900473ffffffffffffffffffffffffffffffffffffffff16905082600c6001015f6101000a81548173ffffffffffffffffffffffffffffffffffffffff021916908373ffffffffffffffffffffffffffffffffffffffff1602179055506002808111156107475761074661262d565b5b3373ffffffffffffffffffffffffffffffffffffffff167f51f55bb8c7e9a53719b1a22e21ccc9192133fcab62f2c42a9114b82bf6ac25ad838660405161078f9291906127db565b60405180910390a3505050565b7f4c9be3f07a6d4b8d9a30ee174f3013f5828af8f3e9648a5e6a243775be68c5b781565b5f805f8381526020019081526020015f20600101549050919050565b7f7fb24e16434340412711790bec5b70aba75544e6dad82e36dafb84a8da78b81d61080681611a86565b5f600e5f8481526020019081526020015f20905060038081111561082d5761082c61262d565b5b8160020160149054906101000a900460ff1660038111156108515761085061262d565b5b1415801561089557506002600381111561086e5761086d61262d565b5b8160020160149054906101000a900460ff1660038111156108925761089161262d565b5b14155b6108d4576040517f08c379a00000000000000000000000000000000000000000000000000000000081526004016108cb9061292c565b60405180910390fd5b5f60038111156108e7576108e661262d565b5b8160020160149054906101000a900460ff16600381111561090b5761090a61262d565b5b0361093e5760028160020160146101000a81548160ff021916908360038111156109385761093761262d565b5b02179055505b600160038111156109525761095161262d565b5b8160020160149054906101000a900460ff1660038111156109765761097561262d565b5b03610a67576002600381111561098f5761098e61262d565b5b7f2d32ded8381560c010722f0fc669abbcb995f8e9bb7ed54365d5d0046936f7a1846040516109be9190612742565b60405180910390a260038160020160146101000a81548160ff021916908360038111156109ee576109ed61262d565b5b0217905550610a66816002015f9054906101000a900473ffffffffffffffffffffffffffffffffffffffff16826003015460065f9054906101000a900473ffffffffffffffffffffffffffffffffffffffff1673ffffffffffffffffffffffffffffffffffffffff16611a9a9092919063ffffffff16565b5b8060020160149054906101000a900460ff166003811115610a8b57610a8a61262d565b5b7f2d32ded8381560c010722f0fc669abbcb995f8e9bb7ed54365d5d0046936f7a184604051610aba9190612742565b60405180910390a2505050565b5f801b610ad381611a86565b610afd7f7fb24e16434340412711790bec5b70aba75544e6dad82e36dafb84a8da78b81d8361127f565b610b05575f80fd5b610b2f7f7fb24e16434340412711790bec5b70aba75544e6dad82e36dafb84a8da78b81d83611b19565b50610b44826001611c0290919063ffffffff16565b505f6001811115610b5857610b5761262d565b5b8273ffffffffffffffffffffffffffffffffffffffff163373ffffffffffffffffffffffffffffffffffffffff167fddee724a4d97aa985390f461368ffb80d643d929b22fff5fec040204ff91f60960405160405180910390a45050565b610bbf826107c0565b610bc881611a86565b610bd28383611c2f565b50505050565b610be0611d18565b7f7fb24e16434340412711790bec5b70aba75544e6dad82e36dafb84a8da78b81d610c0a81611a86565b835f8111610c4d576040517f08c379a0000000000000000000000000000000000000000000000000000000008152600401610c4490612994565b60405180910390fd5b5f73ffffffffffffffffffffffffffffffffffffffff16600c6001015f9054906101000a900473ffffffffffffffffffffffffffffffffffffffff1673ffffffffffffffffffffffffffffffffffffffff1603610cdf576040517f08c379a0000000000000000000000000000000000000000000000000000000008152600401610cd6906129fc565b60405180910390fd5b5f610ce8611312565b905085811015610d2d576040517f08c379a0000000000000000000000000000000000000000000000000000000008152600401610d2490612a64565b60405180910390fd5b8560076004015f828254610d419190612aaf565b92505081905550610db8600c6001015f9054906101000a900473ffffffffffffffffffffffffffffffffffffffff168760065f9054906101000a900473ffffffffffffffffffffffffffffffffffffffff1673ffffffffffffffffffffffffffffffffffffffff16611a9a9092919063ffffffff16565b600280811115610dcb57610dca61262d565b5b3373ffffffffffffffffffffffffffffffffffffffff16857f86a6fe8c6814507d07d490c525b0712fd0d1ddf1226627b06eae79e59138cb3d8989604051610e14929190612b4c565b60405180910390a4505050610e27611d5e565b505050565b610e34611d68565b73ffffffffffffffffffffffffffffffffffffffff168173ffffffffffffffffffffffffffffffffffffffff1614610e98576040517f6697b23200000000000000000000000000000000000000000000000000000000815260040160405180910390fd5b610ea28282611b19565b505050565b60065f9054906101000a900473ffffffffffffffffffffffffffffffffffffffff1681565b5f801b610ed881611a86565b610f027f4c9be3f07a6d4b8d9a30ee174f3013f5828af8f3e9648a5e6a243775be68c5b78361127f565b15610f0b575f80fd5b610f357f4c9be3f07a6d4b8d9a30ee174f3013f5828af8f3e9648a5e6a243775be68c5b783611c2f565b50610f4a826003611d6f90919063ffffffff16565b50600180811115610f5e57610f5d61262d565b5b8273ffffffffffffffffffffffffffffffffffffffff163373ffffffffffffffffffffffffffffffffffffffff167ffa2b6604fab9b4b77a2762bb3466182df167672dc2747e0eab4077be17782f2e60405160405180910390a45050565b5f801b610fc881611a86565b610fd0611312565b60076003018190555050565b7f7fb24e16434340412711790bec5b70aba75544e6dad82e36dafb84a8da78b81d81565b5f801b61100c81611a86565b6110367f7fb24e16434340412711790bec5b70aba75544e6dad82e36dafb84a8da78b81d8361127f565b1561103f575f80fd5b6110697f7fb24e16434340412711790bec5b70aba75544e6dad82e36dafb84a8da78b81d83611c2f565b5061107e826001611d6f90919063ffffffff16565b505f60018111156110925761109161262d565b5b8273ffffffffffffffffffffffffffffffffffffffff163373ffffffffffffffffffffffffffffffffffffffff167ffa2b6604fab9b4b77a2762bb3466182df167672dc2747e0eab4077be17782f2e60405160405180910390a45050565b5f801b6110fc81611a86565b6111267f4c9be3f07a6d4b8d9a30ee174f3013f5828af8f3e9648a5e6a243775be68c5b78361127f565b61112e575f80fd5b6111587f4c9be3f07a6d4b8d9a30ee174f3013f5828af8f3e9648a5e6a243775be68c5b783611b19565b5061116d826003611c0290919063ffffffff16565b506001808111156111815761118061262d565b5b8273ffffffffffffffffffffffffffffffffffffffff163373ffffffffffffffffffffffffffffffffffffffff167fddee724a4d97aa985390f461368ffb80d643d929b22fff5fec040204ff91f60960405160405180910390a45050565b600e602052805f5260405f205f91509050805f015490806001015f9054906101000a900473ffffffffffffffffffffffffffffffffffffffff1690806002015f9054906101000a900473ffffffffffffffffffffffffffffffffffffffff16908060020160149054906101000a900460ff16908060030154905085565b6007805f0154908060010154908060020154908060030154908060040154905085565b5f805f8481526020019081526020015f205f015f8373ffffffffffffffffffffffffffffffffffffffff1673ffffffffffffffffffffffffffffffffffffffff1681526020019081526020015f205f9054906101000a900460ff16905092915050565b5f61130d7f4c9be3f07a6d4b8d9a30ee174f3013f5828af8f3e9648a5e6a243775be68c5b73361127f565b905090565b5f60065f9054906101000a900473ffffffffffffffffffffffffffffffffffffffff1673ffffffffffffffffffffffffffffffffffffffff166370a08231306040518263ffffffff1660e01b815260040161136d9190612b7a565b602060405180830381865afa158015611388573d5f803e3d5ffd5b505050506040513d601f19601f820116820180604052508101906113ac9190612ba7565b905090565b5f801b81565b6113bf611d18565b7f7fb24e16434340412711790bec5b70aba75544e6dad82e36dafb84a8da78b81d6113e981611a86565b845f811161142c576040517f08c379a000000000000000000000000000000000000000000000000000000000815260040161142390612994565b60405180910390fd5b5f611435611312565b90508681101561147a576040517f08c379a000000000000000000000000000000000000000000000000000000000815260040161147190612a64565b60405180910390fd5b5f600f5f81548092919061148d90612bd2565b9190505590506040518060a001604052808281526020013373ffffffffffffffffffffffffffffffffffffffff1681526020018873ffffffffffffffffffffffffffffffffffffffff1681526020015f60038111156114ef576114ee61262d565b5b815260200189815250600e5f8381526020019081526020015f205f820151815f01556020820151816001015f6101000a81548173ffffffffffffffffffffffffffffffffffffffff021916908373ffffffffffffffffffffffffffffffffffffffff1602179055506040820151816002015f6101000a81548173ffffffffffffffffffffffffffffffffffffffff021916908373ffffffffffffffffffffffffffffffffffffffff16021790555060608201518160020160146101000a81548160ff021916908360038111156115c8576115c761262d565b5b0217905550608082015181600301559050506115e388611d9c565b8673ffffffffffffffffffffffffffffffffffffffff163373ffffffffffffffffffffffffffffffffffffffff16867f3d7459021283319373c0be5fb3d8734deb81aa0223bb9b7afc7d1979437b062e848c5f8c6040516116479493929190612c19565b60405180910390a45050505061165b611d5e565b50505050565b606061166d6003611a67565b905090565b61167b826107c0565b61168481611a86565b61168e8383611b19565b50505050565b600c805f015f9054906101000a900473ffffffffffffffffffffffffffffffffffffffff1690806001015f9054906101000a900473ffffffffffffffffffffffffffffffffffffffff16905082565b5f61170e7f7fb24e16434340412711790bec5b70aba75544e6dad82e36dafb84a8da78b81d3361127f565b905090565b7f4c9be3f07a6d4b8d9a30ee174f3013f5828af8f3e9648a5e6a243775be68c5b761173d81611a86565b5f600e5f8481526020019081526020015f2090506003808111156117645761176361262d565b5b8160020160149054906101000a900460ff1660038111156117885761178761262d565b5b141580156117cc5750600160038111156117a5576117a461262d565b5b8160020160149054906101000a900460ff1660038111156117c9576117c861262d565b5b14155b61180b576040517f08c379a00000000000000000000000000000000000000000000000000000000081526004016118029061292c565b60405180910390fd5b5f600381111561181e5761181d61262d565b5b8160020160149054906101000a900460ff1660038111156118425761184161262d565b5b036118755760018160020160146101000a81548160ff0219169083600381111561186f5761186e61262d565b5b02179055505b600260038111156118895761188861262d565b5b8160020160149054906101000a900460ff1660038111156118ad576118ac61262d565b5b0361199e57600160038111156118c6576118c561262d565b5b7f2d32ded8381560c010722f0fc669abbcb995f8e9bb7ed54365d5d0046936f7a1846040516118f59190612742565b60405180910390a260038160020160146101000a81548160ff021916908360038111156119255761192461262d565b5b021790555061199d816002015f9054906101000a900473ffffffffffffffffffffffffffffffffffffffff16826003015460065f9054906101000a900473ffffffffffffffffffffffffffffffffffffffff1673ffffffffffffffffffffffffffffffffffffffff16611a9a9092919063ffffffff16565b5b8060020160149054906101000a900460ff1660038111156119c2576119c161262d565b5b7f2d32ded8381560c010722f0fc669abbcb995f8e9bb7ed54365d5d0046936f7a1846040516119f19190612742565b60405180910390a2505050565b5f7f01ffc9a7000000000000000000000000000000000000000000000000000000007bffffffffffffffffffffffffffffffffffffffffffffffffffffffff1916827bffffffffffffffffffffffffffffffffffffffffffffffffffffffff1916149050919050565b60605f611a75835f01611de9565b905060608190508092505050919050565b611a9781611a92611d68565b611e42565b50565b611b14838473ffffffffffffffffffffffffffffffffffffffff1663a9059cbb8585604051602401611acd929190612c63565b604051602081830303815290604052915060e01b6020820180517bffffffffffffffffffffffffffffffffffffffffffffffffffffffff8381831617835250505050611e93565b505050565b5f611b24838361127f565b15611bf8575f805f8581526020019081526020015f205f015f8473ffffffffffffffffffffffffffffffffffffffff1673ffffffffffffffffffffffffffffffffffffffff1681526020019081526020015f205f6101000a81548160ff021916908315150217905550611b95611d68565b73ffffffffffffffffffffffffffffffffffffffff168273ffffffffffffffffffffffffffffffffffffffff16847ff6391f5c32d9c69d2a47ea670b442974b53935d1edc7fd64eb21e047a839171b60405160405180910390a460019050611bfc565b5f90505b92915050565b5f611c27835f018373ffffffffffffffffffffffffffffffffffffffff165f1b611f2e565b905092915050565b5f611c3a838361127f565b611d0e5760015f808581526020019081526020015f205f015f8473ffffffffffffffffffffffffffffffffffffffff1673ffffffffffffffffffffffffffffffffffffffff1681526020019081526020015f205f6101000a81548160ff021916908315150217905550611cab611d68565b73ffffffffffffffffffffffffffffffffffffffff168273ffffffffffffffffffffffffffffffffffffffff16847f2f8788117e7eff1d82e926ec794901d17c78024a50270940304540a733656f0d60405160405180910390a460019050611d12565b5f90505b92915050565b600260055403611d54576040517f3ee5aeb500000000000000000000000000000000000000000000000000000000815260040160405180910390fd5b6002600581905550565b6001600581905550565b5f33905090565b5f611d94835f018373ffffffffffffffffffffffffffffffffffffffff165f1b61202a565b905092915050565b5f81600760020154611dae9190612aaf565b90505f600760030154606483611dc49190612c8a565b611dce9190612cf8565b90508160076002018190555080600760010181905550505050565b6060815f01805480602002602001604051908101604052809291908181526020018280548015611e3657602002820191905f5260205f20905b815481526020019060010190808311611e22575b50505050509050919050565b611e4c828261127f565b611e8f5780826040517fe2517d3f000000000000000000000000000000000000000000000000000000008152600401611e86929190612d28565b60405180910390fd5b5050565b5f8060205f8451602086015f885af180611eb2576040513d5f823e3d81fd5b3d92505f519150505f8214611ecb576001811415611ee6565b5f8473ffffffffffffffffffffffffffffffffffffffff163b145b15611f2857836040517f5274afe7000000000000000000000000000000000000000000000000000000008152600401611f1f9190612b7a565b60405180910390fd5b50505050565b5f80836001015f8481526020019081526020015f205490505f811461201f575f600182611f5b9190612d4f565b90505f6001865f0180549050611f719190612d4f565b9050808214611fd7575f865f018281548110611f9057611f8f612d82565b5b905f5260205f200154905080875f018481548110611fb157611fb0612d82565b5b905f5260205f20018190555083876001015f8381526020019081526020015f2081905550505b855f01805480611fea57611fe9612daf565b5b600190038181905f5260205f20015f90559055856001015f8681526020019081526020015f205f905560019350505050612024565b5f9150505b92915050565b5f6120358383612091565b61208757825f0182908060018154018082558091505060019003905f5260205f20015f9091909190915055825f0180549050836001015f8481526020019081526020015f20819055506001905061208b565b5f90505b92915050565b5f80836001015f8481526020019081526020015f20541415905092915050565b5f604051905090565b5f80fd5b5f80fd5b5f7fffffffff0000000000000000000000000000000000000000000000000000000082169050919050565b6120f6816120c2565b8114612100575f80fd5b50565b5f81359050612111816120ed565b92915050565b5f6020828403121561212c5761212b6120ba565b5b5f61213984828501612103565b91505092915050565b5f8115159050919050565b61215681612142565b82525050565b5f60208201905061216f5f83018461214d565b92915050565b5f81519050919050565b5f82825260208201905092915050565b5f819050602082019050919050565b5f73ffffffffffffffffffffffffffffffffffffffff82169050919050565b5f6121c78261219e565b9050919050565b6121d7816121bd565b82525050565b5f6121e883836121ce565b60208301905092915050565b5f602082019050919050565b5f61220a82612175565b612214818561217f565b935061221f8361218f565b805f5b8381101561224f57815161223688826121dd565b9750612241836121f4565b925050600181019050612222565b5085935050505092915050565b5f6020820190508181035f8301526122748184612200565b905092915050565b612285816121bd565b811461228f575f80fd5b50565b5f813590506122a08161227c565b92915050565b5f602082840312156122bb576122ba6120ba565b5b5f6122c884828501612292565b91505092915050565b5f819050919050565b6122e3816122d1565b82525050565b5f6020820190506122fc5f8301846122da565b92915050565b61230b816122d1565b8114612315575f80fd5b50565b5f8135905061232681612302565b92915050565b5f60208284031215612341576123406120ba565b5b5f61234e84828501612318565b91505092915050565b5f819050919050565b61236981612357565b8114612373575f80fd5b50565b5f8135905061238481612360565b92915050565b5f6020828403121561239f5761239e6120ba565b5b5f6123ac84828501612376565b91505092915050565b5f80604083850312156123cb576123ca6120ba565b5b5f6123d885828601612318565b92505060206123e985828601612292565b9150509250929050565b5f80fd5b5f80fd5b5f601f19601f8301169050919050565b7f4e487b71000000000000000000000000000000000000000000000000000000005f52604160045260245ffd5b612441826123fb565b810181811067ffffffffffffffff821117156124605761245f61240b565b5b80604052505050565b5f6124726120b1565b905061247e8282612438565b919050565b5f67ffffffffffffffff82111561249d5761249c61240b565b5b6124a6826123fb565b9050602081019050919050565b828183375f83830152505050565b5f6124d36124ce84612483565b612469565b9050828152602081018484840111156124ef576124ee6123f7565b5b6124fa8482856124b3565b509392505050565b5f82601f830112612516576125156123f3565b5b81356125268482602086016124c1565b91505092915050565b5f805f60608486031215612546576125456120ba565b5b5f61255386828701612376565b935050602084013567ffffffffffffffff811115612574576125736120be565b5b61258086828701612502565b925050604061259186828701612318565b9150509250925092565b5f819050919050565b5f6125be6125b96125b48461219e565b61259b565b61219e565b9050919050565b5f6125cf826125a4565b9050919050565b5f6125e0826125c5565b9050919050565b6125f0816125d6565b82525050565b5f6020820190506126095f8301846125e7565b92915050565b61261881612357565b82525050565b612627816121bd565b82525050565b7f4e487b71000000000000000000000000000000000000000000000000000000005f52602160045260245ffd5b6004811061266b5761266a61262d565b5b50565b5f81905061267b8261265a565b919050565b5f61268a8261266e565b9050919050565b61269a81612680565b82525050565b5f60a0820190506126b35f83018861260f565b6126c0602083018761261e565b6126cd604083018661261e565b6126da6060830185612691565b6126e7608083018461260f565b9695505050505050565b5f60a0820190506127045f83018861260f565b612711602083018761260f565b61271e604083018661260f565b61272b606083018561260f565b612738608083018461260f565b9695505050505050565b5f6020820190506127555f83018461260f565b92915050565b5f805f8060808587031215612773576127726120ba565b5b5f61278087828801612376565b945050602061279187828801612292565b935050604085013567ffffffffffffffff8111156127b2576127b16120be565b5b6127be87828801612502565b92505060606127cf87828801612318565b91505092959194509250565b5f6040820190506127ee5f83018561261e565b6127fb602083018461261e565b9392505050565b5f82825260208201905092915050565b7f456e64657265636f20696e76616c69646f0000000000000000000000000000005f82015250565b5f612846601183612802565b915061285182612812565b602082019050919050565b5f6020820190508181035f8301526128738161283a565b9050919050565b7f436f6e747261746f20656d2075736f00000000000000000000000000000000005f82015250565b5f6128ae600f83612802565b91506128b98261287a565b602082019050919050565b5f6020820190508181035f8301526128db816128a2565b9050919050565b7f4465737065736120696e76616c696461000000000000000000000000000000005f82015250565b5f612916601083612802565b9150612921826128e2565b602082019050919050565b5f6020820190508181035f8301526129438161290a565b9050919050565b7f56616c6f72206465766520736572206d61696f722071756520300000000000005f82015250565b5f61297e601a83612802565b91506129898261294a565b602082019050919050565b5f6020820190508181035f8301526129ab81612972565b9050919050565b7f436f6e747261746f2045737461646f20696e76616c69646f00000000000000005f82015250565b5f6129e6601883612802565b91506129f1826129b2565b602082019050919050565b5f6020820190508181035f830152612a13816129da565b9050919050565b7f53616c646f20696e737566696369656e746500000000000000000000000000005f82015250565b5f612a4e601283612802565b9150612a5982612a1a565b602082019050919050565b5f6020820190508181035f830152612a7b81612a42565b9050919050565b7f4e487b71000000000000000000000000000000000000000000000000000000005f52601160045260245ffd5b5f612ab982612357565b9150612ac483612357565b9250828201905080821115612adc57612adb612a82565b5b92915050565b5f81519050919050565b5f5b83811015612b09578082015181840152602081019050612aee565b5f8484015250505050565b5f612b1e82612ae2565b612b288185612802565b9350612b38818560208601612aec565b612b41816123fb565b840191505092915050565b5f604082019050612b5f5f83018561260f565b8181036020830152612b718184612b14565b90509392505050565b5f602082019050612b8d5f83018461261e565b92915050565b5f81519050612ba181612360565b92915050565b5f60208284031215612bbc57612bbb6120ba565b5b5f612bc984828501612b93565b91505092915050565b5f612bdc82612357565b91507fffffffffffffffffffffffffffffffffffffffffffffffffffffffffffffffff8203612c0e57612c0d612a82565b5b600182019050919050565b5f608082019050612c2c5f83018761260f565b612c39602083018661260f565b612c466040830185612691565b8181036060830152612c588184612b14565b905095945050505050565b5f604082019050612c765f83018561261e565b612c83602083018461260f565b9392505050565b5f612c9482612357565b9150612c9f83612357565b9250828202612cad81612357565b91508282048414831517612cc457612cc3612a82565b5b5092915050565b7f4e487b71000000000000000000000000000000000000000000000000000000005f52601260045260245ffd5b5f612d0282612357565b9150612d0d83612357565b925082612d1d57612d1c612ccb565b5b828204905092915050565b5f604082019050612d3b5f83018561261e565b612d4860208301846122da565b9392505050565b5f612d5982612357565b9150612d6483612357565b9250828203905081811115612d7c57612d7b612a82565b5b92915050565b7f4e487b71000000000000000000000000000000000000000000000000000000005f52603260045260245ffd5b7f4e487b71000000000000000000000000000000000000000000000000000000005f52603160045260245ffdfea264697066735822122091f7563cc93747dd1ebb44453712a55c8c6edcab7b18db43b8149ba3afc2457864736f6c63430008150033",
  "immutableReferences": {},
  "source": "// SPDX-License-Identifier: MIT\npragma solidity >=0.8.2 <0.9.0;\n\nimport {Permissao} from \"./utils/Permissao.sol\";\nimport {Estruturas} from \"./utils/Estruturas.sol\";\nimport {Modificadores} from \"./utils/Modificadores.sol\";\n\nimport {IERC20} from \"@openzeppelin/contracts/token/ERC20/IERC20.sol\";\nimport {SafeERC20} from \"@openzeppelin/contracts/token/ERC20/utils/SafeERC20.sol\";\nimport {ReentrancyGuard} from \"@openzeppelin/contracts/utils/ReentrancyGuard.sol\";\n\ncontract Estadual is Permissao, Estruturas, Modificadores, ReentrancyGuard {\n    using SafeERC20 for IERC20;\n    IERC20 public moeda;\n\n    Aplicacao public aplicacao =\n        Aplicacao({\n            percentualMinimo: 12,\n            percentualAplicado: 0,\n            valorAplicado: 0,\n            valorArrecadado: 0,\n            valorDistribuido: 0\n        });\n\n    Contrato public contrato;\n\n    mapping(uint256 => Despesa) public despesas;\n    uint256 private proximaDespesaId = 1;\n\n    constructor(address _moeda) {\n        require(_moeda != address(0), \"Moeda invalida\");\n        moeda = IERC20(_moeda);\n    }\n\n    event EventoContrato(\n        address indexed admin,\n        TipoOrgao indexed tipoContrato,\n        address contratoAntigo,\n        address contratoNovo\n    );\n\n    event EventoDistribuicao(\n        bytes32 indexed txAnterior,\n        address indexed orgao,\n        TipoOrgao indexed destino,\n        uint valor,\n        string justificativa\n    );\n\n    event EventoDespesa(\n        bytes32 indexed txAnterior,\n        address indexed orgao,\n        address indexed fornecedor,\n        uint256 despesaId,\n        uint256 valor,\n        Situacao situacao,\n        string justificativa\n    );\n\n    event EventoSituacaoDespesa(Situacao indexed situacao, uint256 despesaId);\n\n    function setValorArrecadado() public onlyRole(DEFAULT_ADMIN_ROLE) {\n        aplicacao.valorArrecadado = buscarSaldo();\n    }\n\n    function setContrato(\n        address _novoContrato\n    ) public onlyRole(DEFAULT_ADMIN_ROLE) {\n        require(_novoContrato != address(0), \"Endereco invalido\");\n        require(contrato.municipal != _novoContrato, \"Contrato em uso\");\n\n        address contratoAntigo = contrato.municipal;\n        contrato.municipal = _novoContrato;\n\n        emit EventoContrato(\n            msg.sender,\n            TipoOrgao.MUNICIPAL,\n            contratoAntigo,\n            _novoContrato\n        );\n    }\n\n    function buscarSaldo() public view returns (uint) {\n        return moeda.balanceOf(address(this));\n    }\n\n    function distribuir(\n        uint _valor,\n        string memory _justificativa,\n        bytes32 _txAnterior\n    ) public nonReentrant onlyRole(ORGAO_ROLE) onlyValorPositivo(_valor) {\n        require(contrato.municipal != address(0), \"Contrato Estado invalido\");\n\n        uint256 saldo = buscarSaldo();\n        require(saldo >= _valor, \"Saldo insuficiente\");\n\n        aplicacao.valorDistribuido += _valor;\n        moeda.safeTransfer(contrato.municipal, _valor);\n        emit EventoDistribuicao(\n            _txAnterior,\n            msg.sender,\n            TipoOrgao.MUNICIPAL,\n            _valor,\n            _justificativa\n        );\n    }\n\n    function registrar(\n        uint256 _valor,\n        address _fornecedor,\n        string memory _justificativa,\n        bytes32 _txAnterior\n    ) public nonReentrant onlyRole(ORGAO_ROLE) onlyValorPositivo(_valor) {\n        uint256 saldo = buscarSaldo();\n        require(saldo >= _valor, \"Saldo insuficiente\");\n        uint256 id = proximaDespesaId++;\n\n        despesas[id] = Despesa({\n            id: id,\n            emitente: msg.sender,\n            fornecedor: _fornecedor,\n            situacao: Situacao.PENDENTE,\n            valor: _valor\n        });\n\n        calcularAplicacao(_valor);\n        emit EventoDespesa(\n            _txAnterior,\n            msg.sender,\n            _fornecedor,\n            id,\n            _valor,\n            Situacao.PENDENTE,\n            _justificativa\n        );\n    }\n\n    function calcularAplicacao(uint256 _valor) private {\n        uint256 valorTotalAplicado = aplicacao.valorAplicado + _valor;\n        uint256 percentualAplicado = (valorTotalAplicado * 100) /\n            aplicacao.valorArrecadado;\n\n        aplicacao.valorAplicado = valorTotalAplicado;\n        aplicacao.percentualAplicado = percentualAplicado;\n    }\n\n    function confirmarEntrega(uint256 _id) public onlyRole(FORNECEDOR_ROLE) {\n        Despesa storage despesa = despesas[_id];\n\n        require(\n            despesa.situacao != Situacao.FINALIZADO &&\n                despesa.situacao != Situacao.ENTREGUE,\n            \"Despesa invalida\"\n        );\n\n        if (despesa.situacao == Situacao.PENDENTE)\n            despesa.situacao = Situacao.ENTREGUE;\n\n        if (despesa.situacao == Situacao.RECEBIDO) {\n            emit EventoSituacaoDespesa(Situacao.ENTREGUE, _id);\n            despesa.situacao = Situacao.FINALIZADO;\n            moeda.safeTransfer(despesa.fornecedor, despesa.valor);\n        }\n\n        emit EventoSituacaoDespesa(despesa.situacao, _id);\n    }\n\n    function confirmarRecebimento(uint256 _id) public onlyRole(ORGAO_ROLE) {\n        Despesa storage despesa = despesas[_id];\n\n        require(\n            despesa.situacao != Situacao.FINALIZADO &&\n                despesa.situacao != Situacao.RECEBIDO,\n            \"Despesa invalida\"\n        );\n\n        if (despesa.situacao == Situacao.PENDENTE)\n            despesa.situacao = Situacao.RECEBIDO;\n\n        if (despesa.situacao == Situacao.ENTREGUE) {\n            emit EventoSituacaoDespesa(Situacao.RECEBIDO, _id);\n            despesa.situacao = Situacao.FINALIZADO;\n            moeda.safeTransfer(despesa.fornecedor, despesa.valor);\n        }\n\n        emit EventoSituacaoDespesa(despesa.situacao, _id);\n    }\n}\n",
  "sourcePath": "/home/willian_samsung/Documentos/TCC-2025/prototipo/contrato-inteligente/contracts/2_Estadual.sol",
  "compiler": {
    "name": "solc",
    "version": "0.8.21+commit.d9974bed.Emscripten.clang"
  },
  "schemaVersion": "3.4.16",
  "updatedAt": "2025-09-28T18:44:03.231Z",
  "networkType": "ethereum",
  "devdoc": {
    "errors": {
      "AccessControlBadConfirmation()": [
        {
          "details": "The caller of a function is not the expected one. NOTE: Don't confuse with {AccessControlUnauthorizedAccount}."
        }
      ],
      "AccessControlUnauthorizedAccount(address,bytes32)": [
        {
          "details": "The `account` is missing a role."
        }
      ],
      "ReentrancyGuardReentrantCall()": [
        {
          "details": "Unauthorized reentrant call."
        }
      ],
      "SafeERC20FailedOperation(address)": [
        {
          "details": "An operation with an ERC-20 token failed."
        }
      ]
    },
    "events": {
      "RoleAdminChanged(bytes32,bytes32,bytes32)": {
        "details": "Emitted when `newAdminRole` is set as ``role``'s admin role, replacing `previousAdminRole` `DEFAULT_ADMIN_ROLE` is the starting admin for all roles, despite {RoleAdminChanged} not being emitted to signal this."
      },
      "RoleGranted(bytes32,address,address)": {
        "details": "Emitted when `account` is granted `role`. `sender` is the account that originated the contract call. This account bears the admin role (for the granted role). Expected in cases where the role was granted using the internal {AccessControl-_grantRole}."
      },
      "RoleRevoked(bytes32,address,address)": {
        "details": "Emitted when `account` is revoked `role`. `sender` is the account that originated the contract call:   - if using `revokeRole`, it is the admin role bearer   - if using `renounceRole`, it is the role bearer (i.e. `account`)"
      }
    },
    "kind": "dev",
    "methods": {
      "getRoleAdmin(bytes32)": {
        "details": "Returns the admin role that controls `role`. See {grantRole} and {revokeRole}. To change a role's admin, use {_setRoleAdmin}."
      },
      "grantRole(bytes32,address)": {
        "details": "Grants `role` to `account`. If `account` had not been already granted `role`, emits a {RoleGranted} event. Requirements: - the caller must have ``role``'s admin role. May emit a {RoleGranted} event."
      },
      "hasRole(bytes32,address)": {
        "details": "Returns `true` if `account` has been granted `role`."
      },
      "renounceRole(bytes32,address)": {
        "details": "Revokes `role` from the calling account. Roles are often managed via {grantRole} and {revokeRole}: this function's purpose is to provide a mechanism for accounts to lose their privileges if they are compromised (such as when a trusted device is misplaced). If the calling account had been revoked `role`, emits a {RoleRevoked} event. Requirements: - the caller must be `callerConfirmation`. May emit a {RoleRevoked} event."
      },
      "revokeRole(bytes32,address)": {
        "details": "Revokes `role` from `account`. If `account` had been granted `role`, emits a {RoleRevoked} event. Requirements: - the caller must have ``role``'s admin role. May emit a {RoleRevoked} event."
      },
      "supportsInterface(bytes4)": {
        "details": "Returns true if this contract implements the interface defined by `interfaceId`. See the corresponding https://eips.ethereum.org/EIPS/eip-165#how-interfaces-are-identified[ERC section] to learn more about how these ids are created. This function call must use less than 30 000 gas."
      }
    },
    "version": 1
  },
  "userdoc": {
    "kind": "user",
    "methods": {},
    "version": 1
  }
}