{
  "contractName": "Federal",
  "abi": [
    {
      "inputs": [
        {
          "internalType": "address",
          "name": "_moeda",
          "type": "address"
        }
      ],
      "stateMutability": "nonpayable",
      "type": "constructor"
    },
    {
      "inputs": [],
      "name": "AccessControlBadConfirmation",
      "type": "error"
    },
    {
      "inputs": [
        {
          "internalType": "address",
          "name": "account",
          "type": "address"
        },
        {
          "internalType": "bytes32",
          "name": "neededRole",
          "type": "bytes32"
        }
      ],
      "name": "AccessControlUnauthorizedAccount",
      "type": "error"
    },
    {
      "inputs": [],
      "name": "ReentrancyGuardReentrantCall",
      "type": "error"
    },
    {
      "inputs": [
        {
          "internalType": "address",
          "name": "token",
          "type": "address"
        }
      ],
      "name": "SafeERC20FailedOperation",
      "type": "error"
    },
    {
      "anonymous": false,
      "inputs": [
        {
          "indexed": true,
          "internalType": "address",
          "name": "admin",
          "type": "address"
        },
        {
          "indexed": true,
          "internalType": "enum Enumeradores.TipoOrgao",
          "name": "tipoContrato",
          "type": "uint8"
        },
        {
          "indexed": false,
          "internalType": "address",
          "name": "contratoAntigo",
          "type": "address"
        },
        {
          "indexed": false,
          "internalType": "address",
          "name": "contratoNovo",
          "type": "address"
        }
      ],
      "name": "EventoContrato",
      "type": "event"
    },
    {
      "anonymous": false,
      "inputs": [
        {
          "indexed": true,
          "internalType": "address",
          "name": "orgao",
          "type": "address"
        },
        {
          "indexed": true,
          "internalType": "address",
          "name": "fornecedor",
          "type": "address"
        },
        {
          "indexed": false,
          "internalType": "uint256",
          "name": "despesaId",
          "type": "uint256"
        },
        {
          "indexed": false,
          "internalType": "uint256",
          "name": "valor",
          "type": "uint256"
        },
        {
          "indexed": false,
          "internalType": "enum Enumeradores.Situacao",
          "name": "situacao",
          "type": "uint8"
        },
        {
          "indexed": false,
          "internalType": "string",
          "name": "justificativa",
          "type": "string"
        }
      ],
      "name": "EventoDespesa",
      "type": "event"
    },
    {
      "anonymous": false,
      "inputs": [
        {
          "indexed": true,
          "internalType": "address",
          "name": "orgao",
          "type": "address"
        },
        {
          "indexed": true,
          "internalType": "enum Enumeradores.TipoOrgao",
          "name": "destino",
          "type": "uint8"
        },
        {
          "indexed": false,
          "internalType": "uint256",
          "name": "valor",
          "type": "uint256"
        },
        {
          "indexed": false,
          "internalType": "string",
          "name": "justificativa",
          "type": "string"
        }
      ],
      "name": "EventoDistribuicao",
      "type": "event"
    },
    {
      "anonymous": false,
      "inputs": [
        {
          "indexed": true,
          "internalType": "enum Enumeradores.Situacao",
          "name": "situacao",
          "type": "uint8"
        },
        {
          "indexed": true,
          "internalType": "uint256",
          "name": "despesaId",
          "type": "uint256"
        }
      ],
      "name": "EventoSituacaoDespesa",
      "type": "event"
    },
    {
      "anonymous": false,
      "inputs": [
        {
          "indexed": true,
          "internalType": "address",
          "name": "admin",
          "type": "address"
        },
        {
          "indexed": true,
          "internalType": "address",
          "name": "endereco",
          "type": "address"
        },
        {
          "indexed": true,
          "internalType": "enum Enumeradores.TipoPermissao",
          "name": "tipoPermissao",
          "type": "uint8"
        }
      ],
      "name": "PermissaoAdicionada",
      "type": "event"
    },
    {
      "anonymous": false,
      "inputs": [
        {
          "indexed": true,
          "internalType": "address",
          "name": "admin",
          "type": "address"
        },
        {
          "indexed": true,
          "internalType": "address",
          "name": "endereco",
          "type": "address"
        },
        {
          "indexed": true,
          "internalType": "enum Enumeradores.TipoPermissao",
          "name": "tipoPermissao",
          "type": "uint8"
        }
      ],
      "name": "PermissaoRemovida",
      "type": "event"
    },
    {
      "anonymous": false,
      "inputs": [
        {
          "indexed": true,
          "internalType": "bytes32",
          "name": "role",
          "type": "bytes32"
        },
        {
          "indexed": true,
          "internalType": "bytes32",
          "name": "previousAdminRole",
          "type": "bytes32"
        },
        {
          "indexed": true,
          "internalType": "bytes32",
          "name": "newAdminRole",
          "type": "bytes32"
        }
      ],
      "name": "RoleAdminChanged",
      "type": "event"
    },
    {
      "anonymous": false,
      "inputs": [
        {
          "indexed": true,
          "internalType": "bytes32",
          "name": "role",
          "type": "bytes32"
        },
        {
          "indexed": true,
          "internalType": "address",
          "name": "account",
          "type": "address"
        },
        {
          "indexed": true,
          "internalType": "address",
          "name": "sender",
          "type": "address"
        }
      ],
      "name": "RoleGranted",
      "type": "event"
    },
    {
      "anonymous": false,
      "inputs": [
        {
          "indexed": true,
          "internalType": "bytes32",
          "name": "role",
          "type": "bytes32"
        },
        {
          "indexed": true,
          "internalType": "address",
          "name": "account",
          "type": "address"
        },
        {
          "indexed": true,
          "internalType": "address",
          "name": "sender",
          "type": "address"
        }
      ],
      "name": "RoleRevoked",
      "type": "event"
    },
    {
      "inputs": [],
      "name": "DEFAULT_ADMIN_ROLE",
      "outputs": [
        {
          "internalType": "bytes32",
          "name": "",
          "type": "bytes32"
        }
      ],
      "stateMutability": "view",
      "type": "function",
      "constant": true
    },
    {
      "inputs": [],
      "name": "FORNECEDOR_ROLE",
      "outputs": [
        {
          "internalType": "bytes32",
          "name": "",
          "type": "bytes32"
        }
      ],
      "stateMutability": "view",
      "type": "function",
      "constant": true
    },
    {
      "inputs": [],
      "name": "ORGAO_ROLE",
      "outputs": [
        {
          "internalType": "bytes32",
          "name": "",
          "type": "bytes32"
        }
      ],
      "stateMutability": "view",
      "type": "function",
      "constant": true
    },
    {
      "inputs": [
        {
          "internalType": "address",
          "name": "_endereco",
          "type": "address"
        }
      ],
      "name": "adicionarPermissaoFornecedor",
      "outputs": [],
      "stateMutability": "nonpayable",
      "type": "function"
    },
    {
      "inputs": [
        {
          "internalType": "address",
          "name": "_endereco",
          "type": "address"
        }
      ],
      "name": "adicionarPermissaoOrgao",
      "outputs": [],
      "stateMutability": "nonpayable",
      "type": "function"
    },
    {
      "inputs": [],
      "name": "aplicacao",
      "outputs": [
        {
          "internalType": "uint256",
          "name": "percentualMinimo",
          "type": "uint256"
        },
        {
          "internalType": "uint256",
          "name": "percentualAplicado",
          "type": "uint256"
        },
        {
          "internalType": "uint256",
          "name": "valorAplicado",
          "type": "uint256"
        },
        {
          "internalType": "uint256",
          "name": "valorArrecadado",
          "type": "uint256"
        },
        {
          "internalType": "uint256",
          "name": "valorDistribuido",
          "type": "uint256"
        }
      ],
      "stateMutability": "view",
      "type": "function",
      "constant": true
    },
    {
      "inputs": [],
      "name": "buscarFornecedoresAtivos",
      "outputs": [
        {
          "internalType": "address[]",
          "name": "",
          "type": "address[]"
        }
      ],
      "stateMutability": "view",
      "type": "function",
      "constant": true
    },
    {
      "inputs": [],
      "name": "buscarOrgaosAtivos",
      "outputs": [
        {
          "internalType": "address[]",
          "name": "",
          "type": "address[]"
        }
      ],
      "stateMutability": "view",
      "type": "function",
      "constant": true
    },
    {
      "inputs": [],
      "name": "contrato",
      "outputs": [
        {
          "internalType": "address",
          "name": "estadual",
          "type": "address"
        },
        {
          "internalType": "address",
          "name": "municipal",
          "type": "address"
        }
      ],
      "stateMutability": "view",
      "type": "function",
      "constant": true
    },
    {
      "inputs": [
        {
          "internalType": "uint256",
          "name": "",
          "type": "uint256"
        }
      ],
      "name": "despesas",
      "outputs": [
        {
          "internalType": "uint256",
          "name": "id",
          "type": "uint256"
        },
        {
          "internalType": "address",
          "name": "emitente",
          "type": "address"
        },
        {
          "internalType": "address",
          "name": "fornecedor",
          "type": "address"
        },
        {
          "internalType": "enum Enumeradores.Situacao",
          "name": "situacao",
          "type": "uint8"
        },
        {
          "internalType": "uint256",
          "name": "valor",
          "type": "uint256"
        }
      ],
      "stateMutability": "view",
      "type": "function",
      "constant": true
    },
    {
      "inputs": [
        {
          "internalType": "bytes32",
          "name": "role",
          "type": "bytes32"
        }
      ],
      "name": "getRoleAdmin",
      "outputs": [
        {
          "internalType": "bytes32",
          "name": "",
          "type": "bytes32"
        }
      ],
      "stateMutability": "view",
      "type": "function",
      "constant": true
    },
    {
      "inputs": [
        {
          "internalType": "bytes32",
          "name": "role",
          "type": "bytes32"
        },
        {
          "internalType": "address",
          "name": "account",
          "type": "address"
        }
      ],
      "name": "grantRole",
      "outputs": [],
      "stateMutability": "nonpayable",
      "type": "function"
    },
    {
      "inputs": [
        {
          "internalType": "bytes32",
          "name": "role",
          "type": "bytes32"
        },
        {
          "internalType": "address",
          "name": "account",
          "type": "address"
        }
      ],
      "name": "hasRole",
      "outputs": [
        {
          "internalType": "bool",
          "name": "",
          "type": "bool"
        }
      ],
      "stateMutability": "view",
      "type": "function",
      "constant": true
    },
    {
      "inputs": [],
      "name": "moeda",
      "outputs": [
        {
          "internalType": "contract IERC20",
          "name": "",
          "type": "address"
        }
      ],
      "stateMutability": "view",
      "type": "function",
      "constant": true
    },
    {
      "inputs": [
        {
          "internalType": "address",
          "name": "_endereco",
          "type": "address"
        }
      ],
      "name": "removerPermissaoFornecedor",
      "outputs": [],
      "stateMutability": "nonpayable",
      "type": "function"
    },
    {
      "inputs": [
        {
          "internalType": "address",
          "name": "_endereco",
          "type": "address"
        }
      ],
      "name": "removerPermissaoOrgao",
      "outputs": [],
      "stateMutability": "nonpayable",
      "type": "function"
    },
    {
      "inputs": [
        {
          "internalType": "bytes32",
          "name": "role",
          "type": "bytes32"
        },
        {
          "internalType": "address",
          "name": "callerConfirmation",
          "type": "address"
        }
      ],
      "name": "renounceRole",
      "outputs": [],
      "stateMutability": "nonpayable",
      "type": "function"
    },
    {
      "inputs": [
        {
          "internalType": "bytes32",
          "name": "role",
          "type": "bytes32"
        },
        {
          "internalType": "address",
          "name": "account",
          "type": "address"
        }
      ],
      "name": "revokeRole",
      "outputs": [],
      "stateMutability": "nonpayable",
      "type": "function"
    },
    {
      "inputs": [
        {
          "internalType": "bytes4",
          "name": "interfaceId",
          "type": "bytes4"
        }
      ],
      "name": "supportsInterface",
      "outputs": [
        {
          "internalType": "bool",
          "name": "",
          "type": "bool"
        }
      ],
      "stateMutability": "view",
      "type": "function",
      "constant": true
    },
    {
      "inputs": [],
      "name": "temPermissaoFornecedor",
      "outputs": [
        {
          "internalType": "bool",
          "name": "",
          "type": "bool"
        }
      ],
      "stateMutability": "view",
      "type": "function",
      "constant": true
    },
    {
      "inputs": [],
      "name": "temPermissaoOrgao",
      "outputs": [
        {
          "internalType": "bool",
          "name": "",
          "type": "bool"
        }
      ],
      "stateMutability": "view",
      "type": "function",
      "constant": true
    },
    {
      "inputs": [],
      "name": "setValorArrecadado",
      "outputs": [],
      "stateMutability": "nonpayable",
      "type": "function"
    },
    {
      "inputs": [
        {
          "internalType": "enum Enumeradores.TipoOrgao",
          "name": "_tipo",
          "type": "uint8"
        },
        {
          "internalType": "address",
          "name": "_novoContrato",
          "type": "address"
        }
      ],
      "name": "setContrato",
      "outputs": [],
      "stateMutability": "nonpayable",
      "type": "function"
    },
    {
      "inputs": [],
      "name": "buscarSaldo",
      "outputs": [
        {
          "internalType": "uint256",
          "name": "",
          "type": "uint256"
        }
      ],
      "stateMutability": "view",
      "type": "function",
      "constant": true
    },
    {
      "inputs": [
        {
          "internalType": "uint256",
          "name": "_valor",
          "type": "uint256"
        },
        {
          "internalType": "enum Enumeradores.TipoOrgao",
          "name": "_tipoOrgao",
          "type": "uint8"
        },
        {
          "internalType": "string",
          "name": "_justificativa",
          "type": "string"
        }
      ],
      "name": "distribuir",
      "outputs": [],
      "stateMutability": "nonpayable",
      "type": "function"
    },
    {
      "inputs": [
        {
          "internalType": "uint256",
          "name": "_valor",
          "type": "uint256"
        },
        {
          "internalType": "address",
          "name": "_fornecedor",
          "type": "address"
        },
        {
          "internalType": "string",
          "name": "_justificativa",
          "type": "string"
        }
      ],
      "name": "registrar",
      "outputs": [],
      "stateMutability": "nonpayable",
      "type": "function"
    },
    {
      "inputs": [
        {
          "internalType": "uint256",
          "name": "_id",
          "type": "uint256"
        }
      ],
      "name": "confirmarEntrega",
      "outputs": [],
      "stateMutability": "nonpayable",
      "type": "function"
    },
    {
      "inputs": [
        {
          "internalType": "uint256",
          "name": "_id",
          "type": "uint256"
        }
      ],
      "name": "confirmarRecebimento",
      "outputs": [],
      "stateMutability": "nonpayable",
      "type": "function"
    }
  ],
  "bytecode": "0x60806040526040518060a00160405280600f81526020015f81526020015f81526020015f81526020015f81525060075f820151815f01556020820151816001015560408201518160020155606082015181600301556080820151816004015550506001600f5534801562000071575f80fd5b506040516200358f3803806200358f833981810160405281019062000097919062000336565b620000ab5f801b336200016c60201b60201c565b5060016005819055505f73ffffffffffffffffffffffffffffffffffffffff168173ffffffffffffffffffffffffffffffffffffffff160362000125576040517f08c379a00000000000000000000000000000000000000000000000000000000081526004016200011c90620003c4565b60405180910390fd5b8060065f6101000a81548173ffffffffffffffffffffffffffffffffffffffff021916908373ffffffffffffffffffffffffffffffffffffffff16021790555050620003e4565b5f6200017f83836200026760201b60201c565b6200025d5760015f808581526020019081526020015f205f015f8473ffffffffffffffffffffffffffffffffffffffff1673ffffffffffffffffffffffffffffffffffffffff1681526020019081526020015f205f6101000a81548160ff021916908315150217905550620001f9620002ca60201b60201c565b73ffffffffffffffffffffffffffffffffffffffff168273ffffffffffffffffffffffffffffffffffffffff16847f2f8788117e7eff1d82e926ec794901d17c78024a50270940304540a733656f0d60405160405180910390a46001905062000261565b5f90505b92915050565b5f805f8481526020019081526020015f205f015f8373ffffffffffffffffffffffffffffffffffffffff1673ffffffffffffffffffffffffffffffffffffffff1681526020019081526020015f205f9054906101000a900460ff16905092915050565b5f33905090565b5f80fd5b5f73ffffffffffffffffffffffffffffffffffffffff82169050919050565b5f6200030082620002d5565b9050919050565b6200031281620002f4565b81146200031d575f80fd5b50565b5f81519050620003308162000307565b92915050565b5f602082840312156200034e576200034d620002d1565b5b5f6200035d8482850162000320565b91505092915050565b5f82825260208201905092915050565b7f4d6f65646120696e76616c6964610000000000000000000000000000000000005f82015250565b5f620003ac600e8362000366565b9150620003b98262000376565b602082019050919050565b5f6020820190508181035f830152620003dd816200039e565b9050919050565b61319d80620003f25f395ff3fe608060405234801561000f575f80fd5b50600436106101c2575f3560e01c8063746d2ea8116100f7578063a0960d9611610095578063d547741f1161006f578063d547741f146104be578063e1a01e67146104da578063eea4be16146104f9578063eea7f82414610517576101c2565b8063a0960d9614610464578063a217fddf14610482578063c66b20ca146104a0576101c2565b80638bc4d831116100d15780638bc4d831146103d857806391d14854146103fa578063977361311461042a5780639f2dafc214610446576101c2565b8063746d2ea81461036c57806380151dd314610388578063812af9b7146103a4576101c2565b80632f2ff15d116101645780635db8607d1161013e5780635db8607d1461030c578063640e0f6a1461032857806365b174f5146103325780636d8696d714610350576101c2565b80632f2ff15d146102b657806336568abe146102d25780634b156e92146102ee576101c2565b806322cf1745116101a057806322cf174514610232578063248a9ca31461024e5780632553ac251461027e5780632e5a29e91461029a576101c2565b806301ffc9a7146101c65780630687bdf8146101f65780630d046a1514610214575b5f80fd5b6101e060048036038101906101db9190612434565b610533565b6040516101ed9190612479565b60405180910390f35b6101fe6105ac565b60405161020b9190612579565b60405180910390f35b61021c6105bd565b60405161022991906125b1565b60405180910390f35b61024c6004803603810190610247919061275c565b6105e1565b005b610268600480360381019061026391906127f2565b6109b9565b60405161027591906125b1565b60405180910390f35b6102986004803603810190610293919061281d565b6109d5565b005b6102b460048036038101906102af9190612872565b610cac565b005b6102d060048036038101906102cb919061289d565b610d9b565b005b6102ec60048036038101906102e7919061289d565b610dbd565b005b6102f6610e38565b6040516103039190612936565b60405180910390f35b61032660048036038101906103219190612872565b610e5d565b005b610330610f4d565b005b61033a610f6d565b60405161034791906125b1565b60405180910390f35b61036a60048036038101906103659190612872565b610f91565b005b6103866004803603810190610381919061294f565b611081565b005b6103a2600480360381019061039d9190612872565b611329565b005b6103be60048036038101906103b9919061281d565b611418565b6040516103cf959493929190612a4c565b60405180910390f35b6103e0611495565b6040516103f1959493929190612a9d565b60405180910390f35b610414600480360381019061040f919061289d565b6114b8565b6040516104219190612479565b60405180910390f35b610444600480360381019061043f9190612aee565b61151b565b005b61044e6118bd565b60405161045b9190612479565b60405180910390f35b61046c6118ed565b6040516104799190612b2c565b60405180910390f35b61048a61198c565b60405161049791906125b1565b60405180910390f35b6104a8611992565b6040516104b59190612579565b60405180910390f35b6104d860048036038101906104d3919061289d565b6119a3565b005b6104e26119c5565b6040516104f0929190612b45565b60405180910390f35b610501611a14565b60405161050e9190612479565b60405180910390f35b610531600480360381019061052c919061281d565b611a44565b005b5f7f7965db0b000000000000000000000000000000000000000000000000000000007bffffffffffffffffffffffffffffffffffffffffffffffffffffffff1916827bffffffffffffffffffffffffffffffffffffffffffffffffffffffff191614806105a557506105a482611d1b565b5b9050919050565b60606105b86001611d84565b905090565b7f4c9be3f07a6d4b8d9a30ee174f3013f5828af8f3e9648a5e6a243775be68c5b781565b6105e9611da3565b7f7fb24e16434340412711790bec5b70aba75544e6dad82e36dafb84a8da78b81d61061381611de9565b8260016002811115610628576106276129d9565b5b81600281111561063b5761063a6129d9565b5b148061066a5750600280811115610655576106546129d9565b5b816002811115610668576106676129d9565b5b145b6106a9576040517f08c379a00000000000000000000000000000000000000000000000000000000081526004016106a090612bc6565b60405180910390fd5b845f81116106ec576040517f08c379a00000000000000000000000000000000000000000000000000000000081526004016106e390612c2e565b60405180910390fd5b5f6106f56118ed565b90508681101561073a576040517f08c379a000000000000000000000000000000000000000000000000000000000815260040161073190612c96565b60405180910390fd5b5f6001600281111561074f5761074e6129d9565b5b876002811115610762576107616129d9565b5b03610823575f73ffffffffffffffffffffffffffffffffffffffff16600c5f015f9054906101000a900473ffffffffffffffffffffffffffffffffffffffff1673ffffffffffffffffffffffffffffffffffffffff16036107f8576040517f08c379a00000000000000000000000000000000000000000000000000000000081526004016107ef90612cfe565b60405180910390fd5b600c5f015f9054906101000a900473ffffffffffffffffffffffffffffffffffffffff1690506108dd565b5f73ffffffffffffffffffffffffffffffffffffffff16600c6001015f9054906101000a900473ffffffffffffffffffffffffffffffffffffffff1673ffffffffffffffffffffffffffffffffffffffff16036108b5576040517f08c379a00000000000000000000000000000000000000000000000000000000081526004016108ac90612cfe565b60405180910390fd5b600c6001015f9054906101000a900473ffffffffffffffffffffffffffffffffffffffff1690505b8760076004015f8282546108f19190612d49565b92505081905550610944818960065f9054906101000a900473ffffffffffffffffffffffffffffffffffffffff1673ffffffffffffffffffffffffffffffffffffffff16611dfd9092919063ffffffff16565b866002811115610957576109566129d9565b5b3373ffffffffffffffffffffffffffffffffffffffff167f11495292f82b4f1b747b8e38926a2862fb6f08818d3b3047ba581cbdaecf85108a8960405161099f929190612de6565b60405180910390a350505050506109b4611e7c565b505050565b5f805f8381526020019081526020015f20600101549050919050565b7f7fb24e16434340412711790bec5b70aba75544e6dad82e36dafb84a8da78b81d6109ff81611de9565b5f600e5f8481526020019081526020015f209050600380811115610a2657610a256129d9565b5b8160020160149054906101000a900460ff166003811115610a4a57610a496129d9565b5b14158015610a8e575060026003811115610a6757610a666129d9565b5b8160020160149054906101000a900460ff166003811115610a8b57610a8a6129d9565b5b14155b610acd576040517f08c379a0000000000000000000000000000000000000000000000000000000008152600401610ac490612e5e565b60405180910390fd5b5f6003811115610ae057610adf6129d9565b5b8160020160149054906101000a900460ff166003811115610b0457610b036129d9565b5b03610b375760028160020160146101000a81548160ff02191690836003811115610b3157610b306129d9565b5b02179055505b60016003811115610b4b57610b4a6129d9565b5b8160020160149054906101000a900460ff166003811115610b6f57610b6e6129d9565b5b03610c56578260026003811115610b8957610b886129d9565b5b7f2d32ded8381560c010722f0fc669abbcb995f8e9bb7ed54365d5d0046936f7a160405160405180910390a360038160020160146101000a81548160ff02191690836003811115610bdd57610bdc6129d9565b5b0217905550610c55816002015f9054906101000a900473ffffffffffffffffffffffffffffffffffffffff16826003015460065f9054906101000a900473ffffffffffffffffffffffffffffffffffffffff1673ffffffffffffffffffffffffffffffffffffffff16611dfd9092919063ffffffff16565b5b828160020160149054906101000a900460ff166003811115610c7b57610c7a6129d9565b5b7f2d32ded8381560c010722f0fc669abbcb995f8e9bb7ed54365d5d0046936f7a160405160405180910390a3505050565b5f801b610cb881611de9565b610ce27f7fb24e16434340412711790bec5b70aba75544e6dad82e36dafb84a8da78b81d836114b8565b610cea575f80fd5b610d147f7fb24e16434340412711790bec5b70aba75544e6dad82e36dafb84a8da78b81d83611e86565b50610d29826001611f6f90919063ffffffff16565b505f6001811115610d3d57610d3c6129d9565b5b8273ffffffffffffffffffffffffffffffffffffffff163373ffffffffffffffffffffffffffffffffffffffff167fddee724a4d97aa985390f461368ffb80d643d929b22fff5fec040204ff91f60960405160405180910390a45050565b610da4826109b9565b610dad81611de9565b610db78383611f9c565b50505050565b610dc5612085565b73ffffffffffffffffffffffffffffffffffffffff168173ffffffffffffffffffffffffffffffffffffffff1614610e29576040517f6697b23200000000000000000000000000000000000000000000000000000000815260040160405180910390fd5b610e338282611e86565b505050565b60065f9054906101000a900473ffffffffffffffffffffffffffffffffffffffff1681565b5f801b610e6981611de9565b610e937f4c9be3f07a6d4b8d9a30ee174f3013f5828af8f3e9648a5e6a243775be68c5b7836114b8565b15610e9c575f80fd5b610ec67f4c9be3f07a6d4b8d9a30ee174f3013f5828af8f3e9648a5e6a243775be68c5b783611f9c565b50610edb82600361208c90919063ffffffff16565b50600180811115610eef57610eee6129d9565b5b8273ffffffffffffffffffffffffffffffffffffffff163373ffffffffffffffffffffffffffffffffffffffff167ffa2b6604fab9b4b77a2762bb3466182df167672dc2747e0eab4077be17782f2e60405160405180910390a45050565b5f801b610f5981611de9565b610f616118ed565b60076003018190555050565b7f7fb24e16434340412711790bec5b70aba75544e6dad82e36dafb84a8da78b81d81565b5f801b610f9d81611de9565b610fc77f7fb24e16434340412711790bec5b70aba75544e6dad82e36dafb84a8da78b81d836114b8565b15610fd0575f80fd5b610ffa7f7fb24e16434340412711790bec5b70aba75544e6dad82e36dafb84a8da78b81d83611f9c565b5061100f82600161208c90919063ffffffff16565b505f6001811115611023576110226129d9565b5b8273ffffffffffffffffffffffffffffffffffffffff163373ffffffffffffffffffffffffffffffffffffffff167ffa2b6604fab9b4b77a2762bb3466182df167672dc2747e0eab4077be17782f2e60405160405180910390a45050565b611089611da3565b7f7fb24e16434340412711790bec5b70aba75544e6dad82e36dafb84a8da78b81d6110b381611de9565b835f81116110f6576040517f08c379a00000000000000000000000000000000000000000000000000000000081526004016110ed90612c2e565b60405180910390fd5b5f6110ff6118ed565b905085811015611144576040517f08c379a000000000000000000000000000000000000000000000000000000000815260040161113b90612c96565b60405180910390fd5b5f600f5490506040518060a001604052808281526020013373ffffffffffffffffffffffffffffffffffffffff1681526020018773ffffffffffffffffffffffffffffffffffffffff1681526020015f60038111156111a6576111a56129d9565b5b815260200188815250600e5f8381526020019081526020015f205f820151815f01556020820151816001015f6101000a81548173ffffffffffffffffffffffffffffffffffffffff021916908373ffffffffffffffffffffffffffffffffffffffff1602179055506040820151816002015f6101000a81548173ffffffffffffffffffffffffffffffffffffffff021916908373ffffffffffffffffffffffffffffffffffffffff16021790555060608201518160020160146101000a81548160ff0219169083600381111561127f5761127e6129d9565b5b02179055506080820151816003015590505061129a876120b9565b6001816112a79190612d49565b600f819055508573ffffffffffffffffffffffffffffffffffffffff163373ffffffffffffffffffffffffffffffffffffffff167fad622baa2fa07669e59116fea9998523a9ee8fa6f68b9040406f1bb7fcadd12a838a5f8a6040516113109493929190612e7c565b60405180910390a350505050611324611e7c565b505050565b5f801b61133581611de9565b61135f7f4c9be3f07a6d4b8d9a30ee174f3013f5828af8f3e9648a5e6a243775be68c5b7836114b8565b611367575f80fd5b6113917f4c9be3f07a6d4b8d9a30ee174f3013f5828af8f3e9648a5e6a243775be68c5b783611e86565b506113a6826003611f6f90919063ffffffff16565b506001808111156113ba576113b96129d9565b5b8273ffffffffffffffffffffffffffffffffffffffff163373ffffffffffffffffffffffffffffffffffffffff167fddee724a4d97aa985390f461368ffb80d643d929b22fff5fec040204ff91f60960405160405180910390a45050565b600e602052805f5260405f205f91509050805f015490806001015f9054906101000a900473ffffffffffffffffffffffffffffffffffffffff1690806002015f9054906101000a900473ffffffffffffffffffffffffffffffffffffffff16908060020160149054906101000a900460ff16908060030154905085565b6007805f0154908060010154908060020154908060030154908060040154905085565b5f805f8481526020019081526020015f205f015f8373ffffffffffffffffffffffffffffffffffffffff1673ffffffffffffffffffffffffffffffffffffffff1681526020019081526020015f205f9054906101000a900460ff16905092915050565b5f801b61152781611de9565b826001600281111561153c5761153b6129d9565b5b81600281111561154f5761154e6129d9565b5b148061157e5750600280811115611569576115686129d9565b5b81600281111561157c5761157b6129d9565b5b145b6115bd576040517f08c379a00000000000000000000000000000000000000000000000000000000081526004016115b490612bc6565b60405180910390fd5b5f73ffffffffffffffffffffffffffffffffffffffff168373ffffffffffffffffffffffffffffffffffffffff160361162b576040517f08c379a000000000000000000000000000000000000000000000000000000000815260040161162290612f10565b60405180910390fd5b5f600160028111156116405761163f6129d9565b5b856002811115611653576116526129d9565b5b03611756578373ffffffffffffffffffffffffffffffffffffffff16600c5f015f9054906101000a900473ffffffffffffffffffffffffffffffffffffffff1673ffffffffffffffffffffffffffffffffffffffff16036116e9576040517f08c379a00000000000000000000000000000000000000000000000000000000081526004016116e090612f78565b60405180910390fd5b600c5f015f9054906101000a900473ffffffffffffffffffffffffffffffffffffffff16905083600c5f015f6101000a81548173ffffffffffffffffffffffffffffffffffffffff021916908373ffffffffffffffffffffffffffffffffffffffff160217905550611853565b8373ffffffffffffffffffffffffffffffffffffffff16600c6001015f9054906101000a900473ffffffffffffffffffffffffffffffffffffffff1673ffffffffffffffffffffffffffffffffffffffff16036117e8576040517f08c379a00000000000000000000000000000000000000000000000000000000081526004016117df90612f78565b60405180910390fd5b600c6001015f9054906101000a900473ffffffffffffffffffffffffffffffffffffffff16905083600c6001015f6101000a81548173ffffffffffffffffffffffffffffffffffffffff021916908373ffffffffffffffffffffffffffffffffffffffff1602179055505b846002811115611866576118656129d9565b5b3373ffffffffffffffffffffffffffffffffffffffff167f51f55bb8c7e9a53719b1a22e21ccc9192133fcab62f2c42a9114b82bf6ac25ad83876040516118ae929190612b45565b60405180910390a35050505050565b5f6118e87f4c9be3f07a6d4b8d9a30ee174f3013f5828af8f3e9648a5e6a243775be68c5b7336114b8565b905090565b5f60065f9054906101000a900473ffffffffffffffffffffffffffffffffffffffff1673ffffffffffffffffffffffffffffffffffffffff166370a08231306040518263ffffffff1660e01b81526004016119489190612f96565b602060405180830381865afa158015611963573d5f803e3d5ffd5b505050506040513d601f19601f820116820180604052508101906119879190612fc3565b905090565b5f801b81565b606061199e6003611d84565b905090565b6119ac826109b9565b6119b581611de9565b6119bf8383611e86565b50505050565b600c805f015f9054906101000a900473ffffffffffffffffffffffffffffffffffffffff1690806001015f9054906101000a900473ffffffffffffffffffffffffffffffffffffffff16905082565b5f611a3f7f7fb24e16434340412711790bec5b70aba75544e6dad82e36dafb84a8da78b81d336114b8565b905090565b7f4c9be3f07a6d4b8d9a30ee174f3013f5828af8f3e9648a5e6a243775be68c5b7611a6e81611de9565b5f600e5f8481526020019081526020015f209050600380811115611a9557611a946129d9565b5b8160020160149054906101000a900460ff166003811115611ab957611ab86129d9565b5b14158015611afd575060016003811115611ad657611ad56129d9565b5b8160020160149054906101000a900460ff166003811115611afa57611af96129d9565b5b14155b611b3c576040517f08c379a0000000000000000000000000000000000000000000000000000000008152600401611b3390612e5e565b60405180910390fd5b5f6003811115611b4f57611b4e6129d9565b5b8160020160149054906101000a900460ff166003811115611b7357611b726129d9565b5b03611ba65760018160020160146101000a81548160ff02191690836003811115611ba057611b9f6129d9565b5b02179055505b60026003811115611bba57611bb96129d9565b5b8160020160149054906101000a900460ff166003811115611bde57611bdd6129d9565b5b03611cc5578260016003811115611bf857611bf76129d9565b5b7f2d32ded8381560c010722f0fc669abbcb995f8e9bb7ed54365d5d0046936f7a160405160405180910390a360038160020160146101000a81548160ff02191690836003811115611c4c57611c4b6129d9565b5b0217905550611cc4816002015f9054906101000a900473ffffffffffffffffffffffffffffffffffffffff16826003015460065f9054906101000a900473ffffffffffffffffffffffffffffffffffffffff1673ffffffffffffffffffffffffffffffffffffffff16611dfd9092919063ffffffff16565b5b828160020160149054906101000a900460ff166003811115611cea57611ce96129d9565b5b7f2d32ded8381560c010722f0fc669abbcb995f8e9bb7ed54365d5d0046936f7a160405160405180910390a3505050565b5f7f01ffc9a7000000000000000000000000000000000000000000000000000000007bffffffffffffffffffffffffffffffffffffffffffffffffffffffff1916827bffffffffffffffffffffffffffffffffffffffffffffffffffffffff1916149050919050565b60605f611d92835f01612106565b905060608190508092505050919050565b600260055403611ddf576040517f3ee5aeb500000000000000000000000000000000000000000000000000000000815260040160405180910390fd5b6002600581905550565b611dfa81611df5612085565b61215f565b50565b611e77838473ffffffffffffffffffffffffffffffffffffffff1663a9059cbb8585604051602401611e30929190612fee565b604051602081830303815290604052915060e01b6020820180517bffffffffffffffffffffffffffffffffffffffffffffffffffffffff83818316178352505050506121b0565b505050565b6001600581905550565b5f611e9183836114b8565b15611f65575f805f8581526020019081526020015f205f015f8473ffffffffffffffffffffffffffffffffffffffff1673ffffffffffffffffffffffffffffffffffffffff1681526020019081526020015f205f6101000a81548160ff021916908315150217905550611f02612085565b73ffffffffffffffffffffffffffffffffffffffff168273ffffffffffffffffffffffffffffffffffffffff16847ff6391f5c32d9c69d2a47ea670b442974b53935d1edc7fd64eb21e047a839171b60405160405180910390a460019050611f69565b5f90505b92915050565b5f611f94835f018373ffffffffffffffffffffffffffffffffffffffff165f1b61224b565b905092915050565b5f611fa783836114b8565b61207b5760015f808581526020019081526020015f205f015f8473ffffffffffffffffffffffffffffffffffffffff1673ffffffffffffffffffffffffffffffffffffffff1681526020019081526020015f205f6101000a81548160ff021916908315150217905550612018612085565b73ffffffffffffffffffffffffffffffffffffffff168273ffffffffffffffffffffffffffffffffffffffff16847f2f8788117e7eff1d82e926ec794901d17c78024a50270940304540a733656f0d60405160405180910390a46001905061207f565b5f90505b92915050565b5f33905090565b5f6120b1835f018373ffffffffffffffffffffffffffffffffffffffff165f1b612347565b905092915050565b5f816007600201546120cb9190612d49565b90505f6007600301546064836120e19190613015565b6120eb9190613083565b90508160076002018190555080600760010181905550505050565b6060815f0180548060200260200160405190810160405280929190818152602001828054801561215357602002820191905f5260205f20905b81548152602001906001019080831161213f575b50505050509050919050565b61216982826114b8565b6121ac5780826040517fe2517d3f0000000000000000000000000000000000000000000000000000000081526004016121a39291906130b3565b60405180910390fd5b5050565b5f8060205f8451602086015f885af1806121cf576040513d5f823e3d81fd5b3d92505f519150505f82146121e8576001811415612203565b5f8473ffffffffffffffffffffffffffffffffffffffff163b145b1561224557836040517f5274afe700000000000000000000000000000000000000000000000000000000815260040161223c9190612f96565b60405180910390fd5b50505050565b5f80836001015f8481526020019081526020015f205490505f811461233c575f60018261227891906130da565b90505f6001865f018054905061228e91906130da565b90508082146122f4575f865f0182815481106122ad576122ac61310d565b5b905f5260205f200154905080875f0184815481106122ce576122cd61310d565b5b905f5260205f20018190555083876001015f8381526020019081526020015f2081905550505b855f018054806123075761230661313a565b5b600190038181905f5260205f20015f90559055856001015f8681526020019081526020015f205f905560019350505050612341565b5f9150505b92915050565b5f61235283836123ae565b6123a457825f0182908060018154018082558091505060019003905f5260205f20015f9091909190915055825f0180549050836001015f8481526020019081526020015f2081905550600190506123a8565b5f90505b92915050565b5f80836001015f8481526020019081526020015f20541415905092915050565b5f604051905090565b5f80fd5b5f80fd5b5f7fffffffff0000000000000000000000000000000000000000000000000000000082169050919050565b612413816123df565b811461241d575f80fd5b50565b5f8135905061242e8161240a565b92915050565b5f60208284031215612449576124486123d7565b5b5f61245684828501612420565b91505092915050565b5f8115159050919050565b6124738161245f565b82525050565b5f60208201905061248c5f83018461246a565b92915050565b5f81519050919050565b5f82825260208201905092915050565b5f819050602082019050919050565b5f73ffffffffffffffffffffffffffffffffffffffff82169050919050565b5f6124e4826124bb565b9050919050565b6124f4816124da565b82525050565b5f61250583836124eb565b60208301905092915050565b5f602082019050919050565b5f61252782612492565b612531818561249c565b935061253c836124ac565b805f5b8381101561256c57815161255388826124fa565b975061255e83612511565b92505060018101905061253f565b5085935050505092915050565b5f6020820190508181035f830152612591818461251d565b905092915050565b5f819050919050565b6125ab81612599565b82525050565b5f6020820190506125c45f8301846125a2565b92915050565b5f819050919050565b6125dc816125ca565b81146125e6575f80fd5b50565b5f813590506125f7816125d3565b92915050565b60038110612609575f80fd5b50565b5f8135905061261a816125fd565b92915050565b5f80fd5b5f80fd5b5f601f19601f8301169050919050565b7f4e487b71000000000000000000000000000000000000000000000000000000005f52604160045260245ffd5b61266e82612628565b810181811067ffffffffffffffff8211171561268d5761268c612638565b5b80604052505050565b5f61269f6123ce565b90506126ab8282612665565b919050565b5f67ffffffffffffffff8211156126ca576126c9612638565b5b6126d382612628565b9050602081019050919050565b828183375f83830152505050565b5f6127006126fb846126b0565b612696565b90508281526020810184848401111561271c5761271b612624565b5b6127278482856126e0565b509392505050565b5f82601f83011261274357612742612620565b5b81356127538482602086016126ee565b91505092915050565b5f805f60608486031215612773576127726123d7565b5b5f612780868287016125e9565b93505060206127918682870161260c565b925050604084013567ffffffffffffffff8111156127b2576127b16123db565b5b6127be8682870161272f565b9150509250925092565b6127d181612599565b81146127db575f80fd5b50565b5f813590506127ec816127c8565b92915050565b5f60208284031215612807576128066123d7565b5b5f612814848285016127de565b91505092915050565b5f60208284031215612832576128316123d7565b5b5f61283f848285016125e9565b91505092915050565b612851816124da565b811461285b575f80fd5b50565b5f8135905061286c81612848565b92915050565b5f60208284031215612887576128866123d7565b5b5f6128948482850161285e565b91505092915050565b5f80604083850312156128b3576128b26123d7565b5b5f6128c0858286016127de565b92505060206128d18582860161285e565b9150509250929050565b5f819050919050565b5f6128fe6128f96128f4846124bb565b6128db565b6124bb565b9050919050565b5f61290f826128e4565b9050919050565b5f61292082612905565b9050919050565b61293081612916565b82525050565b5f6020820190506129495f830184612927565b92915050565b5f805f60608486031215612966576129656123d7565b5b5f612973868287016125e9565b93505060206129848682870161285e565b925050604084013567ffffffffffffffff8111156129a5576129a46123db565b5b6129b18682870161272f565b9150509250925092565b6129c4816125ca565b82525050565b6129d3816124da565b82525050565b7f4e487b71000000000000000000000000000000000000000000000000000000005f52602160045260245ffd5b60048110612a1757612a166129d9565b5b50565b5f819050612a2782612a06565b919050565b5f612a3682612a1a565b9050919050565b612a4681612a2c565b82525050565b5f60a082019050612a5f5f8301886129bb565b612a6c60208301876129ca565b612a7960408301866129ca565b612a866060830185612a3d565b612a9360808301846129bb565b9695505050505050565b5f60a082019050612ab05f8301886129bb565b612abd60208301876129bb565b612aca60408301866129bb565b612ad760608301856129bb565b612ae460808301846129bb565b9695505050505050565b5f8060408385031215612b0457612b036123d7565b5b5f612b118582860161260c565b9250506020612b228582860161285e565b9150509250929050565b5f602082019050612b3f5f8301846129bb565b92915050565b5f604082019050612b585f8301856129ca565b612b6560208301846129ca565b9392505050565b5f82825260208201905092915050565b7f4f7267616f206e616f20646566696e69646f00000000000000000000000000005f82015250565b5f612bb0601283612b6c565b9150612bbb82612b7c565b602082019050919050565b5f6020820190508181035f830152612bdd81612ba4565b9050919050565b7f56616c6f72206465766520736572206d61696f722071756520300000000000005f82015250565b5f612c18601a83612b6c565b9150612c2382612be4565b602082019050919050565b5f6020820190508181035f830152612c4581612c0c565b9050919050565b7f53616c646f20696e737566696369656e746500000000000000000000000000005f82015250565b5f612c80601283612b6c565b9150612c8b82612c4c565b602082019050919050565b5f6020820190508181035f830152612cad81612c74565b9050919050565b7f436f6e747261746f2045737461646f20696e76616c69646f00000000000000005f82015250565b5f612ce8601883612b6c565b9150612cf382612cb4565b602082019050919050565b5f6020820190508181035f830152612d1581612cdc565b9050919050565b7f4e487b71000000000000000000000000000000000000000000000000000000005f52601160045260245ffd5b5f612d53826125ca565b9150612d5e836125ca565b9250828201905080821115612d7657612d75612d1c565b5b92915050565b5f81519050919050565b5f5b83811015612da3578082015181840152602081019050612d88565b5f8484015250505050565b5f612db882612d7c565b612dc28185612b6c565b9350612dd2818560208601612d86565b612ddb81612628565b840191505092915050565b5f604082019050612df95f8301856129bb565b8181036020830152612e0b8184612dae565b90509392505050565b7f4465737065736120696e76616c696461000000000000000000000000000000005f82015250565b5f612e48601083612b6c565b9150612e5382612e14565b602082019050919050565b5f6020820190508181035f830152612e7581612e3c565b9050919050565b5f608082019050612e8f5f8301876129bb565b612e9c60208301866129bb565b612ea96040830185612a3d565b8181036060830152612ebb8184612dae565b905095945050505050565b7f456e64657265636f20696e76616c69646f0000000000000000000000000000005f82015250565b5f612efa601183612b6c565b9150612f0582612ec6565b602082019050919050565b5f6020820190508181035f830152612f2781612eee565b9050919050565b7f436f6e747261746f20656d2075736f00000000000000000000000000000000005f82015250565b5f612f62600f83612b6c565b9150612f6d82612f2e565b602082019050919050565b5f6020820190508181035f830152612f8f81612f56565b9050919050565b5f602082019050612fa95f8301846129ca565b92915050565b5f81519050612fbd816125d3565b92915050565b5f60208284031215612fd857612fd76123d7565b5b5f612fe584828501612faf565b91505092915050565b5f6040820190506130015f8301856129ca565b61300e60208301846129bb565b9392505050565b5f61301f826125ca565b915061302a836125ca565b9250828202613038816125ca565b9150828204841483151761304f5761304e612d1c565b5b5092915050565b7f4e487b71000000000000000000000000000000000000000000000000000000005f52601260045260245ffd5b5f61308d826125ca565b9150613098836125ca565b9250826130a8576130a7613056565b5b828204905092915050565b5f6040820190506130c65f8301856129ca565b6130d360208301846125a2565b9392505050565b5f6130e4826125ca565b91506130ef836125ca565b925082820390508181111561310757613106612d1c565b5b92915050565b7f4e487b71000000000000000000000000000000000000000000000000000000005f52603260045260245ffd5b7f4e487b71000000000000000000000000000000000000000000000000000000005f52603160045260245ffdfea2646970667358221220db51a69211612d216cd8232496d903a86ad40745c164e9ce4642ab662fc6b3ae64736f6c63430008150033",
  "immutableReferences": {},
  "source": "// SPDX-License-Identifier: MIT\npragma solidity >=0.8.2 <0.9.0;\n\nimport {Permissao} from \"./utils/Permissao.sol\";\nimport {Modificadores} from \"./utils/Modificadores.sol\";\nimport {Estruturas} from \"./utils/Estruturas.sol\";\n\nimport {IERC20} from \"@openzeppelin/contracts/token/ERC20/IERC20.sol\";\nimport {SafeERC20} from \"@openzeppelin/contracts/token/ERC20/utils/SafeERC20.sol\";\nimport {ReentrancyGuard} from \"@openzeppelin/contracts/utils/ReentrancyGuard.sol\";\n\ncontract Federal is Permissao, Modificadores, Estruturas, ReentrancyGuard {\n    using SafeERC20 for IERC20;\n\n    IERC20 public moeda;\n\n    Aplicacao public aplicacao =\n        Aplicacao({\n            percentualMinimo: 15,\n            percentualAplicado: 0,\n            valorAplicado: 0,\n            valorArrecadado: 0,\n            valorDistribuido: 0\n        });\n\n    Contrato public contrato;\n\n    mapping(uint256 => Despesa) public despesas;\n    uint256 private proximaDespesaId = 1;\n\n    constructor(address _moeda) {\n        require(_moeda != address(0), \"Moeda invalida\");\n        moeda = IERC20(_moeda);\n    }\n\n    event EventoDistribuicao(\n        address indexed orgao,\n        TipoOrgao indexed destino,\n        uint valor,\n        string justificativa\n    );\n\n    // event EventoDespesa(\n    //     address indexed orgao,\n    //     uint valor,\n    //     string justificativa\n    // );\n\n    event EventoDespesa(\n        address indexed orgao,\n        address indexed fornecedor,\n        uint256 despesaId,\n        uint256 valor,\n        Situacao situacao,\n        string justificativa\n    );\n\n    event EventoSituacaoDespesa(\n        Situacao indexed situacao,\n        uint256 indexed despesaId\n    );\n\n    event EventoContrato(\n        address indexed admin,\n        TipoOrgao indexed tipoContrato,\n        address contratoAntigo,\n        address contratoNovo\n    );\n\n    function setValorArrecadado() public onlyRole(DEFAULT_ADMIN_ROLE) {\n        aplicacao.valorArrecadado = buscarSaldo();\n    }\n\n    function setContrato(\n        TipoOrgao _tipo,\n        address _novoContrato\n    ) public onlyRole(DEFAULT_ADMIN_ROLE) onlyEstadualMunicipal(_tipo) {\n        require(_novoContrato != address(0), \"Endereco invalido\");\n\n        address contratoAntigo;\n\n        if (_tipo == TipoOrgao.ESTADUAL) {\n            require(contrato.estadual != _novoContrato, \"Contrato em uso\");\n            contratoAntigo = contrato.estadual;\n            contrato.estadual = _novoContrato;\n        } else {\n            require(contrato.municipal != _novoContrato, \"Contrato em uso\");\n            contratoAntigo = contrato.municipal;\n            contrato.municipal = _novoContrato;\n        }\n\n        emit EventoContrato(msg.sender, _tipo, contratoAntigo, _novoContrato);\n    }\n\n    function buscarSaldo() public view returns (uint) {\n        return moeda.balanceOf(address(this));\n    }\n\n    function distribuir(\n        uint _valor,\n        TipoOrgao _tipoOrgao,\n        string memory _justificativa\n    )\n        public\n        nonReentrant\n        onlyRole(ORGAO_ROLE)\n        onlyEstadualMunicipal(_tipoOrgao)\n        onlyValorPositivo(_valor)\n    {\n        uint256 saldo = buscarSaldo();\n        require(saldo >= _valor, \"Saldo insuficiente\");\n\n        address destino;\n\n        if (_tipoOrgao == TipoOrgao.ESTADUAL) {\n            require(\n                contrato.estadual != address(0),\n                \"Contrato Estado invalido\"\n            );\n            destino = contrato.estadual;\n        } else {\n            require(\n                contrato.municipal != address(0),\n                \"Contrato Estado invalido\"\n            );\n            destino = contrato.municipal;\n        }\n\n        aplicacao.valorDistribuido += _valor;\n        moeda.safeTransfer(destino, _valor);\n        emit EventoDistribuicao(msg.sender, _tipoOrgao, _valor, _justificativa);\n    }\n\n    function registrar(\n        uint256 _valor,\n        address _fornecedor,\n        string memory _justificativa\n    ) public nonReentrant onlyRole(ORGAO_ROLE) onlyValorPositivo(_valor) {\n        uint256 saldo = buscarSaldo();\n        require(saldo >= _valor, \"Saldo insuficiente\");\n\n        uint256 id = proximaDespesaId;\n\n        despesas[id] = Despesa({\n            id: id,\n            emitente: msg.sender,\n            fornecedor: _fornecedor,\n            situacao: Situacao.PENDENTE,\n            valor: _valor\n        });\n\n        calcularAplicacao(_valor);\n\n        proximaDespesaId = id + 1;\n\n        emit EventoDespesa(\n            msg.sender,\n            _fornecedor,\n            id,\n            _valor,\n            Situacao.PENDENTE,\n            _justificativa\n        );\n    }\n\n    function calcularAplicacao(uint256 _valor) private {\n        uint256 valorTotalAplicado = aplicacao.valorAplicado + _valor;\n        uint256 percentualAplicado = (valorTotalAplicado * 100) /\n            aplicacao.valorArrecadado;\n\n        aplicacao.valorAplicado = valorTotalAplicado;\n        aplicacao.percentualAplicado = percentualAplicado;\n    }\n\n    function confirmarEntrega(uint256 _id) public onlyRole(FORNECEDOR_ROLE) {\n        Despesa storage despesa = despesas[_id];\n\n        require(\n            despesa.situacao != Situacao.FINALIZADO &&\n                despesa.situacao != Situacao.ENTREGUE,\n            \"Despesa invalida\"\n        );\n\n        if (despesa.situacao == Situacao.PENDENTE)\n            despesa.situacao = Situacao.ENTREGUE;\n\n        if (despesa.situacao == Situacao.RECEBIDO) {\n            emit EventoSituacaoDespesa(Situacao.ENTREGUE, _id);\n            despesa.situacao = Situacao.FINALIZADO;\n            moeda.safeTransfer(despesa.fornecedor, despesa.valor);\n        }\n\n        emit EventoSituacaoDespesa(despesa.situacao, _id);\n    }\n\n    function confirmarRecebimento(uint256 _id) public onlyRole(ORGAO_ROLE) {\n        Despesa storage despesa = despesas[_id];\n\n        require(\n            despesa.situacao != Situacao.FINALIZADO &&\n                despesa.situacao != Situacao.RECEBIDO,\n            \"Despesa invalida\"\n        );\n\n        if (despesa.situacao == Situacao.PENDENTE)\n            despesa.situacao = Situacao.RECEBIDO;\n\n        if (despesa.situacao == Situacao.ENTREGUE) {\n            emit EventoSituacaoDespesa(Situacao.RECEBIDO, _id);\n            despesa.situacao = Situacao.FINALIZADO;\n            moeda.safeTransfer(despesa.fornecedor, despesa.valor);\n        }\n\n        emit EventoSituacaoDespesa(despesa.situacao, _id);\n    }\n}\n",
  "sourcePath": "/home/willian_samsung/Documentos/TCC-2025/prototipo/contrato-inteligente/contracts/1_Federal.sol",
  "compiler": {
    "name": "solc",
    "version": "0.8.21+commit.d9974bed.Emscripten.clang"
  },
  "schemaVersion": "3.4.16",
  "updatedAt": "2025-10-12T22:24:36.895Z",
  "networkType": "ethereum",
  "devdoc": {
    "errors": {
      "AccessControlBadConfirmation()": [
        {
          "details": "The caller of a function is not the expected one. NOTE: Don't confuse with {AccessControlUnauthorizedAccount}."
        }
      ],
      "AccessControlUnauthorizedAccount(address,bytes32)": [
        {
          "details": "The `account` is missing a role."
        }
      ],
      "ReentrancyGuardReentrantCall()": [
        {
          "details": "Unauthorized reentrant call."
        }
      ],
      "SafeERC20FailedOperation(address)": [
        {
          "details": "An operation with an ERC-20 token failed."
        }
      ]
    },
    "events": {
      "RoleAdminChanged(bytes32,bytes32,bytes32)": {
        "details": "Emitted when `newAdminRole` is set as ``role``'s admin role, replacing `previousAdminRole` `DEFAULT_ADMIN_ROLE` is the starting admin for all roles, despite {RoleAdminChanged} not being emitted to signal this."
      },
      "RoleGranted(bytes32,address,address)": {
        "details": "Emitted when `account` is granted `role`. `sender` is the account that originated the contract call. This account bears the admin role (for the granted role). Expected in cases where the role was granted using the internal {AccessControl-_grantRole}."
      },
      "RoleRevoked(bytes32,address,address)": {
        "details": "Emitted when `account` is revoked `role`. `sender` is the account that originated the contract call:   - if using `revokeRole`, it is the admin role bearer   - if using `renounceRole`, it is the role bearer (i.e. `account`)"
      }
    },
    "kind": "dev",
    "methods": {
      "getRoleAdmin(bytes32)": {
        "details": "Returns the admin role that controls `role`. See {grantRole} and {revokeRole}. To change a role's admin, use {_setRoleAdmin}."
      },
      "grantRole(bytes32,address)": {
        "details": "Grants `role` to `account`. If `account` had not been already granted `role`, emits a {RoleGranted} event. Requirements: - the caller must have ``role``'s admin role. May emit a {RoleGranted} event."
      },
      "hasRole(bytes32,address)": {
        "details": "Returns `true` if `account` has been granted `role`."
      },
      "renounceRole(bytes32,address)": {
        "details": "Revokes `role` from the calling account. Roles are often managed via {grantRole} and {revokeRole}: this function's purpose is to provide a mechanism for accounts to lose their privileges if they are compromised (such as when a trusted device is misplaced). If the calling account had been revoked `role`, emits a {RoleRevoked} event. Requirements: - the caller must be `callerConfirmation`. May emit a {RoleRevoked} event."
      },
      "revokeRole(bytes32,address)": {
        "details": "Revokes `role` from `account`. If `account` had been granted `role`, emits a {RoleRevoked} event. Requirements: - the caller must have ``role``'s admin role. May emit a {RoleRevoked} event."
      },
      "supportsInterface(bytes4)": {
        "details": "Returns true if this contract implements the interface defined by `interfaceId`. See the corresponding https://eips.ethereum.org/EIPS/eip-165#how-interfaces-are-identified[ERC section] to learn more about how these ids are created. This function call must use less than 30 000 gas."
      }
    },
    "version": 1
  },
  "userdoc": {
    "kind": "user",
    "methods": {},
    "version": 1
  }
}