{
  "contractName": "Federal",
  "abi": [
    {
      "inputs": [
        {
          "internalType": "address",
          "name": "_moeda",
          "type": "address"
        }
      ],
      "stateMutability": "nonpayable",
      "type": "constructor"
    },
    {
      "inputs": [],
      "name": "AccessControlBadConfirmation",
      "type": "error"
    },
    {
      "inputs": [
        {
          "internalType": "address",
          "name": "account",
          "type": "address"
        },
        {
          "internalType": "bytes32",
          "name": "neededRole",
          "type": "bytes32"
        }
      ],
      "name": "AccessControlUnauthorizedAccount",
      "type": "error"
    },
    {
      "inputs": [],
      "name": "ReentrancyGuardReentrantCall",
      "type": "error"
    },
    {
      "inputs": [
        {
          "internalType": "address",
          "name": "token",
          "type": "address"
        }
      ],
      "name": "SafeERC20FailedOperation",
      "type": "error"
    },
    {
      "anonymous": false,
      "inputs": [
        {
          "indexed": true,
          "internalType": "address",
          "name": "admin",
          "type": "address"
        },
        {
          "indexed": true,
          "internalType": "enum Enumeradores.TipoOrgao",
          "name": "tipoContrato",
          "type": "uint8"
        },
        {
          "indexed": false,
          "internalType": "address",
          "name": "contratoAntigo",
          "type": "address"
        },
        {
          "indexed": false,
          "internalType": "address",
          "name": "contratoNovo",
          "type": "address"
        }
      ],
      "name": "EventoContrato",
      "type": "event"
    },
    {
      "anonymous": false,
      "inputs": [
        {
          "indexed": true,
          "internalType": "address",
          "name": "orgao",
          "type": "address"
        },
        {
          "indexed": true,
          "internalType": "address",
          "name": "fornecedor",
          "type": "address"
        },
        {
          "indexed": false,
          "internalType": "uint256",
          "name": "despesaId",
          "type": "uint256"
        },
        {
          "indexed": false,
          "internalType": "uint256",
          "name": "valor",
          "type": "uint256"
        },
        {
          "indexed": false,
          "internalType": "enum Enumeradores.Situacao",
          "name": "situacao",
          "type": "uint8"
        },
        {
          "indexed": false,
          "internalType": "string",
          "name": "justificativa",
          "type": "string"
        }
      ],
      "name": "EventoDespesa",
      "type": "event"
    },
    {
      "anonymous": false,
      "inputs": [
        {
          "indexed": true,
          "internalType": "address",
          "name": "orgao",
          "type": "address"
        },
        {
          "indexed": true,
          "internalType": "enum Enumeradores.TipoOrgao",
          "name": "destino",
          "type": "uint8"
        },
        {
          "indexed": false,
          "internalType": "uint256",
          "name": "valor",
          "type": "uint256"
        },
        {
          "indexed": false,
          "internalType": "string",
          "name": "justificativa",
          "type": "string"
        }
      ],
      "name": "EventoDistribuicao",
      "type": "event"
    },
    {
      "anonymous": false,
      "inputs": [
        {
          "indexed": true,
          "internalType": "enum Enumeradores.Situacao",
          "name": "situacao",
          "type": "uint8"
        },
        {
          "indexed": false,
          "internalType": "uint256",
          "name": "despesaId",
          "type": "uint256"
        }
      ],
      "name": "EventoSituacaoDespesa",
      "type": "event"
    },
    {
      "anonymous": false,
      "inputs": [
        {
          "indexed": true,
          "internalType": "address",
          "name": "admin",
          "type": "address"
        },
        {
          "indexed": true,
          "internalType": "address",
          "name": "endereco",
          "type": "address"
        },
        {
          "indexed": true,
          "internalType": "enum Enumeradores.TipoPermissao",
          "name": "tipoPermissao",
          "type": "uint8"
        }
      ],
      "name": "PermissaoAdicionada",
      "type": "event"
    },
    {
      "anonymous": false,
      "inputs": [
        {
          "indexed": true,
          "internalType": "address",
          "name": "admin",
          "type": "address"
        },
        {
          "indexed": true,
          "internalType": "address",
          "name": "endereco",
          "type": "address"
        },
        {
          "indexed": true,
          "internalType": "enum Enumeradores.TipoPermissao",
          "name": "tipoPermissao",
          "type": "uint8"
        }
      ],
      "name": "PermissaoRemovida",
      "type": "event"
    },
    {
      "anonymous": false,
      "inputs": [
        {
          "indexed": true,
          "internalType": "bytes32",
          "name": "role",
          "type": "bytes32"
        },
        {
          "indexed": true,
          "internalType": "bytes32",
          "name": "previousAdminRole",
          "type": "bytes32"
        },
        {
          "indexed": true,
          "internalType": "bytes32",
          "name": "newAdminRole",
          "type": "bytes32"
        }
      ],
      "name": "RoleAdminChanged",
      "type": "event"
    },
    {
      "anonymous": false,
      "inputs": [
        {
          "indexed": true,
          "internalType": "bytes32",
          "name": "role",
          "type": "bytes32"
        },
        {
          "indexed": true,
          "internalType": "address",
          "name": "account",
          "type": "address"
        },
        {
          "indexed": true,
          "internalType": "address",
          "name": "sender",
          "type": "address"
        }
      ],
      "name": "RoleGranted",
      "type": "event"
    },
    {
      "anonymous": false,
      "inputs": [
        {
          "indexed": true,
          "internalType": "bytes32",
          "name": "role",
          "type": "bytes32"
        },
        {
          "indexed": true,
          "internalType": "address",
          "name": "account",
          "type": "address"
        },
        {
          "indexed": true,
          "internalType": "address",
          "name": "sender",
          "type": "address"
        }
      ],
      "name": "RoleRevoked",
      "type": "event"
    },
    {
      "inputs": [],
      "name": "DEFAULT_ADMIN_ROLE",
      "outputs": [
        {
          "internalType": "bytes32",
          "name": "",
          "type": "bytes32"
        }
      ],
      "stateMutability": "view",
      "type": "function",
      "constant": true
    },
    {
      "inputs": [],
      "name": "FORNECEDOR_ROLE",
      "outputs": [
        {
          "internalType": "bytes32",
          "name": "",
          "type": "bytes32"
        }
      ],
      "stateMutability": "view",
      "type": "function",
      "constant": true
    },
    {
      "inputs": [],
      "name": "ORGAO_ROLE",
      "outputs": [
        {
          "internalType": "bytes32",
          "name": "",
          "type": "bytes32"
        }
      ],
      "stateMutability": "view",
      "type": "function",
      "constant": true
    },
    {
      "inputs": [
        {
          "internalType": "address",
          "name": "_endereco",
          "type": "address"
        }
      ],
      "name": "adicionarPermissaoFornecedor",
      "outputs": [],
      "stateMutability": "nonpayable",
      "type": "function"
    },
    {
      "inputs": [
        {
          "internalType": "address",
          "name": "_endereco",
          "type": "address"
        }
      ],
      "name": "adicionarPermissaoOrgao",
      "outputs": [],
      "stateMutability": "nonpayable",
      "type": "function"
    },
    {
      "inputs": [],
      "name": "aplicacao",
      "outputs": [
        {
          "internalType": "uint256",
          "name": "percentualMinimo",
          "type": "uint256"
        },
        {
          "internalType": "uint256",
          "name": "percentualAplicado",
          "type": "uint256"
        },
        {
          "internalType": "uint256",
          "name": "valorAplicado",
          "type": "uint256"
        },
        {
          "internalType": "uint256",
          "name": "valorArrecadado",
          "type": "uint256"
        },
        {
          "internalType": "uint256",
          "name": "valorDistribuido",
          "type": "uint256"
        }
      ],
      "stateMutability": "view",
      "type": "function",
      "constant": true
    },
    {
      "inputs": [],
      "name": "buscarFornecedoresAtivos",
      "outputs": [
        {
          "internalType": "address[]",
          "name": "",
          "type": "address[]"
        }
      ],
      "stateMutability": "view",
      "type": "function",
      "constant": true
    },
    {
      "inputs": [],
      "name": "buscarOrgaosAtivos",
      "outputs": [
        {
          "internalType": "address[]",
          "name": "",
          "type": "address[]"
        }
      ],
      "stateMutability": "view",
      "type": "function",
      "constant": true
    },
    {
      "inputs": [],
      "name": "contrato",
      "outputs": [
        {
          "internalType": "address",
          "name": "estadual",
          "type": "address"
        },
        {
          "internalType": "address",
          "name": "municipal",
          "type": "address"
        }
      ],
      "stateMutability": "view",
      "type": "function",
      "constant": true
    },
    {
      "inputs": [
        {
          "internalType": "uint256",
          "name": "",
          "type": "uint256"
        }
      ],
      "name": "despesas",
      "outputs": [
        {
          "internalType": "uint256",
          "name": "id",
          "type": "uint256"
        },
        {
          "internalType": "address",
          "name": "emitente",
          "type": "address"
        },
        {
          "internalType": "address",
          "name": "fornecedor",
          "type": "address"
        },
        {
          "internalType": "enum Enumeradores.Situacao",
          "name": "situacao",
          "type": "uint8"
        },
        {
          "internalType": "uint256",
          "name": "valor",
          "type": "uint256"
        }
      ],
      "stateMutability": "view",
      "type": "function",
      "constant": true
    },
    {
      "inputs": [
        {
          "internalType": "bytes32",
          "name": "role",
          "type": "bytes32"
        }
      ],
      "name": "getRoleAdmin",
      "outputs": [
        {
          "internalType": "bytes32",
          "name": "",
          "type": "bytes32"
        }
      ],
      "stateMutability": "view",
      "type": "function",
      "constant": true
    },
    {
      "inputs": [
        {
          "internalType": "bytes32",
          "name": "role",
          "type": "bytes32"
        },
        {
          "internalType": "address",
          "name": "account",
          "type": "address"
        }
      ],
      "name": "grantRole",
      "outputs": [],
      "stateMutability": "nonpayable",
      "type": "function"
    },
    {
      "inputs": [
        {
          "internalType": "bytes32",
          "name": "role",
          "type": "bytes32"
        },
        {
          "internalType": "address",
          "name": "account",
          "type": "address"
        }
      ],
      "name": "hasRole",
      "outputs": [
        {
          "internalType": "bool",
          "name": "",
          "type": "bool"
        }
      ],
      "stateMutability": "view",
      "type": "function",
      "constant": true
    },
    {
      "inputs": [],
      "name": "moeda",
      "outputs": [
        {
          "internalType": "contract IERC20",
          "name": "",
          "type": "address"
        }
      ],
      "stateMutability": "view",
      "type": "function",
      "constant": true
    },
    {
      "inputs": [
        {
          "internalType": "address",
          "name": "_endereco",
          "type": "address"
        }
      ],
      "name": "removerPermissaoFornecedor",
      "outputs": [],
      "stateMutability": "nonpayable",
      "type": "function"
    },
    {
      "inputs": [
        {
          "internalType": "address",
          "name": "_endereco",
          "type": "address"
        }
      ],
      "name": "removerPermissaoOrgao",
      "outputs": [],
      "stateMutability": "nonpayable",
      "type": "function"
    },
    {
      "inputs": [
        {
          "internalType": "bytes32",
          "name": "role",
          "type": "bytes32"
        },
        {
          "internalType": "address",
          "name": "callerConfirmation",
          "type": "address"
        }
      ],
      "name": "renounceRole",
      "outputs": [],
      "stateMutability": "nonpayable",
      "type": "function"
    },
    {
      "inputs": [
        {
          "internalType": "bytes32",
          "name": "role",
          "type": "bytes32"
        },
        {
          "internalType": "address",
          "name": "account",
          "type": "address"
        }
      ],
      "name": "revokeRole",
      "outputs": [],
      "stateMutability": "nonpayable",
      "type": "function"
    },
    {
      "inputs": [
        {
          "internalType": "bytes4",
          "name": "interfaceId",
          "type": "bytes4"
        }
      ],
      "name": "supportsInterface",
      "outputs": [
        {
          "internalType": "bool",
          "name": "",
          "type": "bool"
        }
      ],
      "stateMutability": "view",
      "type": "function",
      "constant": true
    },
    {
      "inputs": [],
      "name": "temPermissaoFornecedor",
      "outputs": [
        {
          "internalType": "bool",
          "name": "",
          "type": "bool"
        }
      ],
      "stateMutability": "view",
      "type": "function",
      "constant": true
    },
    {
      "inputs": [],
      "name": "temPermissaoOrgao",
      "outputs": [
        {
          "internalType": "bool",
          "name": "",
          "type": "bool"
        }
      ],
      "stateMutability": "view",
      "type": "function",
      "constant": true
    },
    {
      "inputs": [],
      "name": "setValorArrecadado",
      "outputs": [],
      "stateMutability": "nonpayable",
      "type": "function"
    },
    {
      "inputs": [
        {
          "internalType": "enum Enumeradores.TipoOrgao",
          "name": "_tipo",
          "type": "uint8"
        },
        {
          "internalType": "address",
          "name": "_novoContrato",
          "type": "address"
        }
      ],
      "name": "setContrato",
      "outputs": [],
      "stateMutability": "nonpayable",
      "type": "function"
    },
    {
      "inputs": [],
      "name": "buscarSaldo",
      "outputs": [
        {
          "internalType": "uint256",
          "name": "",
          "type": "uint256"
        }
      ],
      "stateMutability": "view",
      "type": "function",
      "constant": true
    },
    {
      "inputs": [
        {
          "internalType": "uint256",
          "name": "_valor",
          "type": "uint256"
        },
        {
          "internalType": "enum Enumeradores.TipoOrgao",
          "name": "_tipoOrgao",
          "type": "uint8"
        },
        {
          "internalType": "string",
          "name": "_justificativa",
          "type": "string"
        }
      ],
      "name": "distribuir",
      "outputs": [],
      "stateMutability": "nonpayable",
      "type": "function"
    },
    {
      "inputs": [
        {
          "internalType": "uint256",
          "name": "_valor",
          "type": "uint256"
        },
        {
          "internalType": "address",
          "name": "_fornecedor",
          "type": "address"
        },
        {
          "internalType": "string",
          "name": "_justificativa",
          "type": "string"
        }
      ],
      "name": "registrar",
      "outputs": [],
      "stateMutability": "nonpayable",
      "type": "function"
    },
    {
      "inputs": [
        {
          "internalType": "uint256",
          "name": "_id",
          "type": "uint256"
        }
      ],
      "name": "confirmarEntrega",
      "outputs": [],
      "stateMutability": "nonpayable",
      "type": "function"
    },
    {
      "inputs": [
        {
          "internalType": "uint256",
          "name": "_id",
          "type": "uint256"
        }
      ],
      "name": "confirmarRecebimento",
      "outputs": [],
      "stateMutability": "nonpayable",
      "type": "function"
    }
  ],
  "bytecode": "0x60806040526040518060a00160405280600f81526020015f81526020015f81526020015f81526020015f81525060075f820151815f01556020820151816001015560408201518160020155606082015181600301556080820151816004015550506001600f5534801562000071575f80fd5b50604051620035fe380380620035fe833981810160405281019062000097919062000336565b620000ab5f801b336200016c60201b60201c565b5060016005819055505f73ffffffffffffffffffffffffffffffffffffffff168173ffffffffffffffffffffffffffffffffffffffff160362000125576040517f08c379a00000000000000000000000000000000000000000000000000000000081526004016200011c90620003c4565b60405180910390fd5b8060065f6101000a81548173ffffffffffffffffffffffffffffffffffffffff021916908373ffffffffffffffffffffffffffffffffffffffff16021790555050620003e4565b5f6200017f83836200026760201b60201c565b6200025d5760015f808581526020019081526020015f205f015f8473ffffffffffffffffffffffffffffffffffffffff1673ffffffffffffffffffffffffffffffffffffffff1681526020019081526020015f205f6101000a81548160ff021916908315150217905550620001f9620002ca60201b60201c565b73ffffffffffffffffffffffffffffffffffffffff168273ffffffffffffffffffffffffffffffffffffffff16847f2f8788117e7eff1d82e926ec794901d17c78024a50270940304540a733656f0d60405160405180910390a46001905062000261565b5f90505b92915050565b5f805f8481526020019081526020015f205f015f8373ffffffffffffffffffffffffffffffffffffffff1673ffffffffffffffffffffffffffffffffffffffff1681526020019081526020015f205f9054906101000a900460ff16905092915050565b5f33905090565b5f80fd5b5f73ffffffffffffffffffffffffffffffffffffffff82169050919050565b5f6200030082620002d5565b9050919050565b6200031281620002f4565b81146200031d575f80fd5b50565b5f81519050620003308162000307565b92915050565b5f602082840312156200034e576200034d620002d1565b5b5f6200035d8482850162000320565b91505092915050565b5f82825260208201905092915050565b7f4d6f65646120696e76616c6964610000000000000000000000000000000000005f82015250565b5f620003ac600e8362000366565b9150620003b98262000376565b602082019050919050565b5f6020820190508181035f830152620003dd816200039e565b9050919050565b61320c80620003f25f395ff3fe608060405234801561000f575f80fd5b50600436106101c2575f3560e01c8063746d2ea8116100f7578063a0960d9611610095578063d547741f1161006f578063d547741f146104be578063e1a01e67146104da578063eea4be16146104f9578063eea7f82414610517576101c2565b8063a0960d9614610464578063a217fddf14610482578063c66b20ca146104a0576101c2565b80638bc4d831116100d15780638bc4d831146103d857806391d14854146103fa578063977361311461042a5780639f2dafc214610446576101c2565b8063746d2ea81461036c57806380151dd314610388578063812af9b7146103a4576101c2565b80632f2ff15d116101645780635db8607d1161013e5780635db8607d1461030c578063640e0f6a1461032857806365b174f5146103325780636d8696d714610350576101c2565b80632f2ff15d146102b657806336568abe146102d25780634b156e92146102ee576101c2565b806322cf1745116101a057806322cf174514610232578063248a9ca31461024e5780632553ac251461027e5780632e5a29e91461029a576101c2565b806301ffc9a7146101c65780630687bdf8146101f65780630d046a1514610214575b5f80fd5b6101e060048036038101906101db919061245c565b610533565b6040516101ed91906124a1565b60405180910390f35b6101fe6105ac565b60405161020b91906125a1565b60405180910390f35b61021c6105bd565b60405161022991906125d9565b60405180910390f35b61024c60048036038101906102479190612784565b6105e1565b005b6102686004803603810190610263919061281a565b6109b9565b60405161027591906125d9565b60405180910390f35b61029860048036038101906102939190612845565b6109d5565b005b6102b460048036038101906102af919061289a565b610cc0565b005b6102d060048036038101906102cb91906128c5565b610daf565b005b6102ec60048036038101906102e791906128c5565b610dd1565b005b6102f6610e4c565b604051610303919061295e565b60405180910390f35b6103266004803603810190610321919061289a565b610e71565b005b610330610f61565b005b61033a610f81565b60405161034791906125d9565b60405180910390f35b61036a6004803603810190610365919061289a565b610fa5565b005b61038660048036038101906103819190612977565b611095565b005b6103a2600480360381019061039d919061289a565b61133d565b005b6103be60048036038101906103b99190612845565b61142c565b6040516103cf959493929190612a74565b60405180910390f35b6103e06114a9565b6040516103f1959493929190612ac5565b60405180910390f35b610414600480360381019061040f91906128c5565b6114cc565b60405161042191906124a1565b60405180910390f35b610444600480360381019061043f9190612b16565b61152f565b005b61044e6118d1565b60405161045b91906124a1565b60405180910390f35b61046c611901565b6040516104799190612b54565b60405180910390f35b61048a6119a0565b60405161049791906125d9565b60405180910390f35b6104a86119a6565b6040516104b591906125a1565b60405180910390f35b6104d860048036038101906104d391906128c5565b6119b7565b005b6104e26119d9565b6040516104f0929190612b6d565b60405180910390f35b610501611a28565b60405161050e91906124a1565b60405180910390f35b610531600480360381019061052c9190612845565b611a58565b005b5f7f7965db0b000000000000000000000000000000000000000000000000000000007bffffffffffffffffffffffffffffffffffffffffffffffffffffffff1916827bffffffffffffffffffffffffffffffffffffffffffffffffffffffff191614806105a557506105a482611d43565b5b9050919050565b60606105b86001611dac565b905090565b7f4c9be3f07a6d4b8d9a30ee174f3013f5828af8f3e9648a5e6a243775be68c5b781565b6105e9611dcb565b7f7fb24e16434340412711790bec5b70aba75544e6dad82e36dafb84a8da78b81d61061381611e11565b826001600281111561062857610627612a01565b5b81600281111561063b5761063a612a01565b5b148061066a575060028081111561065557610654612a01565b5b81600281111561066857610667612a01565b5b145b6106a9576040517f08c379a00000000000000000000000000000000000000000000000000000000081526004016106a090612bee565b60405180910390fd5b845f81116106ec576040517f08c379a00000000000000000000000000000000000000000000000000000000081526004016106e390612c56565b60405180910390fd5b5f6106f5611901565b90508681101561073a576040517f08c379a000000000000000000000000000000000000000000000000000000000815260040161073190612cbe565b60405180910390fd5b5f6001600281111561074f5761074e612a01565b5b87600281111561076257610761612a01565b5b03610823575f73ffffffffffffffffffffffffffffffffffffffff16600c5f015f9054906101000a900473ffffffffffffffffffffffffffffffffffffffff1673ffffffffffffffffffffffffffffffffffffffff16036107f8576040517f08c379a00000000000000000000000000000000000000000000000000000000081526004016107ef90612d26565b60405180910390fd5b600c5f015f9054906101000a900473ffffffffffffffffffffffffffffffffffffffff1690506108dd565b5f73ffffffffffffffffffffffffffffffffffffffff16600c6001015f9054906101000a900473ffffffffffffffffffffffffffffffffffffffff1673ffffffffffffffffffffffffffffffffffffffff16036108b5576040517f08c379a00000000000000000000000000000000000000000000000000000000081526004016108ac90612d26565b60405180910390fd5b600c6001015f9054906101000a900473ffffffffffffffffffffffffffffffffffffffff1690505b8760076004015f8282546108f19190612d71565b92505081905550610944818960065f9054906101000a900473ffffffffffffffffffffffffffffffffffffffff1673ffffffffffffffffffffffffffffffffffffffff16611e259092919063ffffffff16565b86600281111561095757610956612a01565b5b3373ffffffffffffffffffffffffffffffffffffffff167f11495292f82b4f1b747b8e38926a2862fb6f08818d3b3047ba581cbdaecf85108a8960405161099f929190612e0e565b60405180910390a350505050506109b4611ea4565b505050565b5f805f8381526020019081526020015f20600101549050919050565b7f7fb24e16434340412711790bec5b70aba75544e6dad82e36dafb84a8da78b81d6109ff81611e11565b5f600e5f8481526020019081526020015f209050600380811115610a2657610a25612a01565b5b8160020160149054906101000a900460ff166003811115610a4a57610a49612a01565b5b14158015610a8e575060026003811115610a6757610a66612a01565b5b8160020160149054906101000a900460ff166003811115610a8b57610a8a612a01565b5b14155b610acd576040517f08c379a0000000000000000000000000000000000000000000000000000000008152600401610ac490612e86565b60405180910390fd5b5f6003811115610ae057610adf612a01565b5b8160020160149054906101000a900460ff166003811115610b0457610b03612a01565b5b03610b375760028160020160146101000a81548160ff02191690836003811115610b3157610b30612a01565b5b02179055505b60016003811115610b4b57610b4a612a01565b5b8160020160149054906101000a900460ff166003811115610b6f57610b6e612a01565b5b03610c605760026003811115610b8857610b87612a01565b5b7f2d32ded8381560c010722f0fc669abbcb995f8e9bb7ed54365d5d0046936f7a184604051610bb79190612b54565b60405180910390a260038160020160146101000a81548160ff02191690836003811115610be757610be6612a01565b5b0217905550610c5f816002015f9054906101000a900473ffffffffffffffffffffffffffffffffffffffff16826003015460065f9054906101000a900473ffffffffffffffffffffffffffffffffffffffff1673ffffffffffffffffffffffffffffffffffffffff16611e259092919063ffffffff16565b5b8060020160149054906101000a900460ff166003811115610c8457610c83612a01565b5b7f2d32ded8381560c010722f0fc669abbcb995f8e9bb7ed54365d5d0046936f7a184604051610cb39190612b54565b60405180910390a2505050565b5f801b610ccc81611e11565b610cf67f7fb24e16434340412711790bec5b70aba75544e6dad82e36dafb84a8da78b81d836114cc565b610cfe575f80fd5b610d287f7fb24e16434340412711790bec5b70aba75544e6dad82e36dafb84a8da78b81d83611eae565b50610d3d826001611f9790919063ffffffff16565b505f6001811115610d5157610d50612a01565b5b8273ffffffffffffffffffffffffffffffffffffffff163373ffffffffffffffffffffffffffffffffffffffff167fddee724a4d97aa985390f461368ffb80d643d929b22fff5fec040204ff91f60960405160405180910390a45050565b610db8826109b9565b610dc181611e11565b610dcb8383611fc4565b50505050565b610dd96120ad565b73ffffffffffffffffffffffffffffffffffffffff168173ffffffffffffffffffffffffffffffffffffffff1614610e3d576040517f6697b23200000000000000000000000000000000000000000000000000000000815260040160405180910390fd5b610e478282611eae565b505050565b60065f9054906101000a900473ffffffffffffffffffffffffffffffffffffffff1681565b5f801b610e7d81611e11565b610ea77f4c9be3f07a6d4b8d9a30ee174f3013f5828af8f3e9648a5e6a243775be68c5b7836114cc565b15610eb0575f80fd5b610eda7f4c9be3f07a6d4b8d9a30ee174f3013f5828af8f3e9648a5e6a243775be68c5b783611fc4565b50610eef8260036120b490919063ffffffff16565b50600180811115610f0357610f02612a01565b5b8273ffffffffffffffffffffffffffffffffffffffff163373ffffffffffffffffffffffffffffffffffffffff167ffa2b6604fab9b4b77a2762bb3466182df167672dc2747e0eab4077be17782f2e60405160405180910390a45050565b5f801b610f6d81611e11565b610f75611901565b60076003018190555050565b7f7fb24e16434340412711790bec5b70aba75544e6dad82e36dafb84a8da78b81d81565b5f801b610fb181611e11565b610fdb7f7fb24e16434340412711790bec5b70aba75544e6dad82e36dafb84a8da78b81d836114cc565b15610fe4575f80fd5b61100e7f7fb24e16434340412711790bec5b70aba75544e6dad82e36dafb84a8da78b81d83611fc4565b506110238260016120b490919063ffffffff16565b505f600181111561103757611036612a01565b5b8273ffffffffffffffffffffffffffffffffffffffff163373ffffffffffffffffffffffffffffffffffffffff167ffa2b6604fab9b4b77a2762bb3466182df167672dc2747e0eab4077be17782f2e60405160405180910390a45050565b61109d611dcb565b7f7fb24e16434340412711790bec5b70aba75544e6dad82e36dafb84a8da78b81d6110c781611e11565b835f811161110a576040517f08c379a000000000000000000000000000000000000000000000000000000000815260040161110190612c56565b60405180910390fd5b5f611113611901565b905085811015611158576040517f08c379a000000000000000000000000000000000000000000000000000000000815260040161114f90612cbe565b60405180910390fd5b5f600f5f81548092919061116b90612ea4565b9190505590506040518060a001604052808281526020013373ffffffffffffffffffffffffffffffffffffffff1681526020018773ffffffffffffffffffffffffffffffffffffffff1681526020015f60038111156111cd576111cc612a01565b5b815260200188815250600e5f8381526020019081526020015f205f820151815f01556020820151816001015f6101000a81548173ffffffffffffffffffffffffffffffffffffffff021916908373ffffffffffffffffffffffffffffffffffffffff1602179055506040820151816002015f6101000a81548173ffffffffffffffffffffffffffffffffffffffff021916908373ffffffffffffffffffffffffffffffffffffffff16021790555060608201518160020160146101000a81548160ff021916908360038111156112a6576112a5612a01565b5b0217905550608082015181600301559050506112c1876120e1565b8573ffffffffffffffffffffffffffffffffffffffff163373ffffffffffffffffffffffffffffffffffffffff167fad622baa2fa07669e59116fea9998523a9ee8fa6f68b9040406f1bb7fcadd12a838a5f8a6040516113249493929190612eeb565b60405180910390a350505050611338611ea4565b505050565b5f801b61134981611e11565b6113737f4c9be3f07a6d4b8d9a30ee174f3013f5828af8f3e9648a5e6a243775be68c5b7836114cc565b61137b575f80fd5b6113a57f4c9be3f07a6d4b8d9a30ee174f3013f5828af8f3e9648a5e6a243775be68c5b783611eae565b506113ba826003611f9790919063ffffffff16565b506001808111156113ce576113cd612a01565b5b8273ffffffffffffffffffffffffffffffffffffffff163373ffffffffffffffffffffffffffffffffffffffff167fddee724a4d97aa985390f461368ffb80d643d929b22fff5fec040204ff91f60960405160405180910390a45050565b600e602052805f5260405f205f91509050805f015490806001015f9054906101000a900473ffffffffffffffffffffffffffffffffffffffff1690806002015f9054906101000a900473ffffffffffffffffffffffffffffffffffffffff16908060020160149054906101000a900460ff16908060030154905085565b6007805f0154908060010154908060020154908060030154908060040154905085565b5f805f8481526020019081526020015f205f015f8373ffffffffffffffffffffffffffffffffffffffff1673ffffffffffffffffffffffffffffffffffffffff1681526020019081526020015f205f9054906101000a900460ff16905092915050565b5f801b61153b81611e11565b82600160028111156115505761154f612a01565b5b81600281111561156357611562612a01565b5b1480611592575060028081111561157d5761157c612a01565b5b8160028111156115905761158f612a01565b5b145b6115d1576040517f08c379a00000000000000000000000000000000000000000000000000000000081526004016115c890612bee565b60405180910390fd5b5f73ffffffffffffffffffffffffffffffffffffffff168373ffffffffffffffffffffffffffffffffffffffff160361163f576040517f08c379a000000000000000000000000000000000000000000000000000000000815260040161163690612f7f565b60405180910390fd5b5f6001600281111561165457611653612a01565b5b85600281111561166757611666612a01565b5b0361176a578373ffffffffffffffffffffffffffffffffffffffff16600c5f015f9054906101000a900473ffffffffffffffffffffffffffffffffffffffff1673ffffffffffffffffffffffffffffffffffffffff16036116fd576040517f08c379a00000000000000000000000000000000000000000000000000000000081526004016116f490612fe7565b60405180910390fd5b600c5f015f9054906101000a900473ffffffffffffffffffffffffffffffffffffffff16905083600c5f015f6101000a81548173ffffffffffffffffffffffffffffffffffffffff021916908373ffffffffffffffffffffffffffffffffffffffff160217905550611867565b8373ffffffffffffffffffffffffffffffffffffffff16600c6001015f9054906101000a900473ffffffffffffffffffffffffffffffffffffffff1673ffffffffffffffffffffffffffffffffffffffff16036117fc576040517f08c379a00000000000000000000000000000000000000000000000000000000081526004016117f390612fe7565b60405180910390fd5b600c6001015f9054906101000a900473ffffffffffffffffffffffffffffffffffffffff16905083600c6001015f6101000a81548173ffffffffffffffffffffffffffffffffffffffff021916908373ffffffffffffffffffffffffffffffffffffffff1602179055505b84600281111561187a57611879612a01565b5b3373ffffffffffffffffffffffffffffffffffffffff167f51f55bb8c7e9a53719b1a22e21ccc9192133fcab62f2c42a9114b82bf6ac25ad83876040516118c2929190612b6d565b60405180910390a35050505050565b5f6118fc7f4c9be3f07a6d4b8d9a30ee174f3013f5828af8f3e9648a5e6a243775be68c5b7336114cc565b905090565b5f60065f9054906101000a900473ffffffffffffffffffffffffffffffffffffffff1673ffffffffffffffffffffffffffffffffffffffff166370a08231306040518263ffffffff1660e01b815260040161195c9190613005565b602060405180830381865afa158015611977573d5f803e3d5ffd5b505050506040513d601f19601f8201168201806040525081019061199b9190613032565b905090565b5f801b81565b60606119b26003611dac565b905090565b6119c0826109b9565b6119c981611e11565b6119d38383611eae565b50505050565b600c805f015f9054906101000a900473ffffffffffffffffffffffffffffffffffffffff1690806001015f9054906101000a900473ffffffffffffffffffffffffffffffffffffffff16905082565b5f611a537f7fb24e16434340412711790bec5b70aba75544e6dad82e36dafb84a8da78b81d336114cc565b905090565b7f4c9be3f07a6d4b8d9a30ee174f3013f5828af8f3e9648a5e6a243775be68c5b7611a8281611e11565b5f600e5f8481526020019081526020015f209050600380811115611aa957611aa8612a01565b5b8160020160149054906101000a900460ff166003811115611acd57611acc612a01565b5b14158015611b11575060016003811115611aea57611ae9612a01565b5b8160020160149054906101000a900460ff166003811115611b0e57611b0d612a01565b5b14155b611b50576040517f08c379a0000000000000000000000000000000000000000000000000000000008152600401611b4790612e86565b60405180910390fd5b5f6003811115611b6357611b62612a01565b5b8160020160149054906101000a900460ff166003811115611b8757611b86612a01565b5b03611bba5760018160020160146101000a81548160ff02191690836003811115611bb457611bb3612a01565b5b02179055505b60026003811115611bce57611bcd612a01565b5b8160020160149054906101000a900460ff166003811115611bf257611bf1612a01565b5b03611ce35760016003811115611c0b57611c0a612a01565b5b7f2d32ded8381560c010722f0fc669abbcb995f8e9bb7ed54365d5d0046936f7a184604051611c3a9190612b54565b60405180910390a260038160020160146101000a81548160ff02191690836003811115611c6a57611c69612a01565b5b0217905550611ce2816002015f9054906101000a900473ffffffffffffffffffffffffffffffffffffffff16826003015460065f9054906101000a900473ffffffffffffffffffffffffffffffffffffffff1673ffffffffffffffffffffffffffffffffffffffff16611e259092919063ffffffff16565b5b8060020160149054906101000a900460ff166003811115611d0757611d06612a01565b5b7f2d32ded8381560c010722f0fc669abbcb995f8e9bb7ed54365d5d0046936f7a184604051611d369190612b54565b60405180910390a2505050565b5f7f01ffc9a7000000000000000000000000000000000000000000000000000000007bffffffffffffffffffffffffffffffffffffffffffffffffffffffff1916827bffffffffffffffffffffffffffffffffffffffffffffffffffffffff1916149050919050565b60605f611dba835f0161212e565b905060608190508092505050919050565b600260055403611e07576040517f3ee5aeb500000000000000000000000000000000000000000000000000000000815260040160405180910390fd5b6002600581905550565b611e2281611e1d6120ad565b612187565b50565b611e9f838473ffffffffffffffffffffffffffffffffffffffff1663a9059cbb8585604051602401611e5892919061305d565b604051602081830303815290604052915060e01b6020820180517bffffffffffffffffffffffffffffffffffffffffffffffffffffffff83818316178352505050506121d8565b505050565b6001600581905550565b5f611eb983836114cc565b15611f8d575f805f8581526020019081526020015f205f015f8473ffffffffffffffffffffffffffffffffffffffff1673ffffffffffffffffffffffffffffffffffffffff1681526020019081526020015f205f6101000a81548160ff021916908315150217905550611f2a6120ad565b73ffffffffffffffffffffffffffffffffffffffff168273ffffffffffffffffffffffffffffffffffffffff16847ff6391f5c32d9c69d2a47ea670b442974b53935d1edc7fd64eb21e047a839171b60405160405180910390a460019050611f91565b5f90505b92915050565b5f611fbc835f018373ffffffffffffffffffffffffffffffffffffffff165f1b612273565b905092915050565b5f611fcf83836114cc565b6120a35760015f808581526020019081526020015f205f015f8473ffffffffffffffffffffffffffffffffffffffff1673ffffffffffffffffffffffffffffffffffffffff1681526020019081526020015f205f6101000a81548160ff0219169083151502179055506120406120ad565b73ffffffffffffffffffffffffffffffffffffffff168273ffffffffffffffffffffffffffffffffffffffff16847f2f8788117e7eff1d82e926ec794901d17c78024a50270940304540a733656f0d60405160405180910390a4600190506120a7565b5f90505b92915050565b5f33905090565b5f6120d9835f018373ffffffffffffffffffffffffffffffffffffffff165f1b61236f565b905092915050565b5f816007600201546120f39190612d71565b90505f6007600301546064836121099190613084565b61211391906130f2565b90508160076002018190555080600760010181905550505050565b6060815f0180548060200260200160405190810160405280929190818152602001828054801561217b57602002820191905f5260205f20905b815481526020019060010190808311612167575b50505050509050919050565b61219182826114cc565b6121d45780826040517fe2517d3f0000000000000000000000000000000000000000000000000000000081526004016121cb929190613122565b60405180910390fd5b5050565b5f8060205f8451602086015f885af1806121f7576040513d5f823e3d81fd5b3d92505f519150505f821461221057600181141561222b565b5f8473ffffffffffffffffffffffffffffffffffffffff163b145b1561226d57836040517f5274afe70000000000000000000000000000000000000000000000000000000081526004016122649190613005565b60405180910390fd5b50505050565b5f80836001015f8481526020019081526020015f205490505f8114612364575f6001826122a09190613149565b90505f6001865f01805490506122b69190613149565b905080821461231c575f865f0182815481106122d5576122d461317c565b5b905f5260205f200154905080875f0184815481106122f6576122f561317c565b5b905f5260205f20018190555083876001015f8381526020019081526020015f2081905550505b855f0180548061232f5761232e6131a9565b5b600190038181905f5260205f20015f90559055856001015f8681526020019081526020015f205f905560019350505050612369565b5f9150505b92915050565b5f61237a83836123d6565b6123cc57825f0182908060018154018082558091505060019003905f5260205f20015f9091909190915055825f0180549050836001015f8481526020019081526020015f2081905550600190506123d0565b5f90505b92915050565b5f80836001015f8481526020019081526020015f20541415905092915050565b5f604051905090565b5f80fd5b5f80fd5b5f7fffffffff0000000000000000000000000000000000000000000000000000000082169050919050565b61243b81612407565b8114612445575f80fd5b50565b5f8135905061245681612432565b92915050565b5f60208284031215612471576124706123ff565b5b5f61247e84828501612448565b91505092915050565b5f8115159050919050565b61249b81612487565b82525050565b5f6020820190506124b45f830184612492565b92915050565b5f81519050919050565b5f82825260208201905092915050565b5f819050602082019050919050565b5f73ffffffffffffffffffffffffffffffffffffffff82169050919050565b5f61250c826124e3565b9050919050565b61251c81612502565b82525050565b5f61252d8383612513565b60208301905092915050565b5f602082019050919050565b5f61254f826124ba565b61255981856124c4565b9350612564836124d4565b805f5b8381101561259457815161257b8882612522565b975061258683612539565b925050600181019050612567565b5085935050505092915050565b5f6020820190508181035f8301526125b98184612545565b905092915050565b5f819050919050565b6125d3816125c1565b82525050565b5f6020820190506125ec5f8301846125ca565b92915050565b5f819050919050565b612604816125f2565b811461260e575f80fd5b50565b5f8135905061261f816125fb565b92915050565b60038110612631575f80fd5b50565b5f8135905061264281612625565b92915050565b5f80fd5b5f80fd5b5f601f19601f8301169050919050565b7f4e487b71000000000000000000000000000000000000000000000000000000005f52604160045260245ffd5b61269682612650565b810181811067ffffffffffffffff821117156126b5576126b4612660565b5b80604052505050565b5f6126c76123f6565b90506126d3828261268d565b919050565b5f67ffffffffffffffff8211156126f2576126f1612660565b5b6126fb82612650565b9050602081019050919050565b828183375f83830152505050565b5f612728612723846126d8565b6126be565b9050828152602081018484840111156127445761274361264c565b5b61274f848285612708565b509392505050565b5f82601f83011261276b5761276a612648565b5b813561277b848260208601612716565b91505092915050565b5f805f6060848603121561279b5761279a6123ff565b5b5f6127a886828701612611565b93505060206127b986828701612634565b925050604084013567ffffffffffffffff8111156127da576127d9612403565b5b6127e686828701612757565b9150509250925092565b6127f9816125c1565b8114612803575f80fd5b50565b5f81359050612814816127f0565b92915050565b5f6020828403121561282f5761282e6123ff565b5b5f61283c84828501612806565b91505092915050565b5f6020828403121561285a576128596123ff565b5b5f61286784828501612611565b91505092915050565b61287981612502565b8114612883575f80fd5b50565b5f8135905061289481612870565b92915050565b5f602082840312156128af576128ae6123ff565b5b5f6128bc84828501612886565b91505092915050565b5f80604083850312156128db576128da6123ff565b5b5f6128e885828601612806565b92505060206128f985828601612886565b9150509250929050565b5f819050919050565b5f61292661292161291c846124e3565b612903565b6124e3565b9050919050565b5f6129378261290c565b9050919050565b5f6129488261292d565b9050919050565b6129588161293e565b82525050565b5f6020820190506129715f83018461294f565b92915050565b5f805f6060848603121561298e5761298d6123ff565b5b5f61299b86828701612611565b93505060206129ac86828701612886565b925050604084013567ffffffffffffffff8111156129cd576129cc612403565b5b6129d986828701612757565b9150509250925092565b6129ec816125f2565b82525050565b6129fb81612502565b82525050565b7f4e487b71000000000000000000000000000000000000000000000000000000005f52602160045260245ffd5b60048110612a3f57612a3e612a01565b5b50565b5f819050612a4f82612a2e565b919050565b5f612a5e82612a42565b9050919050565b612a6e81612a54565b82525050565b5f60a082019050612a875f8301886129e3565b612a9460208301876129f2565b612aa160408301866129f2565b612aae6060830185612a65565b612abb60808301846129e3565b9695505050505050565b5f60a082019050612ad85f8301886129e3565b612ae560208301876129e3565b612af260408301866129e3565b612aff60608301856129e3565b612b0c60808301846129e3565b9695505050505050565b5f8060408385031215612b2c57612b2b6123ff565b5b5f612b3985828601612634565b9250506020612b4a85828601612886565b9150509250929050565b5f602082019050612b675f8301846129e3565b92915050565b5f604082019050612b805f8301856129f2565b612b8d60208301846129f2565b9392505050565b5f82825260208201905092915050565b7f4f7267616f206e616f20646566696e69646f00000000000000000000000000005f82015250565b5f612bd8601283612b94565b9150612be382612ba4565b602082019050919050565b5f6020820190508181035f830152612c0581612bcc565b9050919050565b7f56616c6f72206465766520736572206d61696f722071756520300000000000005f82015250565b5f612c40601a83612b94565b9150612c4b82612c0c565b602082019050919050565b5f6020820190508181035f830152612c6d81612c34565b9050919050565b7f53616c646f20696e737566696369656e746500000000000000000000000000005f82015250565b5f612ca8601283612b94565b9150612cb382612c74565b602082019050919050565b5f6020820190508181035f830152612cd581612c9c565b9050919050565b7f436f6e747261746f2045737461646f20696e76616c69646f00000000000000005f82015250565b5f612d10601883612b94565b9150612d1b82612cdc565b602082019050919050565b5f6020820190508181035f830152612d3d81612d04565b9050919050565b7f4e487b71000000000000000000000000000000000000000000000000000000005f52601160045260245ffd5b5f612d7b826125f2565b9150612d86836125f2565b9250828201905080821115612d9e57612d9d612d44565b5b92915050565b5f81519050919050565b5f5b83811015612dcb578082015181840152602081019050612db0565b5f8484015250505050565b5f612de082612da4565b612dea8185612b94565b9350612dfa818560208601612dae565b612e0381612650565b840191505092915050565b5f604082019050612e215f8301856129e3565b8181036020830152612e338184612dd6565b90509392505050565b7f4465737065736120696e76616c696461000000000000000000000000000000005f82015250565b5f612e70601083612b94565b9150612e7b82612e3c565b602082019050919050565b5f6020820190508181035f830152612e9d81612e64565b9050919050565b5f612eae826125f2565b91507fffffffffffffffffffffffffffffffffffffffffffffffffffffffffffffffff8203612ee057612edf612d44565b5b600182019050919050565b5f608082019050612efe5f8301876129e3565b612f0b60208301866129e3565b612f186040830185612a65565b8181036060830152612f2a8184612dd6565b905095945050505050565b7f456e64657265636f20696e76616c69646f0000000000000000000000000000005f82015250565b5f612f69601183612b94565b9150612f7482612f35565b602082019050919050565b5f6020820190508181035f830152612f9681612f5d565b9050919050565b7f436f6e747261746f20656d2075736f00000000000000000000000000000000005f82015250565b5f612fd1600f83612b94565b9150612fdc82612f9d565b602082019050919050565b5f6020820190508181035f830152612ffe81612fc5565b9050919050565b5f6020820190506130185f8301846129f2565b92915050565b5f8151905061302c816125fb565b92915050565b5f60208284031215613047576130466123ff565b5b5f6130548482850161301e565b91505092915050565b5f6040820190506130705f8301856129f2565b61307d60208301846129e3565b9392505050565b5f61308e826125f2565b9150613099836125f2565b92508282026130a7816125f2565b915082820484148315176130be576130bd612d44565b5b5092915050565b7f4e487b71000000000000000000000000000000000000000000000000000000005f52601260045260245ffd5b5f6130fc826125f2565b9150613107836125f2565b925082613117576131166130c5565b5b828204905092915050565b5f6040820190506131355f8301856129f2565b61314260208301846125ca565b9392505050565b5f613153826125f2565b915061315e836125f2565b925082820390508181111561317657613175612d44565b5b92915050565b7f4e487b71000000000000000000000000000000000000000000000000000000005f52603260045260245ffd5b7f4e487b71000000000000000000000000000000000000000000000000000000005f52603160045260245ffdfea26469706673582212206a074eb6979f65a29b26a5594bd7ec3924efe3fdadffc2f167445e1231ae721c64736f6c63430008150033",
  "immutableReferences": {},
  "source": "// SPDX-License-Identifier: MIT\npragma solidity >=0.8.2 <0.9.0;\n\nimport {Permissao} from \"./utils/Permissao.sol\";\nimport {Modificadores} from \"./utils/Modificadores.sol\";\nimport {Estruturas} from \"./utils/Estruturas.sol\";\n\nimport {IERC20} from \"@openzeppelin/contracts/token/ERC20/IERC20.sol\";\nimport {SafeERC20} from \"@openzeppelin/contracts/token/ERC20/utils/SafeERC20.sol\";\nimport {ReentrancyGuard} from \"@openzeppelin/contracts/utils/ReentrancyGuard.sol\";\n\ncontract Federal is Permissao, Modificadores, Estruturas, ReentrancyGuard {\n    using SafeERC20 for IERC20;\n\n    IERC20 public moeda;\n\n    Aplicacao public aplicacao =\n        Aplicacao({\n            percentualMinimo: 15,\n            percentualAplicado: 0,\n            valorAplicado: 0,\n            valorArrecadado: 0,\n            valorDistribuido: 0\n        });\n\n    Contrato public contrato;\n\n    mapping(uint256 => Despesa) public despesas;\n    uint256 private proximaDespesaId = 1;\n\n    constructor(address _moeda) {\n        require(_moeda != address(0), \"Moeda invalida\");\n        moeda = IERC20(_moeda);\n    }\n\n    event EventoDistribuicao(\n        address indexed orgao,\n        TipoOrgao indexed destino,\n        uint valor,\n        string justificativa\n    );\n\n    // event EventoDespesa(\n    //     address indexed orgao,\n    //     uint valor,\n    //     string justificativa\n    // );\n\n    event EventoDespesa(\n        address indexed orgao,\n        address indexed fornecedor,\n        uint256 despesaId,\n        uint256 valor,\n        Situacao situacao,\n        string justificativa\n    );\n\n    event EventoSituacaoDespesa(Situacao indexed situacao, uint256 despesaId);\n\n    event EventoContrato(\n        address indexed admin,\n        TipoOrgao indexed tipoContrato,\n        address contratoAntigo,\n        address contratoNovo\n    );\n\n    function setValorArrecadado() public onlyRole(DEFAULT_ADMIN_ROLE) {\n        aplicacao.valorArrecadado = buscarSaldo();\n    }\n\n    function setContrato(\n        TipoOrgao _tipo,\n        address _novoContrato\n    ) public onlyRole(DEFAULT_ADMIN_ROLE) onlyEstadualMunicipal(_tipo) {\n        require(_novoContrato != address(0), \"Endereco invalido\");\n\n        address contratoAntigo;\n\n        if (_tipo == TipoOrgao.ESTADUAL) {\n            require(contrato.estadual != _novoContrato, \"Contrato em uso\");\n            contratoAntigo = contrato.estadual;\n            contrato.estadual = _novoContrato;\n        } else {\n            require(contrato.municipal != _novoContrato, \"Contrato em uso\");\n            contratoAntigo = contrato.municipal;\n            contrato.municipal = _novoContrato;\n        }\n\n        emit EventoContrato(msg.sender, _tipo, contratoAntigo, _novoContrato);\n    }\n\n    function buscarSaldo() public view returns (uint) {\n        return moeda.balanceOf(address(this));\n    }\n\n    function distribuir(\n        uint _valor,\n        TipoOrgao _tipoOrgao,\n        string memory _justificativa\n    )\n        public\n        nonReentrant\n        onlyRole(ORGAO_ROLE)\n        onlyEstadualMunicipal(_tipoOrgao)\n        onlyValorPositivo(_valor)\n    {\n        uint256 saldo = buscarSaldo();\n        require(saldo >= _valor, \"Saldo insuficiente\");\n\n        address destino;\n\n        if (_tipoOrgao == TipoOrgao.ESTADUAL) {\n            require(\n                contrato.estadual != address(0),\n                \"Contrato Estado invalido\"\n            );\n            destino = contrato.estadual;\n        } else {\n            require(\n                contrato.municipal != address(0),\n                \"Contrato Estado invalido\"\n            );\n            destino = contrato.municipal;\n        }\n\n        aplicacao.valorDistribuido += _valor;\n        moeda.safeTransfer(destino, _valor);\n        emit EventoDistribuicao(msg.sender, _tipoOrgao, _valor, _justificativa);\n    }\n\n    function registrar(\n        uint256 _valor,\n        address _fornecedor,\n        string memory _justificativa\n    ) public nonReentrant onlyRole(ORGAO_ROLE) onlyValorPositivo(_valor) {\n        uint256 saldo = buscarSaldo();\n        require(saldo >= _valor, \"Saldo insuficiente\");\n\n        uint256 id = proximaDespesaId++;\n\n        despesas[id] = Despesa({\n            id: id,\n            emitente: msg.sender,\n            fornecedor: _fornecedor,\n            situacao: Situacao.PENDENTE,\n            valor: _valor\n        });\n\n        calcularAplicacao(_valor);\n\n        emit EventoDespesa(\n            msg.sender,\n            _fornecedor,\n            id,\n            _valor,\n            Situacao.PENDENTE,\n            _justificativa\n        );\n    }\n\n    function calcularAplicacao(uint256 _valor) private {\n        uint256 valorTotalAplicado = aplicacao.valorAplicado + _valor;\n        uint256 percentualAplicado = (valorTotalAplicado * 100) /\n            aplicacao.valorArrecadado;\n\n        aplicacao.valorAplicado = valorTotalAplicado;\n        aplicacao.percentualAplicado = percentualAplicado;\n    }\n\n    function confirmarEntrega(uint256 _id) public onlyRole(FORNECEDOR_ROLE) {\n        Despesa storage despesa = despesas[_id];\n\n        require(\n            despesa.situacao != Situacao.FINALIZADO &&\n                despesa.situacao != Situacao.ENTREGUE,\n            \"Despesa invalida\"\n        );\n\n        if (despesa.situacao == Situacao.PENDENTE)\n            despesa.situacao = Situacao.ENTREGUE;\n\n        if (despesa.situacao == Situacao.RECEBIDO) {\n            emit EventoSituacaoDespesa(Situacao.ENTREGUE, _id);\n            despesa.situacao = Situacao.FINALIZADO;\n            moeda.safeTransfer(despesa.fornecedor, despesa.valor);\n        }\n\n        emit EventoSituacaoDespesa(despesa.situacao, _id);\n    }\n\n    function confirmarRecebimento(uint256 _id) public onlyRole(ORGAO_ROLE) {\n        Despesa storage despesa = despesas[_id];\n\n        require(\n            despesa.situacao != Situacao.FINALIZADO &&\n                despesa.situacao != Situacao.RECEBIDO,\n            \"Despesa invalida\"\n        );\n\n        if (despesa.situacao == Situacao.PENDENTE)\n            despesa.situacao = Situacao.RECEBIDO;\n\n        if (despesa.situacao == Situacao.ENTREGUE) {\n            emit EventoSituacaoDespesa(Situacao.RECEBIDO, _id);\n            despesa.situacao = Situacao.FINALIZADO;\n            moeda.safeTransfer(despesa.fornecedor, despesa.valor);\n        }\n\n        emit EventoSituacaoDespesa(despesa.situacao, _id);\n    }\n}\n",
  "sourcePath": "/home/willian_samsung/Documentos/TCC-2025/prototipo/contrato-inteligente/contracts/1_Federal.sol",
  "compiler": {
    "name": "solc",
    "version": "0.8.21+commit.d9974bed.Emscripten.clang"
  },
  "schemaVersion": "3.4.16",
  "updatedAt": "2025-09-28T18:44:03.220Z",
  "networkType": "ethereum",
  "devdoc": {
    "errors": {
      "AccessControlBadConfirmation()": [
        {
          "details": "The caller of a function is not the expected one. NOTE: Don't confuse with {AccessControlUnauthorizedAccount}."
        }
      ],
      "AccessControlUnauthorizedAccount(address,bytes32)": [
        {
          "details": "The `account` is missing a role."
        }
      ],
      "ReentrancyGuardReentrantCall()": [
        {
          "details": "Unauthorized reentrant call."
        }
      ],
      "SafeERC20FailedOperation(address)": [
        {
          "details": "An operation with an ERC-20 token failed."
        }
      ]
    },
    "events": {
      "RoleAdminChanged(bytes32,bytes32,bytes32)": {
        "details": "Emitted when `newAdminRole` is set as ``role``'s admin role, replacing `previousAdminRole` `DEFAULT_ADMIN_ROLE` is the starting admin for all roles, despite {RoleAdminChanged} not being emitted to signal this."
      },
      "RoleGranted(bytes32,address,address)": {
        "details": "Emitted when `account` is granted `role`. `sender` is the account that originated the contract call. This account bears the admin role (for the granted role). Expected in cases where the role was granted using the internal {AccessControl-_grantRole}."
      },
      "RoleRevoked(bytes32,address,address)": {
        "details": "Emitted when `account` is revoked `role`. `sender` is the account that originated the contract call:   - if using `revokeRole`, it is the admin role bearer   - if using `renounceRole`, it is the role bearer (i.e. `account`)"
      }
    },
    "kind": "dev",
    "methods": {
      "getRoleAdmin(bytes32)": {
        "details": "Returns the admin role that controls `role`. See {grantRole} and {revokeRole}. To change a role's admin, use {_setRoleAdmin}."
      },
      "grantRole(bytes32,address)": {
        "details": "Grants `role` to `account`. If `account` had not been already granted `role`, emits a {RoleGranted} event. Requirements: - the caller must have ``role``'s admin role. May emit a {RoleGranted} event."
      },
      "hasRole(bytes32,address)": {
        "details": "Returns `true` if `account` has been granted `role`."
      },
      "renounceRole(bytes32,address)": {
        "details": "Revokes `role` from the calling account. Roles are often managed via {grantRole} and {revokeRole}: this function's purpose is to provide a mechanism for accounts to lose their privileges if they are compromised (such as when a trusted device is misplaced). If the calling account had been revoked `role`, emits a {RoleRevoked} event. Requirements: - the caller must be `callerConfirmation`. May emit a {RoleRevoked} event."
      },
      "revokeRole(bytes32,address)": {
        "details": "Revokes `role` from `account`. If `account` had been granted `role`, emits a {RoleRevoked} event. Requirements: - the caller must have ``role``'s admin role. May emit a {RoleRevoked} event."
      },
      "supportsInterface(bytes4)": {
        "details": "Returns true if this contract implements the interface defined by `interfaceId`. See the corresponding https://eips.ethereum.org/EIPS/eip-165#how-interfaces-are-identified[ERC section] to learn more about how these ids are created. This function call must use less than 30 000 gas."
      }
    },
    "version": 1
  },
  "userdoc": {
    "kind": "user",
    "methods": {},
    "version": 1
  }
}