{
  "contractName": "Municipal",
  "abi": [
    {
      "inputs": [
        {
          "internalType": "address",
          "name": "_moeda",
          "type": "address"
        }
      ],
      "stateMutability": "nonpayable",
      "type": "constructor"
    },
    {
      "inputs": [],
      "name": "AccessControlBadConfirmation",
      "type": "error"
    },
    {
      "inputs": [
        {
          "internalType": "address",
          "name": "account",
          "type": "address"
        },
        {
          "internalType": "bytes32",
          "name": "neededRole",
          "type": "bytes32"
        }
      ],
      "name": "AccessControlUnauthorizedAccount",
      "type": "error"
    },
    {
      "inputs": [],
      "name": "ReentrancyGuardReentrantCall",
      "type": "error"
    },
    {
      "inputs": [
        {
          "internalType": "address",
          "name": "token",
          "type": "address"
        }
      ],
      "name": "SafeERC20FailedOperation",
      "type": "error"
    },
    {
      "anonymous": false,
      "inputs": [
        {
          "indexed": true,
          "internalType": "bytes32",
          "name": "txAnterior",
          "type": "bytes32"
        },
        {
          "indexed": true,
          "internalType": "address",
          "name": "orgao",
          "type": "address"
        },
        {
          "indexed": true,
          "internalType": "address",
          "name": "fornecedor",
          "type": "address"
        },
        {
          "indexed": false,
          "internalType": "uint256",
          "name": "despesaId",
          "type": "uint256"
        },
        {
          "indexed": false,
          "internalType": "uint256",
          "name": "valor",
          "type": "uint256"
        },
        {
          "indexed": false,
          "internalType": "enum Enumeradores.Situacao",
          "name": "situacao",
          "type": "uint8"
        },
        {
          "indexed": false,
          "internalType": "string",
          "name": "justificativa",
          "type": "string"
        }
      ],
      "name": "EventoDespesa",
      "type": "event"
    },
    {
      "anonymous": false,
      "inputs": [
        {
          "indexed": true,
          "internalType": "enum Enumeradores.Situacao",
          "name": "situacao",
          "type": "uint8"
        },
        {
          "indexed": true,
          "internalType": "uint256",
          "name": "despesaId",
          "type": "uint256"
        }
      ],
      "name": "EventoSituacaoDespesa",
      "type": "event"
    },
    {
      "anonymous": false,
      "inputs": [
        {
          "indexed": true,
          "internalType": "address",
          "name": "admin",
          "type": "address"
        },
        {
          "indexed": true,
          "internalType": "address",
          "name": "endereco",
          "type": "address"
        },
        {
          "indexed": true,
          "internalType": "enum Enumeradores.TipoPermissao",
          "name": "tipoPermissao",
          "type": "uint8"
        }
      ],
      "name": "PermissaoAdicionada",
      "type": "event"
    },
    {
      "anonymous": false,
      "inputs": [
        {
          "indexed": true,
          "internalType": "address",
          "name": "admin",
          "type": "address"
        },
        {
          "indexed": true,
          "internalType": "address",
          "name": "endereco",
          "type": "address"
        },
        {
          "indexed": true,
          "internalType": "enum Enumeradores.TipoPermissao",
          "name": "tipoPermissao",
          "type": "uint8"
        }
      ],
      "name": "PermissaoRemovida",
      "type": "event"
    },
    {
      "anonymous": false,
      "inputs": [
        {
          "indexed": true,
          "internalType": "bytes32",
          "name": "role",
          "type": "bytes32"
        },
        {
          "indexed": true,
          "internalType": "bytes32",
          "name": "previousAdminRole",
          "type": "bytes32"
        },
        {
          "indexed": true,
          "internalType": "bytes32",
          "name": "newAdminRole",
          "type": "bytes32"
        }
      ],
      "name": "RoleAdminChanged",
      "type": "event"
    },
    {
      "anonymous": false,
      "inputs": [
        {
          "indexed": true,
          "internalType": "bytes32",
          "name": "role",
          "type": "bytes32"
        },
        {
          "indexed": true,
          "internalType": "address",
          "name": "account",
          "type": "address"
        },
        {
          "indexed": true,
          "internalType": "address",
          "name": "sender",
          "type": "address"
        }
      ],
      "name": "RoleGranted",
      "type": "event"
    },
    {
      "anonymous": false,
      "inputs": [
        {
          "indexed": true,
          "internalType": "bytes32",
          "name": "role",
          "type": "bytes32"
        },
        {
          "indexed": true,
          "internalType": "address",
          "name": "account",
          "type": "address"
        },
        {
          "indexed": true,
          "internalType": "address",
          "name": "sender",
          "type": "address"
        }
      ],
      "name": "RoleRevoked",
      "type": "event"
    },
    {
      "inputs": [],
      "name": "DEFAULT_ADMIN_ROLE",
      "outputs": [
        {
          "internalType": "bytes32",
          "name": "",
          "type": "bytes32"
        }
      ],
      "stateMutability": "view",
      "type": "function",
      "constant": true
    },
    {
      "inputs": [],
      "name": "FORNECEDOR_ROLE",
      "outputs": [
        {
          "internalType": "bytes32",
          "name": "",
          "type": "bytes32"
        }
      ],
      "stateMutability": "view",
      "type": "function",
      "constant": true
    },
    {
      "inputs": [],
      "name": "ORGAO_ROLE",
      "outputs": [
        {
          "internalType": "bytes32",
          "name": "",
          "type": "bytes32"
        }
      ],
      "stateMutability": "view",
      "type": "function",
      "constant": true
    },
    {
      "inputs": [
        {
          "internalType": "address",
          "name": "_endereco",
          "type": "address"
        }
      ],
      "name": "adicionarPermissaoFornecedor",
      "outputs": [],
      "stateMutability": "nonpayable",
      "type": "function"
    },
    {
      "inputs": [
        {
          "internalType": "address",
          "name": "_endereco",
          "type": "address"
        }
      ],
      "name": "adicionarPermissaoOrgao",
      "outputs": [],
      "stateMutability": "nonpayable",
      "type": "function"
    },
    {
      "inputs": [],
      "name": "aplicacao",
      "outputs": [
        {
          "internalType": "uint256",
          "name": "percentualMinimo",
          "type": "uint256"
        },
        {
          "internalType": "uint256",
          "name": "percentualAplicado",
          "type": "uint256"
        },
        {
          "internalType": "uint256",
          "name": "valorAplicado",
          "type": "uint256"
        },
        {
          "internalType": "uint256",
          "name": "valorArrecadado",
          "type": "uint256"
        },
        {
          "internalType": "uint256",
          "name": "valorDistribuido",
          "type": "uint256"
        }
      ],
      "stateMutability": "view",
      "type": "function",
      "constant": true
    },
    {
      "inputs": [],
      "name": "buscarFornecedoresAtivos",
      "outputs": [
        {
          "internalType": "address[]",
          "name": "",
          "type": "address[]"
        }
      ],
      "stateMutability": "view",
      "type": "function",
      "constant": true
    },
    {
      "inputs": [],
      "name": "buscarOrgaosAtivos",
      "outputs": [
        {
          "internalType": "address[]",
          "name": "",
          "type": "address[]"
        }
      ],
      "stateMutability": "view",
      "type": "function",
      "constant": true
    },
    {
      "inputs": [],
      "name": "contrato",
      "outputs": [
        {
          "internalType": "address",
          "name": "estadual",
          "type": "address"
        },
        {
          "internalType": "address",
          "name": "municipal",
          "type": "address"
        }
      ],
      "stateMutability": "view",
      "type": "function",
      "constant": true
    },
    {
      "inputs": [
        {
          "internalType": "uint256",
          "name": "",
          "type": "uint256"
        }
      ],
      "name": "despesas",
      "outputs": [
        {
          "internalType": "uint256",
          "name": "id",
          "type": "uint256"
        },
        {
          "internalType": "address",
          "name": "emitente",
          "type": "address"
        },
        {
          "internalType": "address",
          "name": "fornecedor",
          "type": "address"
        },
        {
          "internalType": "enum Enumeradores.Situacao",
          "name": "situacao",
          "type": "uint8"
        },
        {
          "internalType": "uint256",
          "name": "valor",
          "type": "uint256"
        }
      ],
      "stateMutability": "view",
      "type": "function",
      "constant": true
    },
    {
      "inputs": [
        {
          "internalType": "bytes32",
          "name": "role",
          "type": "bytes32"
        }
      ],
      "name": "getRoleAdmin",
      "outputs": [
        {
          "internalType": "bytes32",
          "name": "",
          "type": "bytes32"
        }
      ],
      "stateMutability": "view",
      "type": "function",
      "constant": true
    },
    {
      "inputs": [
        {
          "internalType": "bytes32",
          "name": "role",
          "type": "bytes32"
        },
        {
          "internalType": "address",
          "name": "account",
          "type": "address"
        }
      ],
      "name": "grantRole",
      "outputs": [],
      "stateMutability": "nonpayable",
      "type": "function"
    },
    {
      "inputs": [
        {
          "internalType": "bytes32",
          "name": "role",
          "type": "bytes32"
        },
        {
          "internalType": "address",
          "name": "account",
          "type": "address"
        }
      ],
      "name": "hasRole",
      "outputs": [
        {
          "internalType": "bool",
          "name": "",
          "type": "bool"
        }
      ],
      "stateMutability": "view",
      "type": "function",
      "constant": true
    },
    {
      "inputs": [],
      "name": "moeda",
      "outputs": [
        {
          "internalType": "contract IERC20",
          "name": "",
          "type": "address"
        }
      ],
      "stateMutability": "view",
      "type": "function",
      "constant": true
    },
    {
      "inputs": [
        {
          "internalType": "address",
          "name": "_endereco",
          "type": "address"
        }
      ],
      "name": "removerPermissaoFornecedor",
      "outputs": [],
      "stateMutability": "nonpayable",
      "type": "function"
    },
    {
      "inputs": [
        {
          "internalType": "address",
          "name": "_endereco",
          "type": "address"
        }
      ],
      "name": "removerPermissaoOrgao",
      "outputs": [],
      "stateMutability": "nonpayable",
      "type": "function"
    },
    {
      "inputs": [
        {
          "internalType": "bytes32",
          "name": "role",
          "type": "bytes32"
        },
        {
          "internalType": "address",
          "name": "callerConfirmation",
          "type": "address"
        }
      ],
      "name": "renounceRole",
      "outputs": [],
      "stateMutability": "nonpayable",
      "type": "function"
    },
    {
      "inputs": [
        {
          "internalType": "bytes32",
          "name": "role",
          "type": "bytes32"
        },
        {
          "internalType": "address",
          "name": "account",
          "type": "address"
        }
      ],
      "name": "revokeRole",
      "outputs": [],
      "stateMutability": "nonpayable",
      "type": "function"
    },
    {
      "inputs": [
        {
          "internalType": "bytes4",
          "name": "interfaceId",
          "type": "bytes4"
        }
      ],
      "name": "supportsInterface",
      "outputs": [
        {
          "internalType": "bool",
          "name": "",
          "type": "bool"
        }
      ],
      "stateMutability": "view",
      "type": "function",
      "constant": true
    },
    {
      "inputs": [],
      "name": "temPermissaoFornecedor",
      "outputs": [
        {
          "internalType": "bool",
          "name": "",
          "type": "bool"
        }
      ],
      "stateMutability": "view",
      "type": "function",
      "constant": true
    },
    {
      "inputs": [],
      "name": "temPermissaoOrgao",
      "outputs": [
        {
          "internalType": "bool",
          "name": "",
          "type": "bool"
        }
      ],
      "stateMutability": "view",
      "type": "function",
      "constant": true
    },
    {
      "inputs": [],
      "name": "setValorArrecadado",
      "outputs": [],
      "stateMutability": "nonpayable",
      "type": "function"
    },
    {
      "inputs": [],
      "name": "buscarSaldo",
      "outputs": [
        {
          "internalType": "uint256",
          "name": "",
          "type": "uint256"
        }
      ],
      "stateMutability": "view",
      "type": "function",
      "constant": true
    },
    {
      "inputs": [
        {
          "internalType": "uint256",
          "name": "_valor",
          "type": "uint256"
        },
        {
          "internalType": "address",
          "name": "_fornecedor",
          "type": "address"
        },
        {
          "internalType": "string",
          "name": "_justificativa",
          "type": "string"
        },
        {
          "internalType": "bytes32",
          "name": "_txAnterior",
          "type": "bytes32"
        }
      ],
      "name": "registrar",
      "outputs": [],
      "stateMutability": "nonpayable",
      "type": "function"
    },
    {
      "inputs": [
        {
          "internalType": "uint256",
          "name": "_id",
          "type": "uint256"
        }
      ],
      "name": "confirmarEntrega",
      "outputs": [],
      "stateMutability": "nonpayable",
      "type": "function"
    },
    {
      "inputs": [
        {
          "internalType": "uint256",
          "name": "_id",
          "type": "uint256"
        }
      ],
      "name": "confirmarRecebimento",
      "outputs": [],
      "stateMutability": "nonpayable",
      "type": "function"
    }
  ],
  "bytecode": "0x60806040526040518060a00160405280600f81526020015f81526020015f81526020015f81526020015f81525060075f820151815f01556020820151816001015560408201518160020155606082015181600301556080820151816004015550506001600f5534801562000071575f80fd5b5060405162002b6938038062002b69833981810160405281019062000097919062000336565b620000ab5f801b336200016c60201b60201c565b5060016005819055505f73ffffffffffffffffffffffffffffffffffffffff168173ffffffffffffffffffffffffffffffffffffffff160362000125576040517f08c379a00000000000000000000000000000000000000000000000000000000081526004016200011c90620003c4565b60405180910390fd5b8060065f6101000a81548173ffffffffffffffffffffffffffffffffffffffff021916908373ffffffffffffffffffffffffffffffffffffffff16021790555050620003e4565b5f6200017f83836200026760201b60201c565b6200025d5760015f808581526020019081526020015f205f015f8473ffffffffffffffffffffffffffffffffffffffff1673ffffffffffffffffffffffffffffffffffffffff1681526020019081526020015f205f6101000a81548160ff021916908315150217905550620001f9620002ca60201b60201c565b73ffffffffffffffffffffffffffffffffffffffff168273ffffffffffffffffffffffffffffffffffffffff16847f2f8788117e7eff1d82e926ec794901d17c78024a50270940304540a733656f0d60405160405180910390a46001905062000261565b5f90505b92915050565b5f805f8481526020019081526020015f205f015f8373ffffffffffffffffffffffffffffffffffffffff1673ffffffffffffffffffffffffffffffffffffffff1681526020019081526020015f205f9054906101000a900460ff16905092915050565b5f33905090565b5f80fd5b5f73ffffffffffffffffffffffffffffffffffffffff82169050919050565b5f6200030082620002d5565b9050919050565b6200031281620002f4565b81146200031d575f80fd5b50565b5f81519050620003308162000307565b92915050565b5f602082840312156200034e576200034d620002d1565b5b5f6200035d8482850162000320565b91505092915050565b5f82825260208201905092915050565b7f4d6f65646120696e76616c6964610000000000000000000000000000000000005f82015250565b5f620003ac600e8362000366565b9150620003b98262000376565b602082019050919050565b5f6020820190508181035f830152620003dd816200039e565b9050919050565b61277780620003f25f395ff3fe608060405234801561000f575f80fd5b506004361061018c575f3560e01c806380151dd3116100dc578063a217fddf11610095578063d547741f1161006f578063d547741f14610450578063e1a01e671461046c578063eea4be161461048b578063eea7f824146104a95761018c565b8063a217fddf146103f8578063be8f566c14610416578063c66b20ca146104325761018c565b806380151dd31461031a578063812af9b7146103365780638bc4d8311461036a57806391d148541461038c5780639f2dafc2146103bc578063a0960d96146103da5761018c565b80632f2ff15d116101495780635db8607d116101235780635db8607d146102ba578063640e0f6a146102d657806365b174f5146102e05780636d8696d7146102fe5761018c565b80632f2ff15d1461026457806336568abe146102805780634b156e921461029c5761018c565b806301ffc9a7146101905780630687bdf8146101c05780630d046a15146101de578063248a9ca3146101fc5780632553ac251461022c5780632e5a29e914610248575b5f80fd5b6101aa60048036038101906101a59190611c4e565b6104c5565b6040516101b79190611c93565b60405180910390f35b6101c861053e565b6040516101d59190611d93565b60405180910390f35b6101e661054f565b6040516101f39190611dcb565b60405180910390f35b61021660048036038101906102119190611e0e565b610573565b6040516102239190611dcb565b60405180910390f35b61024660048036038101906102419190611e6c565b61058f565b005b610262600480360381019061025d9190611ec1565b610866565b005b61027e60048036038101906102799190611eec565b610955565b005b61029a60048036038101906102959190611eec565b610977565b005b6102a46109f2565b6040516102b19190611f85565b60405180910390f35b6102d460048036038101906102cf9190611ec1565b610a17565b005b6102de610b07565b005b6102e8610b27565b6040516102f59190611dcb565b60405180910390f35b61031860048036038101906103139190611ec1565b610b4b565b005b610334600480360381019061032f9190611ec1565b610c3b565b005b610350600480360381019061034b9190611e6c565b610d2a565b60405161036195949392919061202f565b60405180910390f35b610372610da7565b604051610383959493929190612080565b60405180910390f35b6103a660048036038101906103a19190611eec565b610dca565b6040516103b39190611c93565b60405180910390f35b6103c4610e2d565b6040516103d19190611c93565b60405180910390f35b6103e2610e5d565b6040516103ef91906120d1565b60405180910390f35b610400610efc565b60405161040d9190611dcb565b60405180910390f35b610430600480360381019061042b9190612226565b610f02565b005b61043a6111ac565b6040516104479190611d93565b60405180910390f35b61046a60048036038101906104659190611eec565b6111bd565b005b6104746111df565b6040516104829291906122a6565b60405180910390f35b61049361122e565b6040516104a09190611c93565b60405180910390f35b6104c360048036038101906104be9190611e6c565b61125e565b005b5f7f7965db0b000000000000000000000000000000000000000000000000000000007bffffffffffffffffffffffffffffffffffffffffffffffffffffffff1916827bffffffffffffffffffffffffffffffffffffffffffffffffffffffff19161480610537575061053682611535565b5b9050919050565b606061054a600161159e565b905090565b7f4c9be3f07a6d4b8d9a30ee174f3013f5828af8f3e9648a5e6a243775be68c5b781565b5f805f8381526020019081526020015f20600101549050919050565b7f7fb24e16434340412711790bec5b70aba75544e6dad82e36dafb84a8da78b81d6105b9816115bd565b5f600e5f8481526020019081526020015f2090506003808111156105e0576105df611fbc565b5b8160020160149054906101000a900460ff16600381111561060457610603611fbc565b5b1415801561064857506002600381111561062157610620611fbc565b5b8160020160149054906101000a900460ff16600381111561064557610644611fbc565b5b14155b610687576040517f08c379a000000000000000000000000000000000000000000000000000000000815260040161067e90612327565b60405180910390fd5b5f600381111561069a57610699611fbc565b5b8160020160149054906101000a900460ff1660038111156106be576106bd611fbc565b5b036106f15760028160020160146101000a81548160ff021916908360038111156106eb576106ea611fbc565b5b02179055505b6001600381111561070557610704611fbc565b5b8160020160149054906101000a900460ff16600381111561072957610728611fbc565b5b0361081057826002600381111561074357610742611fbc565b5b7f2d32ded8381560c010722f0fc669abbcb995f8e9bb7ed54365d5d0046936f7a160405160405180910390a360038160020160146101000a81548160ff0219169083600381111561079757610796611fbc565b5b021790555061080f816002015f9054906101000a900473ffffffffffffffffffffffffffffffffffffffff16826003015460065f9054906101000a900473ffffffffffffffffffffffffffffffffffffffff1673ffffffffffffffffffffffffffffffffffffffff166115d19092919063ffffffff16565b5b828160020160149054906101000a900460ff16600381111561083557610834611fbc565b5b7f2d32ded8381560c010722f0fc669abbcb995f8e9bb7ed54365d5d0046936f7a160405160405180910390a3505050565b5f801b610872816115bd565b61089c7f7fb24e16434340412711790bec5b70aba75544e6dad82e36dafb84a8da78b81d83610dca565b6108a4575f80fd5b6108ce7f7fb24e16434340412711790bec5b70aba75544e6dad82e36dafb84a8da78b81d83611650565b506108e382600161173990919063ffffffff16565b505f60018111156108f7576108f6611fbc565b5b8273ffffffffffffffffffffffffffffffffffffffff163373ffffffffffffffffffffffffffffffffffffffff167fddee724a4d97aa985390f461368ffb80d643d929b22fff5fec040204ff91f60960405160405180910390a45050565b61095e82610573565b610967816115bd565b6109718383611766565b50505050565b61097f61184f565b73ffffffffffffffffffffffffffffffffffffffff168173ffffffffffffffffffffffffffffffffffffffff16146109e3576040517f6697b23200000000000000000000000000000000000000000000000000000000815260040160405180910390fd5b6109ed8282611650565b505050565b60065f9054906101000a900473ffffffffffffffffffffffffffffffffffffffff1681565b5f801b610a23816115bd565b610a4d7f4c9be3f07a6d4b8d9a30ee174f3013f5828af8f3e9648a5e6a243775be68c5b783610dca565b15610a56575f80fd5b610a807f4c9be3f07a6d4b8d9a30ee174f3013f5828af8f3e9648a5e6a243775be68c5b783611766565b50610a9582600361185690919063ffffffff16565b50600180811115610aa957610aa8611fbc565b5b8273ffffffffffffffffffffffffffffffffffffffff163373ffffffffffffffffffffffffffffffffffffffff167ffa2b6604fab9b4b77a2762bb3466182df167672dc2747e0eab4077be17782f2e60405160405180910390a45050565b5f801b610b13816115bd565b610b1b610e5d565b60076003018190555050565b7f7fb24e16434340412711790bec5b70aba75544e6dad82e36dafb84a8da78b81d81565b5f801b610b57816115bd565b610b817f7fb24e16434340412711790bec5b70aba75544e6dad82e36dafb84a8da78b81d83610dca565b15610b8a575f80fd5b610bb47f7fb24e16434340412711790bec5b70aba75544e6dad82e36dafb84a8da78b81d83611766565b50610bc982600161185690919063ffffffff16565b505f6001811115610bdd57610bdc611fbc565b5b8273ffffffffffffffffffffffffffffffffffffffff163373ffffffffffffffffffffffffffffffffffffffff167ffa2b6604fab9b4b77a2762bb3466182df167672dc2747e0eab4077be17782f2e60405160405180910390a45050565b5f801b610c47816115bd565b610c717f4c9be3f07a6d4b8d9a30ee174f3013f5828af8f3e9648a5e6a243775be68c5b783610dca565b610c79575f80fd5b610ca37f4c9be3f07a6d4b8d9a30ee174f3013f5828af8f3e9648a5e6a243775be68c5b783611650565b50610cb882600361173990919063ffffffff16565b50600180811115610ccc57610ccb611fbc565b5b8273ffffffffffffffffffffffffffffffffffffffff163373ffffffffffffffffffffffffffffffffffffffff167fddee724a4d97aa985390f461368ffb80d643d929b22fff5fec040204ff91f60960405160405180910390a45050565b600e602052805f5260405f205f91509050805f015490806001015f9054906101000a900473ffffffffffffffffffffffffffffffffffffffff1690806002015f9054906101000a900473ffffffffffffffffffffffffffffffffffffffff16908060020160149054906101000a900460ff16908060030154905085565b6007805f0154908060010154908060020154908060030154908060040154905085565b5f805f8481526020019081526020015f205f015f8373ffffffffffffffffffffffffffffffffffffffff1673ffffffffffffffffffffffffffffffffffffffff1681526020019081526020015f205f9054906101000a900460ff16905092915050565b5f610e587f4c9be3f07a6d4b8d9a30ee174f3013f5828af8f3e9648a5e6a243775be68c5b733610dca565b905090565b5f60065f9054906101000a900473ffffffffffffffffffffffffffffffffffffffff1673ffffffffffffffffffffffffffffffffffffffff166370a08231306040518263ffffffff1660e01b8152600401610eb89190612345565b602060405180830381865afa158015610ed3573d5f803e3d5ffd5b505050506040513d601f19601f82011682018060405250810190610ef79190612372565b905090565b5f801b81565b610f0a611883565b7f7fb24e16434340412711790bec5b70aba75544e6dad82e36dafb84a8da78b81d610f34816115bd565b845f8111610f77576040517f08c379a0000000000000000000000000000000000000000000000000000000008152600401610f6e906123e7565b60405180910390fd5b5f610f80610e5d565b905086811015610fc5576040517f08c379a0000000000000000000000000000000000000000000000000000000008152600401610fbc9061244f565b60405180910390fd5b5f600f5f815480929190610fd89061249a565b9190505590506040518060a001604052808281526020013373ffffffffffffffffffffffffffffffffffffffff1681526020018873ffffffffffffffffffffffffffffffffffffffff1681526020015f600381111561103a57611039611fbc565b5b815260200189815250600e5f8381526020019081526020015f205f820151815f01556020820151816001015f6101000a81548173ffffffffffffffffffffffffffffffffffffffff021916908373ffffffffffffffffffffffffffffffffffffffff1602179055506040820151816002015f6101000a81548173ffffffffffffffffffffffffffffffffffffffff021916908373ffffffffffffffffffffffffffffffffffffffff16021790555060608201518160020160146101000a81548160ff0219169083600381111561111357611112611fbc565b5b02179055506080820151816003015590505061112e886118c9565b8673ffffffffffffffffffffffffffffffffffffffff163373ffffffffffffffffffffffffffffffffffffffff16867f3d7459021283319373c0be5fb3d8734deb81aa0223bb9b7afc7d1979437b062e848c5f8c604051611192949392919061254b565b60405180910390a4505050506111a6611916565b50505050565b60606111b8600361159e565b905090565b6111c682610573565b6111cf816115bd565b6111d98383611650565b50505050565b600c805f015f9054906101000a900473ffffffffffffffffffffffffffffffffffffffff1690806001015f9054906101000a900473ffffffffffffffffffffffffffffffffffffffff16905082565b5f6112597f7fb24e16434340412711790bec5b70aba75544e6dad82e36dafb84a8da78b81d33610dca565b905090565b7f4c9be3f07a6d4b8d9a30ee174f3013f5828af8f3e9648a5e6a243775be68c5b7611288816115bd565b5f600e5f8481526020019081526020015f2090506003808111156112af576112ae611fbc565b5b8160020160149054906101000a900460ff1660038111156112d3576112d2611fbc565b5b141580156113175750600160038111156112f0576112ef611fbc565b5b8160020160149054906101000a900460ff16600381111561131457611313611fbc565b5b14155b611356576040517f08c379a000000000000000000000000000000000000000000000000000000000815260040161134d90612327565b60405180910390fd5b5f600381111561136957611368611fbc565b5b8160020160149054906101000a900460ff16600381111561138d5761138c611fbc565b5b036113c05760018160020160146101000a81548160ff021916908360038111156113ba576113b9611fbc565b5b02179055505b600260038111156113d4576113d3611fbc565b5b8160020160149054906101000a900460ff1660038111156113f8576113f7611fbc565b5b036114df57826001600381111561141257611411611fbc565b5b7f2d32ded8381560c010722f0fc669abbcb995f8e9bb7ed54365d5d0046936f7a160405160405180910390a360038160020160146101000a81548160ff0219169083600381111561146657611465611fbc565b5b02179055506114de816002015f9054906101000a900473ffffffffffffffffffffffffffffffffffffffff16826003015460065f9054906101000a900473ffffffffffffffffffffffffffffffffffffffff1673ffffffffffffffffffffffffffffffffffffffff166115d19092919063ffffffff16565b5b828160020160149054906101000a900460ff16600381111561150457611503611fbc565b5b7f2d32ded8381560c010722f0fc669abbcb995f8e9bb7ed54365d5d0046936f7a160405160405180910390a3505050565b5f7f01ffc9a7000000000000000000000000000000000000000000000000000000007bffffffffffffffffffffffffffffffffffffffffffffffffffffffff1916827bffffffffffffffffffffffffffffffffffffffffffffffffffffffff1916149050919050565b60605f6115ac835f01611920565b905060608190508092505050919050565b6115ce816115c961184f565b611979565b50565b61164b838473ffffffffffffffffffffffffffffffffffffffff1663a9059cbb8585604051602401611604929190612595565b604051602081830303815290604052915060e01b6020820180517bffffffffffffffffffffffffffffffffffffffffffffffffffffffff83818316178352505050506119ca565b505050565b5f61165b8383610dca565b1561172f575f805f8581526020019081526020015f205f015f8473ffffffffffffffffffffffffffffffffffffffff1673ffffffffffffffffffffffffffffffffffffffff1681526020019081526020015f205f6101000a81548160ff0219169083151502179055506116cc61184f565b73ffffffffffffffffffffffffffffffffffffffff168273ffffffffffffffffffffffffffffffffffffffff16847ff6391f5c32d9c69d2a47ea670b442974b53935d1edc7fd64eb21e047a839171b60405160405180910390a460019050611733565b5f90505b92915050565b5f61175e835f018373ffffffffffffffffffffffffffffffffffffffff165f1b611a65565b905092915050565b5f6117718383610dca565b6118455760015f808581526020019081526020015f205f015f8473ffffffffffffffffffffffffffffffffffffffff1673ffffffffffffffffffffffffffffffffffffffff1681526020019081526020015f205f6101000a81548160ff0219169083151502179055506117e261184f565b73ffffffffffffffffffffffffffffffffffffffff168273ffffffffffffffffffffffffffffffffffffffff16847f2f8788117e7eff1d82e926ec794901d17c78024a50270940304540a733656f0d60405160405180910390a460019050611849565b5f90505b92915050565b5f33905090565b5f61187b835f018373ffffffffffffffffffffffffffffffffffffffff165f1b611b61565b905092915050565b6002600554036118bf576040517f3ee5aeb500000000000000000000000000000000000000000000000000000000815260040160405180910390fd5b6002600581905550565b5f816007600201546118db91906125bc565b90505f6007600301546064836118f191906125ef565b6118fb919061265d565b90508160076002018190555080600760010181905550505050565b6001600581905550565b6060815f0180548060200260200160405190810160405280929190818152602001828054801561196d57602002820191905f5260205f20905b815481526020019060010190808311611959575b50505050509050919050565b6119838282610dca565b6119c65780826040517fe2517d3f0000000000000000000000000000000000000000000000000000000081526004016119bd92919061268d565b60405180910390fd5b5050565b5f8060205f8451602086015f885af1806119e9576040513d5f823e3d81fd5b3d92505f519150505f8214611a02576001811415611a1d565b5f8473ffffffffffffffffffffffffffffffffffffffff163b145b15611a5f57836040517f5274afe7000000000000000000000000000000000000000000000000000000008152600401611a569190612345565b60405180910390fd5b50505050565b5f80836001015f8481526020019081526020015f205490505f8114611b56575f600182611a9291906126b4565b90505f6001865f0180549050611aa891906126b4565b9050808214611b0e575f865f018281548110611ac757611ac66126e7565b5b905f5260205f200154905080875f018481548110611ae857611ae76126e7565b5b905f5260205f20018190555083876001015f8381526020019081526020015f2081905550505b855f01805480611b2157611b20612714565b5b600190038181905f5260205f20015f90559055856001015f8681526020019081526020015f205f905560019350505050611b5b565b5f9150505b92915050565b5f611b6c8383611bc8565b611bbe57825f0182908060018154018082558091505060019003905f5260205f20015f9091909190915055825f0180549050836001015f8481526020019081526020015f208190555060019050611bc2565b5f90505b92915050565b5f80836001015f8481526020019081526020015f20541415905092915050565b5f604051905090565b5f80fd5b5f80fd5b5f7fffffffff0000000000000000000000000000000000000000000000000000000082169050919050565b611c2d81611bf9565b8114611c37575f80fd5b50565b5f81359050611c4881611c24565b92915050565b5f60208284031215611c6357611c62611bf1565b5b5f611c7084828501611c3a565b91505092915050565b5f8115159050919050565b611c8d81611c79565b82525050565b5f602082019050611ca65f830184611c84565b92915050565b5f81519050919050565b5f82825260208201905092915050565b5f819050602082019050919050565b5f73ffffffffffffffffffffffffffffffffffffffff82169050919050565b5f611cfe82611cd5565b9050919050565b611d0e81611cf4565b82525050565b5f611d1f8383611d05565b60208301905092915050565b5f602082019050919050565b5f611d4182611cac565b611d4b8185611cb6565b9350611d5683611cc6565b805f5b83811015611d86578151611d6d8882611d14565b9750611d7883611d2b565b925050600181019050611d59565b5085935050505092915050565b5f6020820190508181035f830152611dab8184611d37565b905092915050565b5f819050919050565b611dc581611db3565b82525050565b5f602082019050611dde5f830184611dbc565b92915050565b611ded81611db3565b8114611df7575f80fd5b50565b5f81359050611e0881611de4565b92915050565b5f60208284031215611e2357611e22611bf1565b5b5f611e3084828501611dfa565b91505092915050565b5f819050919050565b611e4b81611e39565b8114611e55575f80fd5b50565b5f81359050611e6681611e42565b92915050565b5f60208284031215611e8157611e80611bf1565b5b5f611e8e84828501611e58565b91505092915050565b611ea081611cf4565b8114611eaa575f80fd5b50565b5f81359050611ebb81611e97565b92915050565b5f60208284031215611ed657611ed5611bf1565b5b5f611ee384828501611ead565b91505092915050565b5f8060408385031215611f0257611f01611bf1565b5b5f611f0f85828601611dfa565b9250506020611f2085828601611ead565b9150509250929050565b5f819050919050565b5f611f4d611f48611f4384611cd5565b611f2a565b611cd5565b9050919050565b5f611f5e82611f33565b9050919050565b5f611f6f82611f54565b9050919050565b611f7f81611f65565b82525050565b5f602082019050611f985f830184611f76565b92915050565b611fa781611e39565b82525050565b611fb681611cf4565b82525050565b7f4e487b71000000000000000000000000000000000000000000000000000000005f52602160045260245ffd5b60048110611ffa57611ff9611fbc565b5b50565b5f81905061200a82611fe9565b919050565b5f61201982611ffd565b9050919050565b6120298161200f565b82525050565b5f60a0820190506120425f830188611f9e565b61204f6020830187611fad565b61205c6040830186611fad565b6120696060830185612020565b6120766080830184611f9e565b9695505050505050565b5f60a0820190506120935f830188611f9e565b6120a06020830187611f9e565b6120ad6040830186611f9e565b6120ba6060830185611f9e565b6120c76080830184611f9e565b9695505050505050565b5f6020820190506120e45f830184611f9e565b92915050565b5f80fd5b5f80fd5b5f601f19601f8301169050919050565b7f4e487b71000000000000000000000000000000000000000000000000000000005f52604160045260245ffd5b612138826120f2565b810181811067ffffffffffffffff8211171561215757612156612102565b5b80604052505050565b5f612169611be8565b9050612175828261212f565b919050565b5f67ffffffffffffffff82111561219457612193612102565b5b61219d826120f2565b9050602081019050919050565b828183375f83830152505050565b5f6121ca6121c58461217a565b612160565b9050828152602081018484840111156121e6576121e56120ee565b5b6121f18482856121aa565b509392505050565b5f82601f83011261220d5761220c6120ea565b5b813561221d8482602086016121b8565b91505092915050565b5f805f806080858703121561223e5761223d611bf1565b5b5f61224b87828801611e58565b945050602061225c87828801611ead565b935050604085013567ffffffffffffffff81111561227d5761227c611bf5565b5b612289878288016121f9565b925050606061229a87828801611dfa565b91505092959194509250565b5f6040820190506122b95f830185611fad565b6122c66020830184611fad565b9392505050565b5f82825260208201905092915050565b7f4465737065736120696e76616c696461000000000000000000000000000000005f82015250565b5f6123116010836122cd565b915061231c826122dd565b602082019050919050565b5f6020820190508181035f83015261233e81612305565b9050919050565b5f6020820190506123585f830184611fad565b92915050565b5f8151905061236c81611e42565b92915050565b5f6020828403121561238757612386611bf1565b5b5f6123948482850161235e565b91505092915050565b7f56616c6f72206465766520736572206d61696f722071756520300000000000005f82015250565b5f6123d1601a836122cd565b91506123dc8261239d565b602082019050919050565b5f6020820190508181035f8301526123fe816123c5565b9050919050565b7f53616c646f20696e737566696369656e746500000000000000000000000000005f82015250565b5f6124396012836122cd565b915061244482612405565b602082019050919050565b5f6020820190508181035f8301526124668161242d565b9050919050565b7f4e487b71000000000000000000000000000000000000000000000000000000005f52601160045260245ffd5b5f6124a482611e39565b91507fffffffffffffffffffffffffffffffffffffffffffffffffffffffffffffffff82036124d6576124d561246d565b5b600182019050919050565b5f81519050919050565b5f5b838110156125085780820151818401526020810190506124ed565b5f8484015250505050565b5f61251d826124e1565b61252781856122cd565b93506125378185602086016124eb565b612540816120f2565b840191505092915050565b5f60808201905061255e5f830187611f9e565b61256b6020830186611f9e565b6125786040830185612020565b818103606083015261258a8184612513565b905095945050505050565b5f6040820190506125a85f830185611fad565b6125b56020830184611f9e565b9392505050565b5f6125c682611e39565b91506125d183611e39565b92508282019050808211156125e9576125e861246d565b5b92915050565b5f6125f982611e39565b915061260483611e39565b925082820261261281611e39565b915082820484148315176126295761262861246d565b5b5092915050565b7f4e487b71000000000000000000000000000000000000000000000000000000005f52601260045260245ffd5b5f61266782611e39565b915061267283611e39565b92508261268257612681612630565b5b828204905092915050565b5f6040820190506126a05f830185611fad565b6126ad6020830184611dbc565b9392505050565b5f6126be82611e39565b91506126c983611e39565b92508282039050818111156126e1576126e061246d565b5b92915050565b7f4e487b71000000000000000000000000000000000000000000000000000000005f52603260045260245ffd5b7f4e487b71000000000000000000000000000000000000000000000000000000005f52603160045260245ffdfea2646970667358221220e5f3feb463a5013139676c4a087d0ff318c546849c715e2bdda0ea810792896a64736f6c63430008150033",
  "immutableReferences": {},
  "source": "// SPDX-License-Identifier: MIT\npragma solidity >=0.8.2 <0.9.0;\n\nimport {Permissao} from \"./utils/Permissao.sol\";\nimport {Estruturas} from \"./utils/Estruturas.sol\";\nimport {Modificadores} from \"./utils/Modificadores.sol\";\n\nimport {IERC20} from \"@openzeppelin/contracts/token/ERC20/IERC20.sol\";\nimport {SafeERC20} from \"@openzeppelin/contracts/token/ERC20/utils/SafeERC20.sol\";\nimport {ReentrancyGuard} from \"@openzeppelin/contracts/utils/ReentrancyGuard.sol\";\n\ncontract Municipal is Permissao, Estruturas, Modificadores, ReentrancyGuard {\n    using SafeERC20 for IERC20;\n    IERC20 public moeda;\n\n    Aplicacao public aplicacao =\n        Aplicacao({\n            percentualMinimo: 15,\n            percentualAplicado: 0,\n            valorAplicado: 0,\n            valorArrecadado: 0,\n            valorDistribuido: 0\n        });\n\n    Contrato public contrato;\n\n    mapping(uint256 => Despesa) public despesas;\n    uint256 private proximaDespesaId = 1;\n\n    constructor(address _moeda) {\n        require(_moeda != address(0), \"Moeda invalida\");\n        moeda = IERC20(_moeda);\n    }\n\n    event EventoDespesa(\n        bytes32 indexed txAnterior,\n        address indexed orgao,\n        address indexed fornecedor,\n        uint256 despesaId,\n        uint256 valor,\n        Situacao situacao,\n        string justificativa\n    );\n\n    event EventoSituacaoDespesa(\n        Situacao indexed situacao,\n        uint256 indexed despesaId\n    );\n\n    function setValorArrecadado() public onlyRole(DEFAULT_ADMIN_ROLE) {\n        aplicacao.valorArrecadado = buscarSaldo();\n    }\n\n    function buscarSaldo() public view returns (uint) {\n        return moeda.balanceOf(address(this));\n    }\n\n    function registrar(\n        uint256 _valor,\n        address _fornecedor,\n        string memory _justificativa,\n        bytes32 _txAnterior\n    ) public nonReentrant onlyRole(ORGAO_ROLE) onlyValorPositivo(_valor) {\n        uint256 saldo = buscarSaldo();\n        require(saldo >= _valor, \"Saldo insuficiente\");\n        uint256 id = proximaDespesaId++;\n\n        despesas[id] = Despesa({\n            id: id,\n            emitente: msg.sender,\n            fornecedor: _fornecedor,\n            situacao: Situacao.PENDENTE,\n            valor: _valor\n        });\n\n        calcularAplicacao(_valor);\n        emit EventoDespesa(\n            _txAnterior,\n            msg.sender,\n            _fornecedor,\n            id,\n            _valor,\n            Situacao.PENDENTE,\n            _justificativa\n        );\n    }\n\n    function calcularAplicacao(uint256 _valor) private {\n        uint256 valorTotalAplicado = aplicacao.valorAplicado + _valor;\n        uint256 percentualAplicado = (valorTotalAplicado * 100) /\n            aplicacao.valorArrecadado;\n\n        aplicacao.valorAplicado = valorTotalAplicado;\n        aplicacao.percentualAplicado = percentualAplicado;\n    }\n\n    function confirmarEntrega(uint256 _id) public onlyRole(FORNECEDOR_ROLE) {\n        Despesa storage despesa = despesas[_id];\n\n        require(\n            despesa.situacao != Situacao.FINALIZADO &&\n                despesa.situacao != Situacao.ENTREGUE,\n            \"Despesa invalida\"\n        );\n\n        if (despesa.situacao == Situacao.PENDENTE)\n            despesa.situacao = Situacao.ENTREGUE;\n\n        if (despesa.situacao == Situacao.RECEBIDO) {\n            emit EventoSituacaoDespesa(Situacao.ENTREGUE, _id);\n            despesa.situacao = Situacao.FINALIZADO;\n            moeda.safeTransfer(despesa.fornecedor, despesa.valor);\n        }\n\n        emit EventoSituacaoDespesa(despesa.situacao, _id);\n    }\n\n    function confirmarRecebimento(uint256 _id) public onlyRole(ORGAO_ROLE) {\n        Despesa storage despesa = despesas[_id];\n\n        require(\n            despesa.situacao != Situacao.FINALIZADO &&\n                despesa.situacao != Situacao.RECEBIDO,\n            \"Despesa invalida\"\n        );\n\n        if (despesa.situacao == Situacao.PENDENTE)\n            despesa.situacao = Situacao.RECEBIDO;\n\n        if (despesa.situacao == Situacao.ENTREGUE) {\n            emit EventoSituacaoDespesa(Situacao.RECEBIDO, _id);\n            despesa.situacao = Situacao.FINALIZADO;\n            moeda.safeTransfer(despesa.fornecedor, despesa.valor);\n        }\n\n        emit EventoSituacaoDespesa(despesa.situacao, _id);\n    }\n}\n",
  "sourcePath": "/home/willian_samsung/Documentos/TCC-2025/prototipo/contrato-inteligente/contracts/3_Municipal.sol",
  "compiler": {
    "name": "solc",
    "version": "0.8.21+commit.d9974bed.Emscripten.clang"
  },
  "schemaVersion": "3.4.16",
  "updatedAt": "2025-10-12T19:42:30.709Z",
  "networkType": "ethereum",
  "devdoc": {
    "errors": {
      "AccessControlBadConfirmation()": [
        {
          "details": "The caller of a function is not the expected one. NOTE: Don't confuse with {AccessControlUnauthorizedAccount}."
        }
      ],
      "AccessControlUnauthorizedAccount(address,bytes32)": [
        {
          "details": "The `account` is missing a role."
        }
      ],
      "ReentrancyGuardReentrantCall()": [
        {
          "details": "Unauthorized reentrant call."
        }
      ],
      "SafeERC20FailedOperation(address)": [
        {
          "details": "An operation with an ERC-20 token failed."
        }
      ]
    },
    "events": {
      "RoleAdminChanged(bytes32,bytes32,bytes32)": {
        "details": "Emitted when `newAdminRole` is set as ``role``'s admin role, replacing `previousAdminRole` `DEFAULT_ADMIN_ROLE` is the starting admin for all roles, despite {RoleAdminChanged} not being emitted to signal this."
      },
      "RoleGranted(bytes32,address,address)": {
        "details": "Emitted when `account` is granted `role`. `sender` is the account that originated the contract call. This account bears the admin role (for the granted role). Expected in cases where the role was granted using the internal {AccessControl-_grantRole}."
      },
      "RoleRevoked(bytes32,address,address)": {
        "details": "Emitted when `account` is revoked `role`. `sender` is the account that originated the contract call:   - if using `revokeRole`, it is the admin role bearer   - if using `renounceRole`, it is the role bearer (i.e. `account`)"
      }
    },
    "kind": "dev",
    "methods": {
      "getRoleAdmin(bytes32)": {
        "details": "Returns the admin role that controls `role`. See {grantRole} and {revokeRole}. To change a role's admin, use {_setRoleAdmin}."
      },
      "grantRole(bytes32,address)": {
        "details": "Grants `role` to `account`. If `account` had not been already granted `role`, emits a {RoleGranted} event. Requirements: - the caller must have ``role``'s admin role. May emit a {RoleGranted} event."
      },
      "hasRole(bytes32,address)": {
        "details": "Returns `true` if `account` has been granted `role`."
      },
      "renounceRole(bytes32,address)": {
        "details": "Revokes `role` from the calling account. Roles are often managed via {grantRole} and {revokeRole}: this function's purpose is to provide a mechanism for accounts to lose their privileges if they are compromised (such as when a trusted device is misplaced). If the calling account had been revoked `role`, emits a {RoleRevoked} event. Requirements: - the caller must be `callerConfirmation`. May emit a {RoleRevoked} event."
      },
      "revokeRole(bytes32,address)": {
        "details": "Revokes `role` from `account`. If `account` had been granted `role`, emits a {RoleRevoked} event. Requirements: - the caller must have ``role``'s admin role. May emit a {RoleRevoked} event."
      },
      "supportsInterface(bytes4)": {
        "details": "Returns true if this contract implements the interface defined by `interfaceId`. See the corresponding https://eips.ethereum.org/EIPS/eip-165#how-interfaces-are-identified[ERC section] to learn more about how these ids are created. This function call must use less than 30 000 gas."
      }
    },
    "version": 1
  },
  "userdoc": {
    "kind": "user",
    "methods": {},
    "version": 1
  }
}