{
  "contractName": "Municipal",
  "abi": [
    {
      "inputs": [
        {
          "internalType": "address",
          "name": "_moeda",
          "type": "address"
        }
      ],
      "stateMutability": "nonpayable",
      "type": "constructor"
    },
    {
      "inputs": [],
      "name": "AccessControlBadConfirmation",
      "type": "error"
    },
    {
      "inputs": [
        {
          "internalType": "address",
          "name": "account",
          "type": "address"
        },
        {
          "internalType": "bytes32",
          "name": "neededRole",
          "type": "bytes32"
        }
      ],
      "name": "AccessControlUnauthorizedAccount",
      "type": "error"
    },
    {
      "inputs": [],
      "name": "ReentrancyGuardReentrantCall",
      "type": "error"
    },
    {
      "inputs": [
        {
          "internalType": "address",
          "name": "token",
          "type": "address"
        }
      ],
      "name": "SafeERC20FailedOperation",
      "type": "error"
    },
    {
      "anonymous": false,
      "inputs": [
        {
          "indexed": true,
          "internalType": "bytes32",
          "name": "txAnterior",
          "type": "bytes32"
        },
        {
          "indexed": true,
          "internalType": "address",
          "name": "orgao",
          "type": "address"
        },
        {
          "indexed": true,
          "internalType": "address",
          "name": "fornecedor",
          "type": "address"
        },
        {
          "indexed": false,
          "internalType": "uint256",
          "name": "despesaId",
          "type": "uint256"
        },
        {
          "indexed": false,
          "internalType": "uint256",
          "name": "valor",
          "type": "uint256"
        },
        {
          "indexed": false,
          "internalType": "enum Enumeradores.Situacao",
          "name": "situacao",
          "type": "uint8"
        },
        {
          "indexed": false,
          "internalType": "string",
          "name": "justificativa",
          "type": "string"
        }
      ],
      "name": "EventoDespesa",
      "type": "event"
    },
    {
      "anonymous": false,
      "inputs": [
        {
          "indexed": true,
          "internalType": "enum Enumeradores.Situacao",
          "name": "situacao",
          "type": "uint8"
        },
        {
          "indexed": false,
          "internalType": "uint256",
          "name": "despesaId",
          "type": "uint256"
        }
      ],
      "name": "EventoSituacaoDespesa",
      "type": "event"
    },
    {
      "anonymous": false,
      "inputs": [
        {
          "indexed": true,
          "internalType": "address",
          "name": "admin",
          "type": "address"
        },
        {
          "indexed": true,
          "internalType": "address",
          "name": "endereco",
          "type": "address"
        },
        {
          "indexed": true,
          "internalType": "enum Enumeradores.TipoPermissao",
          "name": "tipoPermissao",
          "type": "uint8"
        }
      ],
      "name": "PermissaoAdicionada",
      "type": "event"
    },
    {
      "anonymous": false,
      "inputs": [
        {
          "indexed": true,
          "internalType": "address",
          "name": "admin",
          "type": "address"
        },
        {
          "indexed": true,
          "internalType": "address",
          "name": "endereco",
          "type": "address"
        },
        {
          "indexed": true,
          "internalType": "enum Enumeradores.TipoPermissao",
          "name": "tipoPermissao",
          "type": "uint8"
        }
      ],
      "name": "PermissaoRemovida",
      "type": "event"
    },
    {
      "anonymous": false,
      "inputs": [
        {
          "indexed": true,
          "internalType": "bytes32",
          "name": "role",
          "type": "bytes32"
        },
        {
          "indexed": true,
          "internalType": "bytes32",
          "name": "previousAdminRole",
          "type": "bytes32"
        },
        {
          "indexed": true,
          "internalType": "bytes32",
          "name": "newAdminRole",
          "type": "bytes32"
        }
      ],
      "name": "RoleAdminChanged",
      "type": "event"
    },
    {
      "anonymous": false,
      "inputs": [
        {
          "indexed": true,
          "internalType": "bytes32",
          "name": "role",
          "type": "bytes32"
        },
        {
          "indexed": true,
          "internalType": "address",
          "name": "account",
          "type": "address"
        },
        {
          "indexed": true,
          "internalType": "address",
          "name": "sender",
          "type": "address"
        }
      ],
      "name": "RoleGranted",
      "type": "event"
    },
    {
      "anonymous": false,
      "inputs": [
        {
          "indexed": true,
          "internalType": "bytes32",
          "name": "role",
          "type": "bytes32"
        },
        {
          "indexed": true,
          "internalType": "address",
          "name": "account",
          "type": "address"
        },
        {
          "indexed": true,
          "internalType": "address",
          "name": "sender",
          "type": "address"
        }
      ],
      "name": "RoleRevoked",
      "type": "event"
    },
    {
      "inputs": [],
      "name": "DEFAULT_ADMIN_ROLE",
      "outputs": [
        {
          "internalType": "bytes32",
          "name": "",
          "type": "bytes32"
        }
      ],
      "stateMutability": "view",
      "type": "function",
      "constant": true
    },
    {
      "inputs": [],
      "name": "FORNECEDOR_ROLE",
      "outputs": [
        {
          "internalType": "bytes32",
          "name": "",
          "type": "bytes32"
        }
      ],
      "stateMutability": "view",
      "type": "function",
      "constant": true
    },
    {
      "inputs": [],
      "name": "ORGAO_ROLE",
      "outputs": [
        {
          "internalType": "bytes32",
          "name": "",
          "type": "bytes32"
        }
      ],
      "stateMutability": "view",
      "type": "function",
      "constant": true
    },
    {
      "inputs": [
        {
          "internalType": "address",
          "name": "_endereco",
          "type": "address"
        }
      ],
      "name": "adicionarPermissaoFornecedor",
      "outputs": [],
      "stateMutability": "nonpayable",
      "type": "function"
    },
    {
      "inputs": [
        {
          "internalType": "address",
          "name": "_endereco",
          "type": "address"
        }
      ],
      "name": "adicionarPermissaoOrgao",
      "outputs": [],
      "stateMutability": "nonpayable",
      "type": "function"
    },
    {
      "inputs": [],
      "name": "aplicacao",
      "outputs": [
        {
          "internalType": "uint256",
          "name": "percentualMinimo",
          "type": "uint256"
        },
        {
          "internalType": "uint256",
          "name": "percentualAplicado",
          "type": "uint256"
        },
        {
          "internalType": "uint256",
          "name": "valorAplicado",
          "type": "uint256"
        },
        {
          "internalType": "uint256",
          "name": "valorArrecadado",
          "type": "uint256"
        },
        {
          "internalType": "uint256",
          "name": "valorDistribuido",
          "type": "uint256"
        }
      ],
      "stateMutability": "view",
      "type": "function",
      "constant": true
    },
    {
      "inputs": [],
      "name": "buscarFornecedoresAtivos",
      "outputs": [
        {
          "internalType": "address[]",
          "name": "",
          "type": "address[]"
        }
      ],
      "stateMutability": "view",
      "type": "function",
      "constant": true
    },
    {
      "inputs": [],
      "name": "buscarOrgaosAtivos",
      "outputs": [
        {
          "internalType": "address[]",
          "name": "",
          "type": "address[]"
        }
      ],
      "stateMutability": "view",
      "type": "function",
      "constant": true
    },
    {
      "inputs": [],
      "name": "contrato",
      "outputs": [
        {
          "internalType": "address",
          "name": "estadual",
          "type": "address"
        },
        {
          "internalType": "address",
          "name": "municipal",
          "type": "address"
        }
      ],
      "stateMutability": "view",
      "type": "function",
      "constant": true
    },
    {
      "inputs": [
        {
          "internalType": "uint256",
          "name": "",
          "type": "uint256"
        }
      ],
      "name": "despesas",
      "outputs": [
        {
          "internalType": "uint256",
          "name": "id",
          "type": "uint256"
        },
        {
          "internalType": "address",
          "name": "emitente",
          "type": "address"
        },
        {
          "internalType": "address",
          "name": "fornecedor",
          "type": "address"
        },
        {
          "internalType": "enum Enumeradores.Situacao",
          "name": "situacao",
          "type": "uint8"
        },
        {
          "internalType": "uint256",
          "name": "valor",
          "type": "uint256"
        }
      ],
      "stateMutability": "view",
      "type": "function",
      "constant": true
    },
    {
      "inputs": [
        {
          "internalType": "bytes32",
          "name": "role",
          "type": "bytes32"
        }
      ],
      "name": "getRoleAdmin",
      "outputs": [
        {
          "internalType": "bytes32",
          "name": "",
          "type": "bytes32"
        }
      ],
      "stateMutability": "view",
      "type": "function",
      "constant": true
    },
    {
      "inputs": [
        {
          "internalType": "bytes32",
          "name": "role",
          "type": "bytes32"
        },
        {
          "internalType": "address",
          "name": "account",
          "type": "address"
        }
      ],
      "name": "grantRole",
      "outputs": [],
      "stateMutability": "nonpayable",
      "type": "function"
    },
    {
      "inputs": [
        {
          "internalType": "bytes32",
          "name": "role",
          "type": "bytes32"
        },
        {
          "internalType": "address",
          "name": "account",
          "type": "address"
        }
      ],
      "name": "hasRole",
      "outputs": [
        {
          "internalType": "bool",
          "name": "",
          "type": "bool"
        }
      ],
      "stateMutability": "view",
      "type": "function",
      "constant": true
    },
    {
      "inputs": [],
      "name": "moeda",
      "outputs": [
        {
          "internalType": "contract IERC20",
          "name": "",
          "type": "address"
        }
      ],
      "stateMutability": "view",
      "type": "function",
      "constant": true
    },
    {
      "inputs": [
        {
          "internalType": "address",
          "name": "_endereco",
          "type": "address"
        }
      ],
      "name": "removerPermissaoFornecedor",
      "outputs": [],
      "stateMutability": "nonpayable",
      "type": "function"
    },
    {
      "inputs": [
        {
          "internalType": "address",
          "name": "_endereco",
          "type": "address"
        }
      ],
      "name": "removerPermissaoOrgao",
      "outputs": [],
      "stateMutability": "nonpayable",
      "type": "function"
    },
    {
      "inputs": [
        {
          "internalType": "bytes32",
          "name": "role",
          "type": "bytes32"
        },
        {
          "internalType": "address",
          "name": "callerConfirmation",
          "type": "address"
        }
      ],
      "name": "renounceRole",
      "outputs": [],
      "stateMutability": "nonpayable",
      "type": "function"
    },
    {
      "inputs": [
        {
          "internalType": "bytes32",
          "name": "role",
          "type": "bytes32"
        },
        {
          "internalType": "address",
          "name": "account",
          "type": "address"
        }
      ],
      "name": "revokeRole",
      "outputs": [],
      "stateMutability": "nonpayable",
      "type": "function"
    },
    {
      "inputs": [
        {
          "internalType": "bytes4",
          "name": "interfaceId",
          "type": "bytes4"
        }
      ],
      "name": "supportsInterface",
      "outputs": [
        {
          "internalType": "bool",
          "name": "",
          "type": "bool"
        }
      ],
      "stateMutability": "view",
      "type": "function",
      "constant": true
    },
    {
      "inputs": [],
      "name": "temPermissaoFornecedor",
      "outputs": [
        {
          "internalType": "bool",
          "name": "",
          "type": "bool"
        }
      ],
      "stateMutability": "view",
      "type": "function",
      "constant": true
    },
    {
      "inputs": [],
      "name": "temPermissaoOrgao",
      "outputs": [
        {
          "internalType": "bool",
          "name": "",
          "type": "bool"
        }
      ],
      "stateMutability": "view",
      "type": "function",
      "constant": true
    },
    {
      "inputs": [],
      "name": "setValorArrecadado",
      "outputs": [],
      "stateMutability": "nonpayable",
      "type": "function"
    },
    {
      "inputs": [],
      "name": "buscarSaldo",
      "outputs": [
        {
          "internalType": "uint256",
          "name": "",
          "type": "uint256"
        }
      ],
      "stateMutability": "view",
      "type": "function",
      "constant": true
    },
    {
      "inputs": [
        {
          "internalType": "bytes32",
          "name": "_txAnterior",
          "type": "bytes32"
        },
        {
          "internalType": "address",
          "name": "_fornecedor",
          "type": "address"
        },
        {
          "internalType": "uint256",
          "name": "_valor",
          "type": "uint256"
        },
        {
          "internalType": "string",
          "name": "_justificativa",
          "type": "string"
        }
      ],
      "name": "registrar",
      "outputs": [],
      "stateMutability": "nonpayable",
      "type": "function"
    },
    {
      "inputs": [
        {
          "internalType": "uint256",
          "name": "_id",
          "type": "uint256"
        }
      ],
      "name": "confirmarEntrega",
      "outputs": [],
      "stateMutability": "nonpayable",
      "type": "function"
    },
    {
      "inputs": [
        {
          "internalType": "uint256",
          "name": "_id",
          "type": "uint256"
        }
      ],
      "name": "confirmarRecebimento",
      "outputs": [],
      "stateMutability": "nonpayable",
      "type": "function"
    }
  ],
  "bytecode": "0x60806040526040518060a00160405280600f81526020015f81526020015f81526020015f81526020015f81525060075f820151815f01556020820151816001015560408201518160020155606082015181600301556080820151816004015550506001600f5534801562000071575f80fd5b5060405162002b9138038062002b91833981810160405281019062000097919062000336565b620000ab5f801b336200016c60201b60201c565b5060016005819055505f73ffffffffffffffffffffffffffffffffffffffff168173ffffffffffffffffffffffffffffffffffffffff160362000125576040517f08c379a00000000000000000000000000000000000000000000000000000000081526004016200011c90620003c4565b60405180910390fd5b8060065f6101000a81548173ffffffffffffffffffffffffffffffffffffffff021916908373ffffffffffffffffffffffffffffffffffffffff16021790555050620003e4565b5f6200017f83836200026760201b60201c565b6200025d5760015f808581526020019081526020015f205f015f8473ffffffffffffffffffffffffffffffffffffffff1673ffffffffffffffffffffffffffffffffffffffff1681526020019081526020015f205f6101000a81548160ff021916908315150217905550620001f9620002ca60201b60201c565b73ffffffffffffffffffffffffffffffffffffffff168273ffffffffffffffffffffffffffffffffffffffff16847f2f8788117e7eff1d82e926ec794901d17c78024a50270940304540a733656f0d60405160405180910390a46001905062000261565b5f90505b92915050565b5f805f8481526020019081526020015f205f015f8373ffffffffffffffffffffffffffffffffffffffff1673ffffffffffffffffffffffffffffffffffffffff1681526020019081526020015f205f9054906101000a900460ff16905092915050565b5f33905090565b5f80fd5b5f73ffffffffffffffffffffffffffffffffffffffff82169050919050565b5f6200030082620002d5565b9050919050565b6200031281620002f4565b81146200031d575f80fd5b50565b5f81519050620003308162000307565b92915050565b5f602082840312156200034e576200034d620002d1565b5b5f6200035d8482850162000320565b91505092915050565b5f82825260208201905092915050565b7f4d6f65646120696e76616c6964610000000000000000000000000000000000005f82015250565b5f620003ac600e8362000366565b9150620003b98262000376565b602082019050919050565b5f6020820190508181035f830152620003dd816200039e565b9050919050565b61279f80620003f25f395ff3fe608060405234801561000f575f80fd5b506004361061018c575f3560e01c80636d8696d7116100dc578063a0960d9611610095578063d547741f1161006f578063d547741f14610450578063e1a01e671461046c578063eea4be161461048b578063eea7f824146104a95761018c565b8063a0960d96146103f6578063a217fddf14610414578063c66b20ca146104325761018c565b80636d8696d71461031a57806380151dd314610336578063812af9b7146103525780638bc4d8311461038657806391d14854146103a85780639f2dafc2146103d85761018c565b80632e5a29e9116101495780634b156e92116101235780634b156e92146102b85780635db8607d146102d6578063640e0f6a146102f257806365b174f5146102fc5761018c565b80632e5a29e9146102645780632f2ff15d1461028057806336568abe1461029c5761018c565b806301ffc9a7146101905780630687bdf8146101c05780630d046a15146101de5780631e253ab0146101fc578063248a9ca3146102185780632553ac2514610248575b5f80fd5b6101aa60048036038101906101a59190611c76565b6104c5565b6040516101b79190611cbb565b60405180910390f35b6101c861053e565b6040516101d59190611dbb565b60405180910390f35b6101e661054f565b6040516101f39190611df3565b60405180910390f35b61021660048036038101906102119190611fcf565b610573565b005b610232600480360381019061022d919061204f565b61081d565b60405161023f9190611df3565b60405180910390f35b610262600480360381019061025d919061207a565b610839565b005b61027e600480360381019061027991906120a5565b610b24565b005b61029a600480360381019061029591906120d0565b610c13565b005b6102b660048036038101906102b191906120d0565b610c35565b005b6102c0610cb0565b6040516102cd9190612169565b60405180910390f35b6102f060048036038101906102eb91906120a5565b610cd5565b005b6102fa610dc5565b005b610304610de5565b6040516103119190611df3565b60405180910390f35b610334600480360381019061032f91906120a5565b610e09565b005b610350600480360381019061034b91906120a5565b610ef9565b005b61036c6004803603810190610367919061207a565b610fe8565b60405161037d959493929190612213565b60405180910390f35b61038e611065565b60405161039f959493929190612264565b60405180910390f35b6103c260048036038101906103bd91906120d0565b611088565b6040516103cf9190611cbb565b60405180910390f35b6103e06110eb565b6040516103ed9190611cbb565b60405180910390f35b6103fe61111b565b60405161040b91906122b5565b60405180910390f35b61041c6111ba565b6040516104299190611df3565b60405180910390f35b61043a6111c0565b6040516104479190611dbb565b60405180910390f35b61046a600480360381019061046591906120d0565b6111d1565b005b6104746111f3565b6040516104829291906122ce565b60405180910390f35b610493611242565b6040516104a09190611cbb565b60405180910390f35b6104c360048036038101906104be919061207a565b611272565b005b5f7f7965db0b000000000000000000000000000000000000000000000000000000007bffffffffffffffffffffffffffffffffffffffffffffffffffffffff1916827bffffffffffffffffffffffffffffffffffffffffffffffffffffffff1916148061053757506105368261155d565b5b9050919050565b606061054a60016115c6565b905090565b7f4c9be3f07a6d4b8d9a30ee174f3013f5828af8f3e9648a5e6a243775be68c5b781565b61057b6115e5565b7f7fb24e16434340412711790bec5b70aba75544e6dad82e36dafb84a8da78b81d6105a58161162b565b825f81116105e8576040517f08c379a00000000000000000000000000000000000000000000000000000000081526004016105df9061234f565b60405180910390fd5b5f6105f161111b565b905084811015610636576040517f08c379a000000000000000000000000000000000000000000000000000000000815260040161062d906123b7565b60405180910390fd5b5f600f5f81548092919061064990612402565b9190505590506040518060a001604052808281526020013373ffffffffffffffffffffffffffffffffffffffff1681526020018873ffffffffffffffffffffffffffffffffffffffff1681526020015f60038111156106ab576106aa6121a0565b5b815260200187815250600e5f8381526020019081526020015f205f820151815f01556020820151816001015f6101000a81548173ffffffffffffffffffffffffffffffffffffffff021916908373ffffffffffffffffffffffffffffffffffffffff1602179055506040820151816002015f6101000a81548173ffffffffffffffffffffffffffffffffffffffff021916908373ffffffffffffffffffffffffffffffffffffffff16021790555060608201518160020160146101000a81548160ff02191690836003811115610784576107836121a0565b5b02179055506080820151816003015590505061079f8661163f565b8673ffffffffffffffffffffffffffffffffffffffff163373ffffffffffffffffffffffffffffffffffffffff16897f3d7459021283319373c0be5fb3d8734deb81aa0223bb9b7afc7d1979437b062e848a5f8b60405161080394939291906124b3565b60405180910390a45050505061081761168c565b50505050565b5f805f8381526020019081526020015f20600101549050919050565b7f7fb24e16434340412711790bec5b70aba75544e6dad82e36dafb84a8da78b81d6108638161162b565b5f600e5f8481526020019081526020015f20905060038081111561088a576108896121a0565b5b8160020160149054906101000a900460ff1660038111156108ae576108ad6121a0565b5b141580156108f25750600260038111156108cb576108ca6121a0565b5b8160020160149054906101000a900460ff1660038111156108ef576108ee6121a0565b5b14155b610931576040517f08c379a000000000000000000000000000000000000000000000000000000000815260040161092890612547565b60405180910390fd5b5f6003811115610944576109436121a0565b5b8160020160149054906101000a900460ff166003811115610968576109676121a0565b5b0361099b5760028160020160146101000a81548160ff02191690836003811115610995576109946121a0565b5b02179055505b600160038111156109af576109ae6121a0565b5b8160020160149054906101000a900460ff1660038111156109d3576109d26121a0565b5b03610ac457600260038111156109ec576109eb6121a0565b5b7f2d32ded8381560c010722f0fc669abbcb995f8e9bb7ed54365d5d0046936f7a184604051610a1b91906122b5565b60405180910390a260038160020160146101000a81548160ff02191690836003811115610a4b57610a4a6121a0565b5b0217905550610ac3816002015f9054906101000a900473ffffffffffffffffffffffffffffffffffffffff16826003015460065f9054906101000a900473ffffffffffffffffffffffffffffffffffffffff1673ffffffffffffffffffffffffffffffffffffffff166116969092919063ffffffff16565b5b8060020160149054906101000a900460ff166003811115610ae857610ae76121a0565b5b7f2d32ded8381560c010722f0fc669abbcb995f8e9bb7ed54365d5d0046936f7a184604051610b1791906122b5565b60405180910390a2505050565b5f801b610b308161162b565b610b5a7f7fb24e16434340412711790bec5b70aba75544e6dad82e36dafb84a8da78b81d83611088565b610b62575f80fd5b610b8c7f7fb24e16434340412711790bec5b70aba75544e6dad82e36dafb84a8da78b81d83611715565b50610ba18260016117fe90919063ffffffff16565b505f6001811115610bb557610bb46121a0565b5b8273ffffffffffffffffffffffffffffffffffffffff163373ffffffffffffffffffffffffffffffffffffffff167fddee724a4d97aa985390f461368ffb80d643d929b22fff5fec040204ff91f60960405160405180910390a45050565b610c1c8261081d565b610c258161162b565b610c2f838361182b565b50505050565b610c3d611914565b73ffffffffffffffffffffffffffffffffffffffff168173ffffffffffffffffffffffffffffffffffffffff1614610ca1576040517f6697b23200000000000000000000000000000000000000000000000000000000815260040160405180910390fd5b610cab8282611715565b505050565b60065f9054906101000a900473ffffffffffffffffffffffffffffffffffffffff1681565b5f801b610ce18161162b565b610d0b7f4c9be3f07a6d4b8d9a30ee174f3013f5828af8f3e9648a5e6a243775be68c5b783611088565b15610d14575f80fd5b610d3e7f4c9be3f07a6d4b8d9a30ee174f3013f5828af8f3e9648a5e6a243775be68c5b78361182b565b50610d5382600361191b90919063ffffffff16565b50600180811115610d6757610d666121a0565b5b8273ffffffffffffffffffffffffffffffffffffffff163373ffffffffffffffffffffffffffffffffffffffff167ffa2b6604fab9b4b77a2762bb3466182df167672dc2747e0eab4077be17782f2e60405160405180910390a45050565b5f801b610dd18161162b565b610dd961111b565b60076003018190555050565b7f7fb24e16434340412711790bec5b70aba75544e6dad82e36dafb84a8da78b81d81565b5f801b610e158161162b565b610e3f7f7fb24e16434340412711790bec5b70aba75544e6dad82e36dafb84a8da78b81d83611088565b15610e48575f80fd5b610e727f7fb24e16434340412711790bec5b70aba75544e6dad82e36dafb84a8da78b81d8361182b565b50610e8782600161191b90919063ffffffff16565b505f6001811115610e9b57610e9a6121a0565b5b8273ffffffffffffffffffffffffffffffffffffffff163373ffffffffffffffffffffffffffffffffffffffff167ffa2b6604fab9b4b77a2762bb3466182df167672dc2747e0eab4077be17782f2e60405160405180910390a45050565b5f801b610f058161162b565b610f2f7f4c9be3f07a6d4b8d9a30ee174f3013f5828af8f3e9648a5e6a243775be68c5b783611088565b610f37575f80fd5b610f617f4c9be3f07a6d4b8d9a30ee174f3013f5828af8f3e9648a5e6a243775be68c5b783611715565b50610f768260036117fe90919063ffffffff16565b50600180811115610f8a57610f896121a0565b5b8273ffffffffffffffffffffffffffffffffffffffff163373ffffffffffffffffffffffffffffffffffffffff167fddee724a4d97aa985390f461368ffb80d643d929b22fff5fec040204ff91f60960405160405180910390a45050565b600e602052805f5260405f205f91509050805f015490806001015f9054906101000a900473ffffffffffffffffffffffffffffffffffffffff1690806002015f9054906101000a900473ffffffffffffffffffffffffffffffffffffffff16908060020160149054906101000a900460ff16908060030154905085565b6007805f0154908060010154908060020154908060030154908060040154905085565b5f805f8481526020019081526020015f205f015f8373ffffffffffffffffffffffffffffffffffffffff1673ffffffffffffffffffffffffffffffffffffffff1681526020019081526020015f205f9054906101000a900460ff16905092915050565b5f6111167f4c9be3f07a6d4b8d9a30ee174f3013f5828af8f3e9648a5e6a243775be68c5b733611088565b905090565b5f60065f9054906101000a900473ffffffffffffffffffffffffffffffffffffffff1673ffffffffffffffffffffffffffffffffffffffff166370a08231306040518263ffffffff1660e01b81526004016111769190612565565b602060405180830381865afa158015611191573d5f803e3d5ffd5b505050506040513d601f19601f820116820180604052508101906111b59190612592565b905090565b5f801b81565b60606111cc60036115c6565b905090565b6111da8261081d565b6111e38161162b565b6111ed8383611715565b50505050565b600c805f015f9054906101000a900473ffffffffffffffffffffffffffffffffffffffff1690806001015f9054906101000a900473ffffffffffffffffffffffffffffffffffffffff16905082565b5f61126d7f7fb24e16434340412711790bec5b70aba75544e6dad82e36dafb84a8da78b81d33611088565b905090565b7f4c9be3f07a6d4b8d9a30ee174f3013f5828af8f3e9648a5e6a243775be68c5b761129c8161162b565b5f600e5f8481526020019081526020015f2090506003808111156112c3576112c26121a0565b5b8160020160149054906101000a900460ff1660038111156112e7576112e66121a0565b5b1415801561132b575060016003811115611304576113036121a0565b5b8160020160149054906101000a900460ff166003811115611328576113276121a0565b5b14155b61136a576040517f08c379a000000000000000000000000000000000000000000000000000000000815260040161136190612547565b60405180910390fd5b5f600381111561137d5761137c6121a0565b5b8160020160149054906101000a900460ff1660038111156113a1576113a06121a0565b5b036113d45760018160020160146101000a81548160ff021916908360038111156113ce576113cd6121a0565b5b02179055505b600260038111156113e8576113e76121a0565b5b8160020160149054906101000a900460ff16600381111561140c5761140b6121a0565b5b036114fd5760016003811115611425576114246121a0565b5b7f2d32ded8381560c010722f0fc669abbcb995f8e9bb7ed54365d5d0046936f7a18460405161145491906122b5565b60405180910390a260038160020160146101000a81548160ff02191690836003811115611484576114836121a0565b5b02179055506114fc816002015f9054906101000a900473ffffffffffffffffffffffffffffffffffffffff16826003015460065f9054906101000a900473ffffffffffffffffffffffffffffffffffffffff1673ffffffffffffffffffffffffffffffffffffffff166116969092919063ffffffff16565b5b8060020160149054906101000a900460ff166003811115611521576115206121a0565b5b7f2d32ded8381560c010722f0fc669abbcb995f8e9bb7ed54365d5d0046936f7a18460405161155091906122b5565b60405180910390a2505050565b5f7f01ffc9a7000000000000000000000000000000000000000000000000000000007bffffffffffffffffffffffffffffffffffffffffffffffffffffffff1916827bffffffffffffffffffffffffffffffffffffffffffffffffffffffff1916149050919050565b60605f6115d4835f01611948565b905060608190508092505050919050565b600260055403611621576040517f3ee5aeb500000000000000000000000000000000000000000000000000000000815260040160405180910390fd5b6002600581905550565b61163c81611637611914565b6119a1565b50565b5f8160076002015461165191906125bd565b90505f60076003015460648361166791906125f0565b611671919061265e565b90508160076002018190555080600760010181905550505050565b6001600581905550565b611710838473ffffffffffffffffffffffffffffffffffffffff1663a9059cbb85856040516024016116c992919061268e565b604051602081830303815290604052915060e01b6020820180517bffffffffffffffffffffffffffffffffffffffffffffffffffffffff83818316178352505050506119f2565b505050565b5f6117208383611088565b156117f4575f805f8581526020019081526020015f205f015f8473ffffffffffffffffffffffffffffffffffffffff1673ffffffffffffffffffffffffffffffffffffffff1681526020019081526020015f205f6101000a81548160ff021916908315150217905550611791611914565b73ffffffffffffffffffffffffffffffffffffffff168273ffffffffffffffffffffffffffffffffffffffff16847ff6391f5c32d9c69d2a47ea670b442974b53935d1edc7fd64eb21e047a839171b60405160405180910390a4600190506117f8565b5f90505b92915050565b5f611823835f018373ffffffffffffffffffffffffffffffffffffffff165f1b611a8d565b905092915050565b5f6118368383611088565b61190a5760015f808581526020019081526020015f205f015f8473ffffffffffffffffffffffffffffffffffffffff1673ffffffffffffffffffffffffffffffffffffffff1681526020019081526020015f205f6101000a81548160ff0219169083151502179055506118a7611914565b73ffffffffffffffffffffffffffffffffffffffff168273ffffffffffffffffffffffffffffffffffffffff16847f2f8788117e7eff1d82e926ec794901d17c78024a50270940304540a733656f0d60405160405180910390a46001905061190e565b5f90505b92915050565b5f33905090565b5f611940835f018373ffffffffffffffffffffffffffffffffffffffff165f1b611b89565b905092915050565b6060815f0180548060200260200160405190810160405280929190818152602001828054801561199557602002820191905f5260205f20905b815481526020019060010190808311611981575b50505050509050919050565b6119ab8282611088565b6119ee5780826040517fe2517d3f0000000000000000000000000000000000000000000000000000000081526004016119e59291906126b5565b60405180910390fd5b5050565b5f8060205f8451602086015f885af180611a11576040513d5f823e3d81fd5b3d92505f519150505f8214611a2a576001811415611a45565b5f8473ffffffffffffffffffffffffffffffffffffffff163b145b15611a8757836040517f5274afe7000000000000000000000000000000000000000000000000000000008152600401611a7e9190612565565b60405180910390fd5b50505050565b5f80836001015f8481526020019081526020015f205490505f8114611b7e575f600182611aba91906126dc565b90505f6001865f0180549050611ad091906126dc565b9050808214611b36575f865f018281548110611aef57611aee61270f565b5b905f5260205f200154905080875f018481548110611b1057611b0f61270f565b5b905f5260205f20018190555083876001015f8381526020019081526020015f2081905550505b855f01805480611b4957611b4861273c565b5b600190038181905f5260205f20015f90559055856001015f8681526020019081526020015f205f905560019350505050611b83565b5f9150505b92915050565b5f611b948383611bf0565b611be657825f0182908060018154018082558091505060019003905f5260205f20015f9091909190915055825f0180549050836001015f8481526020019081526020015f208190555060019050611bea565b5f90505b92915050565b5f80836001015f8481526020019081526020015f20541415905092915050565b5f604051905090565b5f80fd5b5f80fd5b5f7fffffffff0000000000000000000000000000000000000000000000000000000082169050919050565b611c5581611c21565b8114611c5f575f80fd5b50565b5f81359050611c7081611c4c565b92915050565b5f60208284031215611c8b57611c8a611c19565b5b5f611c9884828501611c62565b91505092915050565b5f8115159050919050565b611cb581611ca1565b82525050565b5f602082019050611cce5f830184611cac565b92915050565b5f81519050919050565b5f82825260208201905092915050565b5f819050602082019050919050565b5f73ffffffffffffffffffffffffffffffffffffffff82169050919050565b5f611d2682611cfd565b9050919050565b611d3681611d1c565b82525050565b5f611d478383611d2d565b60208301905092915050565b5f602082019050919050565b5f611d6982611cd4565b611d738185611cde565b9350611d7e83611cee565b805f5b83811015611dae578151611d958882611d3c565b9750611da083611d53565b925050600181019050611d81565b5085935050505092915050565b5f6020820190508181035f830152611dd38184611d5f565b905092915050565b5f819050919050565b611ded81611ddb565b82525050565b5f602082019050611e065f830184611de4565b92915050565b611e1581611ddb565b8114611e1f575f80fd5b50565b5f81359050611e3081611e0c565b92915050565b611e3f81611d1c565b8114611e49575f80fd5b50565b5f81359050611e5a81611e36565b92915050565b5f819050919050565b611e7281611e60565b8114611e7c575f80fd5b50565b5f81359050611e8d81611e69565b92915050565b5f80fd5b5f80fd5b5f601f19601f8301169050919050565b7f4e487b71000000000000000000000000000000000000000000000000000000005f52604160045260245ffd5b611ee182611e9b565b810181811067ffffffffffffffff82111715611f0057611eff611eab565b5b80604052505050565b5f611f12611c10565b9050611f1e8282611ed8565b919050565b5f67ffffffffffffffff821115611f3d57611f3c611eab565b5b611f4682611e9b565b9050602081019050919050565b828183375f83830152505050565b5f611f73611f6e84611f23565b611f09565b905082815260208101848484011115611f8f57611f8e611e97565b5b611f9a848285611f53565b509392505050565b5f82601f830112611fb657611fb5611e93565b5b8135611fc6848260208601611f61565b91505092915050565b5f805f8060808587031215611fe757611fe6611c19565b5b5f611ff487828801611e22565b945050602061200587828801611e4c565b935050604061201687828801611e7f565b925050606085013567ffffffffffffffff81111561203757612036611c1d565b5b61204387828801611fa2565b91505092959194509250565b5f6020828403121561206457612063611c19565b5b5f61207184828501611e22565b91505092915050565b5f6020828403121561208f5761208e611c19565b5b5f61209c84828501611e7f565b91505092915050565b5f602082840312156120ba576120b9611c19565b5b5f6120c784828501611e4c565b91505092915050565b5f80604083850312156120e6576120e5611c19565b5b5f6120f385828601611e22565b925050602061210485828601611e4c565b9150509250929050565b5f819050919050565b5f61213161212c61212784611cfd565b61210e565b611cfd565b9050919050565b5f61214282612117565b9050919050565b5f61215382612138565b9050919050565b61216381612149565b82525050565b5f60208201905061217c5f83018461215a565b92915050565b61218b81611e60565b82525050565b61219a81611d1c565b82525050565b7f4e487b71000000000000000000000000000000000000000000000000000000005f52602160045260245ffd5b600481106121de576121dd6121a0565b5b50565b5f8190506121ee826121cd565b919050565b5f6121fd826121e1565b9050919050565b61220d816121f3565b82525050565b5f60a0820190506122265f830188612182565b6122336020830187612191565b6122406040830186612191565b61224d6060830185612204565b61225a6080830184612182565b9695505050505050565b5f60a0820190506122775f830188612182565b6122846020830187612182565b6122916040830186612182565b61229e6060830185612182565b6122ab6080830184612182565b9695505050505050565b5f6020820190506122c85f830184612182565b92915050565b5f6040820190506122e15f830185612191565b6122ee6020830184612191565b9392505050565b5f82825260208201905092915050565b7f56616c6f72206465766520736572206d61696f722071756520300000000000005f82015250565b5f612339601a836122f5565b915061234482612305565b602082019050919050565b5f6020820190508181035f8301526123668161232d565b9050919050565b7f53616c646f20696e737566696369656e746500000000000000000000000000005f82015250565b5f6123a16012836122f5565b91506123ac8261236d565b602082019050919050565b5f6020820190508181035f8301526123ce81612395565b9050919050565b7f4e487b71000000000000000000000000000000000000000000000000000000005f52601160045260245ffd5b5f61240c82611e60565b91507fffffffffffffffffffffffffffffffffffffffffffffffffffffffffffffffff820361243e5761243d6123d5565b5b600182019050919050565b5f81519050919050565b5f5b83811015612470578082015181840152602081019050612455565b5f8484015250505050565b5f61248582612449565b61248f81856122f5565b935061249f818560208601612453565b6124a881611e9b565b840191505092915050565b5f6080820190506124c65f830187612182565b6124d36020830186612182565b6124e06040830185612204565b81810360608301526124f2818461247b565b905095945050505050565b7f4465737065736120696e76616c696461000000000000000000000000000000005f82015250565b5f6125316010836122f5565b915061253c826124fd565b602082019050919050565b5f6020820190508181035f83015261255e81612525565b9050919050565b5f6020820190506125785f830184612191565b92915050565b5f8151905061258c81611e69565b92915050565b5f602082840312156125a7576125a6611c19565b5b5f6125b48482850161257e565b91505092915050565b5f6125c782611e60565b91506125d283611e60565b92508282019050808211156125ea576125e96123d5565b5b92915050565b5f6125fa82611e60565b915061260583611e60565b925082820261261381611e60565b9150828204841483151761262a576126296123d5565b5b5092915050565b7f4e487b71000000000000000000000000000000000000000000000000000000005f52601260045260245ffd5b5f61266882611e60565b915061267383611e60565b92508261268357612682612631565b5b828204905092915050565b5f6040820190506126a15f830185612191565b6126ae6020830184612182565b9392505050565b5f6040820190506126c85f830185612191565b6126d56020830184611de4565b9392505050565b5f6126e682611e60565b91506126f183611e60565b9250828203905081811115612709576127086123d5565b5b92915050565b7f4e487b71000000000000000000000000000000000000000000000000000000005f52603260045260245ffd5b7f4e487b71000000000000000000000000000000000000000000000000000000005f52603160045260245ffdfea2646970667358221220019ddcbecffe991af148c271b26ccf4cc1fa98918e745ae14994e139c77fe02d64736f6c63430008150033",
  "immutableReferences": {},
  "source": "// SPDX-License-Identifier: MIT\npragma solidity >=0.8.2 <0.9.0;\n\nimport {Permissao} from \"./utils/Permissao.sol\";\nimport {Estruturas} from \"./utils/Estruturas.sol\";\nimport {Modificadores} from \"./utils/Modificadores.sol\";\n\nimport {IERC20} from \"@openzeppelin/contracts/token/ERC20/IERC20.sol\";\nimport {SafeERC20} from \"@openzeppelin/contracts/token/ERC20/utils/SafeERC20.sol\";\nimport {ReentrancyGuard} from \"@openzeppelin/contracts/utils/ReentrancyGuard.sol\";\n\ncontract Municipal is Permissao, Estruturas, Modificadores, ReentrancyGuard {\n    using SafeERC20 for IERC20;\n    IERC20 public moeda;\n\n    Aplicacao public aplicacao =\n        Aplicacao({\n            percentualMinimo: 15,\n            percentualAplicado: 0,\n            valorAplicado: 0,\n            valorArrecadado: 0,\n            valorDistribuido: 0\n        });\n\n    Contrato public contrato;\n\n    mapping(uint256 => Despesa) public despesas;\n    uint256 private proximaDespesaId = 1;\n\n    constructor(address _moeda) {\n        require(_moeda != address(0), \"Moeda invalida\");\n        moeda = IERC20(_moeda);\n    }\n\n    event EventoDespesa(\n        bytes32 indexed txAnterior,\n        address indexed orgao,\n        address indexed fornecedor,\n        uint256 despesaId,\n        uint256 valor,\n        Situacao situacao,\n        string justificativa\n    );\n\n    event EventoSituacaoDespesa(Situacao indexed situacao, uint256 despesaId);\n\n    function setValorArrecadado() public onlyRole(DEFAULT_ADMIN_ROLE) {\n        aplicacao.valorArrecadado = buscarSaldo();\n    }\n\n    function buscarSaldo() public view returns (uint) {\n        return moeda.balanceOf(address(this));\n    }\n\n    function registrar(\n        bytes32 _txAnterior,\n        address _fornecedor,\n        uint256 _valor,\n        string memory _justificativa\n    ) public nonReentrant onlyRole(ORGAO_ROLE) onlyValorPositivo(_valor) {\n        uint256 saldo = buscarSaldo();\n        require(saldo >= _valor, \"Saldo insuficiente\");\n        uint256 id = proximaDespesaId++;\n\n        despesas[id] = Despesa({\n            id: id,\n            emitente: msg.sender,\n            fornecedor: _fornecedor,\n            situacao: Situacao.PENDENTE,\n            valor: _valor\n        });\n\n        calcularAplicacao(_valor);\n        emit EventoDespesa(\n            _txAnterior,\n            msg.sender,\n            _fornecedor,\n            id,\n            _valor,\n            Situacao.PENDENTE,\n            _justificativa\n        );\n    }\n\n    function calcularAplicacao(uint256 _valor) private {\n        uint256 valorTotalAplicado = aplicacao.valorAplicado + _valor;\n        uint256 percentualAplicado = (valorTotalAplicado * 100) /\n            aplicacao.valorArrecadado;\n\n        aplicacao.valorAplicado = valorTotalAplicado;\n        aplicacao.percentualAplicado = percentualAplicado;\n    }\n\n    function confirmarEntrega(uint256 _id) public onlyRole(FORNECEDOR_ROLE) {\n        Despesa storage despesa = despesas[_id];\n\n        require(\n            despesa.situacao != Situacao.FINALIZADO &&\n                despesa.situacao != Situacao.ENTREGUE,\n            \"Despesa invalida\"\n        );\n\n        if (despesa.situacao == Situacao.PENDENTE)\n            despesa.situacao = Situacao.ENTREGUE;\n\n        if (despesa.situacao == Situacao.RECEBIDO) {\n            emit EventoSituacaoDespesa(Situacao.ENTREGUE, _id);\n            despesa.situacao = Situacao.FINALIZADO;\n            moeda.safeTransfer(despesa.fornecedor, despesa.valor);\n        }\n\n        emit EventoSituacaoDespesa(despesa.situacao, _id);\n    }\n\n    function confirmarRecebimento(uint256 _id) public onlyRole(ORGAO_ROLE) {\n        Despesa storage despesa = despesas[_id];\n\n        require(\n            despesa.situacao != Situacao.FINALIZADO &&\n                despesa.situacao != Situacao.RECEBIDO,\n            \"Despesa invalida\"\n        );\n\n        if (despesa.situacao == Situacao.PENDENTE)\n            despesa.situacao = Situacao.RECEBIDO;\n\n        if (despesa.situacao == Situacao.ENTREGUE) {\n            emit EventoSituacaoDespesa(Situacao.RECEBIDO, _id);\n            despesa.situacao = Situacao.FINALIZADO;\n            moeda.safeTransfer(despesa.fornecedor, despesa.valor);\n        }\n\n        emit EventoSituacaoDespesa(despesa.situacao, _id);\n    }\n}\n",
  "sourcePath": "/home/willian_samsung/Documentos/TCC-2025/prototipo/contrato-inteligente/contracts/3_Municipal.sol",
  "compiler": {
    "name": "solc",
    "version": "0.8.21+commit.d9974bed.Emscripten.clang"
  },
  "schemaVersion": "3.4.16",
  "updatedAt": "2025-09-12T00:09:47.517Z",
  "networkType": "ethereum",
  "devdoc": {
    "errors": {
      "AccessControlBadConfirmation()": [
        {
          "details": "The caller of a function is not the expected one. NOTE: Don't confuse with {AccessControlUnauthorizedAccount}."
        }
      ],
      "AccessControlUnauthorizedAccount(address,bytes32)": [
        {
          "details": "The `account` is missing a role."
        }
      ],
      "ReentrancyGuardReentrantCall()": [
        {
          "details": "Unauthorized reentrant call."
        }
      ],
      "SafeERC20FailedOperation(address)": [
        {
          "details": "An operation with an ERC-20 token failed."
        }
      ]
    },
    "events": {
      "RoleAdminChanged(bytes32,bytes32,bytes32)": {
        "details": "Emitted when `newAdminRole` is set as ``role``'s admin role, replacing `previousAdminRole` `DEFAULT_ADMIN_ROLE` is the starting admin for all roles, despite {RoleAdminChanged} not being emitted to signal this."
      },
      "RoleGranted(bytes32,address,address)": {
        "details": "Emitted when `account` is granted `role`. `sender` is the account that originated the contract call. This account bears the admin role (for the granted role). Expected in cases where the role was granted using the internal {AccessControl-_grantRole}."
      },
      "RoleRevoked(bytes32,address,address)": {
        "details": "Emitted when `account` is revoked `role`. `sender` is the account that originated the contract call:   - if using `revokeRole`, it is the admin role bearer   - if using `renounceRole`, it is the role bearer (i.e. `account`)"
      }
    },
    "kind": "dev",
    "methods": {
      "getRoleAdmin(bytes32)": {
        "details": "Returns the admin role that controls `role`. See {grantRole} and {revokeRole}. To change a role's admin, use {_setRoleAdmin}."
      },
      "grantRole(bytes32,address)": {
        "details": "Grants `role` to `account`. If `account` had not been already granted `role`, emits a {RoleGranted} event. Requirements: - the caller must have ``role``'s admin role. May emit a {RoleGranted} event."
      },
      "hasRole(bytes32,address)": {
        "details": "Returns `true` if `account` has been granted `role`."
      },
      "renounceRole(bytes32,address)": {
        "details": "Revokes `role` from the calling account. Roles are often managed via {grantRole} and {revokeRole}: this function's purpose is to provide a mechanism for accounts to lose their privileges if they are compromised (such as when a trusted device is misplaced). If the calling account had been revoked `role`, emits a {RoleRevoked} event. Requirements: - the caller must be `callerConfirmation`. May emit a {RoleRevoked} event."
      },
      "revokeRole(bytes32,address)": {
        "details": "Revokes `role` from `account`. If `account` had been granted `role`, emits a {RoleRevoked} event. Requirements: - the caller must have ``role``'s admin role. May emit a {RoleRevoked} event."
      },
      "supportsInterface(bytes4)": {
        "details": "Returns true if this contract implements the interface defined by `interfaceId`. See the corresponding https://eips.ethereum.org/EIPS/eip-165#how-interfaces-are-identified[ERC section] to learn more about how these ids are created. This function call must use less than 30 000 gas."
      }
    },
    "version": 1
  },
  "userdoc": {
    "kind": "user",
    "methods": {},
    "version": 1
  }
}